{
  "_format": "hh-sol-artifact-1",
  "contractName": "XDCPay",
  "sourceName": "contracts/XDCPay.sol",
  "abi": [
    {
      "inputs": [
        {
          "internalType": "address",
          "name": "_xswap",
          "type": "address"
        }
      ],
      "stateMutability": "nonpayable",
      "type": "constructor"
    },
    {
      "anonymous": false,
      "inputs": [
        {
          "indexed": false,
          "internalType": "address",
          "name": "payer",
          "type": "address"
        },
        {
          "indexed": false,
          "internalType": "uint256",
          "name": "amount",
          "type": "uint256"
        },
        {
          "indexed": false,
          "internalType": "string",
          "name": "token",
          "type": "string"
        }
      ],
      "name": "PaymentReceived",
      "type": "event"
    },
    {
      "anonymous": false,
      "inputs": [
        {
          "indexed": false,
          "internalType": "address",
          "name": "payer",
          "type": "address"
        },
        {
          "indexed": false,
          "internalType": "address",
          "name": "recipient",
          "type": "address"
        },
        {
          "indexed": false,
          "internalType": "uint256",
          "name": "amount",
          "type": "uint256"
        },
        {
          "indexed": false,
          "internalType": "string",
          "name": "token",
          "type": "string"
        },
        {
          "indexed": false,
          "internalType": "uint256",
          "name": "interval",
          "type": "uint256"
        }
      ],
      "name": "PaymentScheduleCreated",
      "type": "event"
    },
    {
      "anonymous": false,
      "inputs": [
        {
          "indexed": false,
          "internalType": "address",
          "name": "payer",
          "type": "address"
        },
        {
          "indexed": false,
          "internalType": "uint256",
          "name": "amount",
          "type": "uint256"
        },
        {
          "indexed": false,
          "internalType": "string",
          "name": "token",
          "type": "string"
        },
        {
          "indexed": false,
          "internalType": "uint256",
          "name": "interval",
          "type": "uint256"
        }
      ],
      "name": "PaymentScheduled",
      "type": "event"
    },
    {
      "anonymous": false,
      "inputs": [
        {
          "indexed": false,
          "internalType": "address",
          "name": "recipient",
          "type": "address"
        },
        {
          "indexed": false,
          "internalType": "uint256",
          "name": "amount",
          "type": "uint256"
        },
        {
          "indexed": false,
          "internalType": "string",
          "name": "token",
          "type": "string"
        }
      ],
      "name": "PaymentSent",
      "type": "event"
    },
    {
      "inputs": [
        {
          "internalType": "string",
          "name": "token",
          "type": "string"
        }
      ],
      "name": "balance",
      "outputs": [
        {
          "internalType": "uint256",
          "name": "",
          "type": "uint256"
        }
      ],
      "stateMutability": "view",
      "type": "function"
    },
    {
      "inputs": [
        {
          "internalType": "address",
          "name": "",
          "type": "address"
        },
        {
          "internalType": "string",
          "name": "",
          "type": "string"
        }
      ],
      "name": "balances",
      "outputs": [
        {
          "internalType": "uint256",
          "name": "",
          "type": "uint256"
        }
      ],
      "stateMutability": "view",
      "type": "function"
    },
    {
      "inputs": [
        {
          "internalType": "string",
          "name": "fromToken",
          "type": "string"
        },
        {
          "internalType": "string",
          "name": "toToken",
          "type": "string"
        },
        {
          "internalType": "uint256",
          "name": "amount",
          "type": "uint256"
        }
      ],
      "name": "convert",
      "outputs": [],
      "stateMutability": "nonpayable",
      "type": "function"
    },
    {
      "inputs": [
        {
          "internalType": "string",
          "name": "token",
          "type": "string"
        },
        {
          "internalType": "uint256",
          "name": "amount",
          "type": "uint256"
        }
      ],
      "name": "pay",
      "outputs": [],
      "stateMutability": "nonpayable",
      "type": "function"
    },
    {
      "inputs": [
        {
          "internalType": "address",
          "name": "",
          "type": "address"
        },
        {
          "internalType": "string",
          "name": "",
          "type": "string"
        }
      ],
      "name": "paymentSchedules",
      "outputs": [
        {
          "internalType": "uint256",
          "name": "",
          "type": "uint256"
        }
      ],
      "stateMutability": "view",
      "type": "function"
    },
    {
      "inputs": [
        {
          "internalType": "string",
          "name": "token",
          "type": "string"
        },
        {
          "internalType": "uint256",
          "name": "amount",
          "type": "uint256"
        },
        {
          "internalType": "uint256",
          "name": "interval",
          "type": "uint256"
        }
      ],
      "name": "schedulePayment",
      "outputs": [],
      "stateMutability": "nonpayable",
      "type": "function"
    },
    {
      "inputs": [
        {
          "internalType": "string",
          "name": "",
          "type": "string"
        }
      ],
      "name": "supportedTokens",
      "outputs": [
        {
          "internalType": "uint256",
          "name": "",
          "type": "uint256"
        }
      ],
      "stateMutability": "view",
      "type": "function"
    },
    {
      "inputs": [
        {
          "internalType": "string",
          "name": "fromToken",
          "type": "string"
        },
        {
          "internalType": "uint256",
          "name": "amount",
          "type": "uint256"
        },
        {
          "internalType": "string",
          "name": "toToken",
          "type": "string"
        }
      ],
      "name": "swap",
      "outputs": [
        {
          "internalType": "uint256",
          "name": "",
          "type": "uint256"
        }
      ],
      "stateMutability": "nonpayable",
      "type": "function"
    }
  ],
  "bytecode": "0x608060405234801561001057600080fd5b50604051610f8f380380610f8f83398101604081905261002f9161010b565b60008054336001600160a01b031991821617909155600480549091166001600160a01b03831617905560405160019060029061006a9061013b565b908152604080519182900360209081018320939093556208aa8960eb1b825260026003808401829052825193849003602390810185208390556242534360e81b855284820183905283519485900301842055631554d11560e21b835260048084019190915281519283900360240183205533600081815260019094529220913191906100f59061013b565b908152604051908190036020019020555061014a565b60006020828403121561011d57600080fd5b81516001600160a01b038116811461013457600080fd5b9392505050565b6258444360e81b815260030190565b610e36806101596000396000f3fe608060405234801561001057600080fd5b50600436106100785760003560e01c806305d01f501461007d5780633d80b532146100cb57806359efab3c146100de57806389919cdd1461011a578063901c5953146101455780639207f95b1461015a578063ab6f26bb1461016d578063d9e4ed1714610180575b600080fd5b6100b961008b366004610a44565b6001602090815260009283526040909220815180830184018051928152908401929093019190912091525481565b60405190815260200160405180910390f35b6100b96100d9366004610a9f565b610193565b6100b96100ec366004610a44565b6003602090815260009283526040909220815180830184018051928152908401929093019190912091525481565b6100b9610128366004610a9f565b805160208183018101805160028252928201919093012091525481565b610158610153366004610adb565b61020f565b005b610158610168366004610b1f565b610478565b6100b961017b366004610b8b565b610682565b61015861018e366004610bf7565b610842565b6000806002836040516101a69190610c74565b908152602001604051809103902054116101db5760405162461bcd60e51b81526004016101d290610c90565b60405180910390fd5b336000908152600160205260409081902090516101f9908490610c74565b9081526020016040518091039020549050919050565b60006002836040516102219190610c74565b9081526020016040518091039020541161024d5760405162461bcd60e51b81526004016101d290610c90565b3360009081526001602052604090819020905182919061026e908590610c74565b908152602001604051809103902054101561029b5760405162461bcd60e51b81526004016101d290610cbb565b336000908152600160205260409081902090518291906102bc908590610c74565b908152602001604051809103902060008282546102d99190610cff565b90915550506000546040517f53c70bd67916e0181ec9b1ae9e5f5e9c76188ad9d5a018bf5fb8b2507a44dd849161031f916001600160a01b039091169084908690610d42565b60405180910390a16004546040516000916001600160a01b03169063805a2b149060029061034e908790610c74565b908152602001604051809103902054600260405161036b90610d72565b908152604051908190036020018120546001600160e01b031960e085901b16825261039b92918790600401610d81565b60206040518083038186803b1580156103b357600080fd5b505afa1580156103c7573d6000803e3d6000fd5b505050506040513d601f19601f820116820180604052508101906103eb9190610d97565b600080546001600160a01b0316815260016020526040908190209051919250829161041590610d72565b908152602001604051809103902060008282546104329190610db0565b90915550506040517f8dfc1109af223bb7f4e48f38a8a7631f492f0106b90747a651bf181b0fc4e4029061046b90339085908790610d42565b60405180910390a1505050565b600060028460405161048a9190610c74565b9081526020016040518091039020541180156104c4575060006002836040516104b39190610c74565b908152602001604051809103902054115b6104e05760405162461bcd60e51b81526004016101d290610c90565b33600090815260016020526040908190209051829190610501908690610c74565b908152602001604051809103902054101561052e5760405162461bcd60e51b81526004016101d290610cbb565b6004546040516000916001600160a01b03169063805a2b1490600290610555908890610c74565b9081526020016040518091039020546002866040516105749190610c74565b908152604051908190036020018120546001600160e01b031960e085901b1682526105a492918790600401610d81565b60206040518083038186803b1580156105bc57600080fd5b505afa1580156105d0573d6000803e3d6000fd5b505050506040513d601f19601f820116820180604052508101906105f49190610d97565b336000908152600160205260409081902090519192508391610617908790610c74565b908152602001604051809103902060008282546106349190610cff565b90915550503360009081526001602052604090819020905182919061065a908690610c74565b908152602001604051809103902060008282546106779190610db0565b909155505050505050565b6000806002856040516106959190610c74565b9081526020016040518091039020541180156106cf575060006002836040516106be9190610c74565b908152602001604051809103902054115b6106eb5760405162461bcd60e51b81526004016101d290610c90565b6004546040516000916001600160a01b03169063805a2b1490600290610712908990610c74565b9081526020016040518091039020546002866040516107319190610c74565b908152604051908190036020018120546001600160e01b031960e085901b16825261076192918990600401610d81565b60206040518083038186803b15801561077957600080fd5b505afa15801561078d573d6000803e3d6000fd5b505050506040513d601f19601f820116820180604052508101906107b19190610d97565b3360009081526001602052604090819020905191925085916107d4908890610c74565b908152602001604051809103902060008282546107f19190610cff565b909155505033600090815260016020526040908190209051829190610817908690610c74565b908152602001604051809103902060008282546108349190610db0565b909155509095945050505050565b60006002846040516108549190610c74565b908152602001604051809103902054116108805760405162461bcd60e51b81526004016101d290610c90565b336000908152600160205260409081902090518391906108a1908690610c74565b90815260200160405180910390205410156108ce5760405162461bcd60e51b81526004016101d290610cbb565b600081116109295760405162461bcd60e51b815260206004820152602260248201527f496e74657276616c206d7573742062652067726561746572207468616e207a65604482015261726f60f01b60648201526084016101d2565b3360009081526003602052604090819020905183919061094a908690610c74565b908152602001604051809103902060008282546109679190610db0565b90915550506040517fb276ef143c34359eaaa07048f76b9447868402ca92457d9777fa55e7c4a108739061046b903390859087908690610dc8565b634e487b7160e01b600052604160045260246000fd5b600082601f8301126109c957600080fd5b81356001600160401b03808211156109e3576109e36109a2565b604051601f8301601f19908116603f01168101908282118183101715610a0b57610a0b6109a2565b81604052838152866020858801011115610a2457600080fd5b836020870160208301376000602085830101528094505050505092915050565b60008060408385031215610a5757600080fd5b82356001600160a01b0381168114610a6e57600080fd5b915060208301356001600160401b03811115610a8957600080fd5b610a95858286016109b8565b9150509250929050565b600060208284031215610ab157600080fd5b81356001600160401b03811115610ac757600080fd5b610ad3848285016109b8565b949350505050565b60008060408385031215610aee57600080fd5b82356001600160401b03811115610b0457600080fd5b610b10858286016109b8565b95602094909401359450505050565b600080600060608486031215610b3457600080fd5b83356001600160401b0380821115610b4b57600080fd5b610b57878388016109b8565b94506020860135915080821115610b6d57600080fd5b50610b7a868287016109b8565b925050604084013590509250925092565b600080600060608486031215610ba057600080fd5b83356001600160401b0380821115610bb757600080fd5b610bc3878388016109b8565b9450602086013593506040860135915080821115610be057600080fd5b50610bed868287016109b8565b9150509250925092565b600080600060608486031215610c0c57600080fd5b83356001600160401b03811115610c2257600080fd5b610c2e868287016109b8565b9660208601359650604090950135949350505050565b60005b83811015610c5f578181015183820152602001610c47565b83811115610c6e576000848401525b50505050565b60008251610c86818460208701610c44565b9190910192915050565b6020808252601190820152702ab739bab83837b93a32b2103a37b5b2b760791b604082015260600190565b602080825260149082015273496e73756666696369656e742062616c616e636560601b604082015260600190565b634e487b7160e01b600052601160045260246000fd5b600082821015610d1157610d11610ce9565b500390565b60008151808452610d2e816020860160208601610c44565b601f01601f19169290920160200192915050565b60018060a01b0384168152826020820152606060408201526000610d696060830184610d16565b95945050505050565b6258444360e81b815260030190565b9283526020830191909152604082015260600190565b600060208284031215610da957600080fd5b5051919050565b60008219821115610dc357610dc3610ce9565b500190565b60018060a01b0385168152836020820152608060408201526000610def6080830185610d16565b90508260608301529594505050505056fea2646970667358221220668182a16b5381ec7f68195c5d2d37131496c791302290568f9d19dd5c2bad5764736f6c63430008090033",
  "linkReferences": {},
  "deployedLinkReferences": {}
}