{
  "_format": "hh-sol-artifact-1",
  "contractName": "XDCPay",
  "sourceName": "contracts/XDCPay.sol",
  "abi": [
    {
      "inputs": [
        {
          "internalType": "address",
          "name": "_xswap",
          "type": "address"
        }
      ],
      "stateMutability": "nonpayable",
      "type": "constructor"
    },
    {
      "anonymous": false,
      "inputs": [
        {
          "indexed": false,
          "internalType": "address",
          "name": "payer",
          "type": "address"
        },
        {
          "indexed": false,
          "internalType": "uint256",
          "name": "amount",
          "type": "uint256"
        },
        {
          "indexed": false,
          "internalType": "string",
          "name": "token",
          "type": "string"
        }
      ],
      "name": "PaymentReceived",
      "type": "event"
    },
    {
      "anonymous": false,
      "inputs": [
        {
          "indexed": false,
          "internalType": "address",
          "name": "payer",
          "type": "address"
        },
        {
          "indexed": false,
          "internalType": "address",
          "name": "recipient",
          "type": "address"
        },
        {
          "indexed": false,
          "internalType": "uint256",
          "name": "amount",
          "type": "uint256"
        },
        {
          "indexed": false,
          "internalType": "string",
          "name": "token",
          "type": "string"
        },
        {
          "indexed": false,
          "internalType": "uint256",
          "name": "interval",
          "type": "uint256"
        }
      ],
      "name": "PaymentScheduleCreated",
      "type": "event"
    },
    {
      "anonymous": false,
      "inputs": [
        {
          "indexed": false,
          "internalType": "address",
          "name": "payer",
          "type": "address"
        },
        {
          "indexed": false,
          "internalType": "uint256",
          "name": "amount",
          "type": "uint256"
        },
        {
          "indexed": false,
          "internalType": "string",
          "name": "token",
          "type": "string"
        },
        {
          "indexed": false,
          "internalType": "uint256",
          "name": "interval",
          "type": "uint256"
        }
      ],
      "name": "PaymentScheduled",
      "type": "event"
    },
    {
      "anonymous": false,
      "inputs": [
        {
          "indexed": false,
          "internalType": "address",
          "name": "recipient",
          "type": "address"
        },
        {
          "indexed": false,
          "internalType": "uint256",
          "name": "amount",
          "type": "uint256"
        },
        {
          "indexed": false,
          "internalType": "string",
          "name": "token",
          "type": "string"
        }
      ],
      "name": "PaymentSent",
      "type": "event"
    },
    {
      "inputs": [
        {
          "internalType": "string",
          "name": "token",
          "type": "string"
        }
      ],
      "name": "balance",
      "outputs": [
        {
          "internalType": "uint256",
          "name": "",
          "type": "uint256"
        }
      ],
      "stateMutability": "view",
      "type": "function"
    },
    {
      "inputs": [
        {
          "internalType": "address",
          "name": "",
          "type": "address"
        },
        {
          "internalType": "string",
          "name": "",
          "type": "string"
        }
      ],
      "name": "balances",
      "outputs": [
        {
          "internalType": "uint256",
          "name": "",
          "type": "uint256"
        }
      ],
      "stateMutability": "view",
      "type": "function"
    },
    {
      "inputs": [
        {
          "internalType": "string",
          "name": "fromToken",
          "type": "string"
        },
        {
          "internalType": "string",
          "name": "toToken",
          "type": "string"
        },
        {
          "internalType": "uint256",
          "name": "amount",
          "type": "uint256"
        }
      ],
      "name": "convert",
      "outputs": [],
      "stateMutability": "nonpayable",
      "type": "function"
    },
    {
      "inputs": [],
      "name": "deposit",
      "outputs": [],
      "stateMutability": "payable",
      "type": "function"
    },
    {
      "inputs": [],
      "name": "getAllPaymentHistory",
      "outputs": [
        {
          "components": [
            {
              "internalType": "address",
              "name": "sender",
              "type": "address"
            },
            {
              "internalType": "address",
              "name": "recipient",
              "type": "address"
            },
            {
              "internalType": "string",
              "name": "token",
              "type": "string"
            },
            {
              "internalType": "uint256",
              "name": "amount",
              "type": "uint256"
            },
            {
              "internalType": "uint256",
              "name": "timestamp",
              "type": "uint256"
            }
          ],
          "internalType": "struct XDCPay.Payment[]",
          "name": "",
          "type": "tuple[]"
        }
      ],
      "stateMutability": "view",
      "type": "function"
    },
    {
      "inputs": [],
      "name": "getBalance",
      "outputs": [
        {
          "internalType": "uint256",
          "name": "",
          "type": "uint256"
        }
      ],
      "stateMutability": "view",
      "type": "function"
    },
    {
      "inputs": [
        {
          "internalType": "uint256",
          "name": "amount",
          "type": "uint256"
        },
        {
          "internalType": "uint256",
          "name": "rate",
          "type": "uint256"
        }
      ],
      "name": "lend",
      "outputs": [],
      "stateMutability": "nonpayable",
      "type": "function"
    },
    {
      "inputs": [
        {
          "internalType": "address",
          "name": "",
          "type": "address"
        }
      ],
      "name": "loanAmounts",
      "outputs": [
        {
          "internalType": "uint256",
          "name": "",
          "type": "uint256"
        }
      ],
      "stateMutability": "view",
      "type": "function"
    },
    {
      "inputs": [
        {
          "internalType": "address",
          "name": "",
          "type": "address"
        }
      ],
      "name": "loanBalances",
      "outputs": [
        {
          "internalType": "uint256",
          "name": "",
          "type": "uint256"
        }
      ],
      "stateMutability": "view",
      "type": "function"
    },
    {
      "inputs": [
        {
          "internalType": "address",
          "name": "",
          "type": "address"
        }
      ],
      "name": "loanRates",
      "outputs": [
        {
          "internalType": "uint256",
          "name": "",
          "type": "uint256"
        }
      ],
      "stateMutability": "view",
      "type": "function"
    },
    {
      "inputs": [
        {
          "internalType": "address",
          "name": "",
          "type": "address"
        }
      ],
      "name": "loanTimes",
      "outputs": [
        {
          "internalType": "uint256",
          "name": "",
          "type": "uint256"
        }
      ],
      "stateMutability": "view",
      "type": "function"
    },
    {
      "inputs": [
        {
          "internalType": "string",
          "name": "token",
          "type": "string"
        },
        {
          "internalType": "address",
          "name": "recipient",
          "type": "address"
        }
      ],
      "name": "makeScheduledPayment",
      "outputs": [],
      "stateMutability": "nonpayable",
      "type": "function"
    },
    {
      "inputs": [
        {
          "internalType": "string",
          "name": "token",
          "type": "string"
        },
        {
          "internalType": "uint256",
          "name": "amount",
          "type": "uint256"
        },
        {
          "internalType": "address payable",
          "name": "recipient",
          "type": "address"
        }
      ],
      "name": "pay",
      "outputs": [],
      "stateMutability": "payable",
      "type": "function"
    },
    {
      "inputs": [
        {
          "internalType": "address",
          "name": "",
          "type": "address"
        },
        {
          "internalType": "uint256",
          "name": "",
          "type": "uint256"
        }
      ],
      "name": "paymentHistory",
      "outputs": [
        {
          "internalType": "address",
          "name": "sender",
          "type": "address"
        },
        {
          "internalType": "address",
          "name": "recipient",
          "type": "address"
        },
        {
          "internalType": "string",
          "name": "token",
          "type": "string"
        },
        {
          "internalType": "uint256",
          "name": "amount",
          "type": "uint256"
        },
        {
          "internalType": "uint256",
          "name": "timestamp",
          "type": "uint256"
        }
      ],
      "stateMutability": "view",
      "type": "function"
    },
    {
      "inputs": [
        {
          "internalType": "address",
          "name": "",
          "type": "address"
        },
        {
          "internalType": "string",
          "name": "",
          "type": "string"
        },
        {
          "internalType": "uint256",
          "name": "",
          "type": "uint256"
        }
      ],
      "name": "paymentSchedules",
      "outputs": [
        {
          "internalType": "address",
          "name": "recipient",
          "type": "address"
        },
        {
          "internalType": "string",
          "name": "token",
          "type": "string"
        },
        {
          "internalType": "uint256",
          "name": "amount",
          "type": "uint256"
        },
        {
          "internalType": "uint256",
          "name": "interval",
          "type": "uint256"
        },
        {
          "internalType": "uint256",
          "name": "lastPaymentTime",
          "type": "uint256"
        }
      ],
      "stateMutability": "view",
      "type": "function"
    },
    {
      "inputs": [],
      "name": "repay",
      "outputs": [],
      "stateMutability": "nonpayable",
      "type": "function"
    },
    {
      "inputs": [
        {
          "internalType": "string",
          "name": "token",
          "type": "string"
        },
        {
          "internalType": "uint256",
          "name": "amount",
          "type": "uint256"
        },
        {
          "internalType": "uint256",
          "name": "interval",
          "type": "uint256"
        }
      ],
      "name": "schedulePayment",
      "outputs": [],
      "stateMutability": "nonpayable",
      "type": "function"
    },
    {
      "inputs": [
        {
          "internalType": "string",
          "name": "",
          "type": "string"
        }
      ],
      "name": "supportedTokens",
      "outputs": [
        {
          "internalType": "uint256",
          "name": "",
          "type": "uint256"
        }
      ],
      "stateMutability": "view",
      "type": "function"
    },
    {
      "inputs": [
        {
          "internalType": "string",
          "name": "fromToken",
          "type": "string"
        },
        {
          "internalType": "uint256",
          "name": "amount",
          "type": "uint256"
        },
        {
          "internalType": "string",
          "name": "toToken",
          "type": "string"
        }
      ],
      "name": "swap",
      "outputs": [
        {
          "internalType": "uint256",
          "name": "",
          "type": "uint256"
        }
      ],
      "stateMutability": "nonpayable",
      "type": "function"
    },
    {
      "inputs": [
        {
          "internalType": "uint256",
          "name": "amount",
          "type": "uint256"
        }
      ],
      "name": "withdraw",
      "outputs": [],
      "stateMutability": "nonpayable",
      "type": "function"
    }
  ],
  "bytecode": "0x60806040523480156200001157600080fd5b506040516200227b3803806200227b833981016040819052620000349162000115565b60008054336001600160a01b031991821617909155600980549091166001600160a01b038316179055604051600190600290620000719062000147565b908152604080519182900360209081018320939093556208aa8960eb1b825260026003808401829052825193849003602390810185208390556242534360e81b855284820183905283519485900301842055631554d11560e21b83526004808401919091528151928390036024018320553360008181526001909452922091319190620000fe9062000147565b908152604051908190036020019020555062000156565b6000602082840312156200012857600080fd5b81516001600160a01b03811681146200014057600080fd5b9392505050565b6258444360e81b815260030190565b61211580620001666000396000f3fe6080604052600436106100ef5760003560e01c806305d01f50146100f457806312065fe0146101505780632e1a7d4d146101725780632ebb4eaa1461019457806339ae1216146101c15780633d80b532146101e1578063402d8883146102015780634c37a6331461021657806375976bad1461024357806389919cdd146102655780638f78e2f01461029d5780639110df85146102ca5780639207f95b146102ea578063a73a37a01461030a578063ab6f26bb1461033b578063c7d3a1ad1461035b578063cc38b47714610388578063d0e30db0146103b9578063d9e4ed17146103c1578063f37a848b146103e1575b600080fd5b34801561010057600080fd5b5061013d61010f3660046119b8565b6001602090815260009283526040909220815180830184018051928152908401929093019190912091525481565b6040519081526020015b60405180910390f35b34801561015c57600080fd5b503360009081526004602052604090205461013d565b34801561017e57600080fd5b5061019261018d366004611a07565b6103f4565b005b3480156101a057600080fd5b5061013d6101af366004611a20565b60076020526000908152604090205481565b3480156101cd57600080fd5b506101926101dc366004611a44565b610481565b3480156101ed57600080fd5b5061013d6101fc366004611a95565b6108fd565b34801561020d57600080fd5b50610192610970565b34801561022257600080fd5b5061013d610231366004611a20565b60066020526000908152604090205481565b34801561024f57600080fd5b50610258610a86565b6040516101479190611b2d565b34801561027157600080fd5b5061013d610280366004611a95565b805160208183018101805160028252928201919093012091525481565b3480156102a957600080fd5b5061013d6102b8366004611a20565b60056020526000908152604090205481565b3480156102d657600080fd5b506101926102e5366004611bd0565b610bb9565b3480156102f657600080fd5b50610192610305366004611bf2565b610d0b565b34801561031657600080fd5b5061032a610325366004611c5e565b610f15565b604051610147959493929190611ca5565b34801561034757600080fd5b5061013d610356366004611ce6565b611015565b34801561036757600080fd5b5061013d610376366004611a20565b60046020526000908152604090205481565b34801561039457600080fd5b506103a86103a3366004611d52565b6111d5565b604051610147959493929190611d7e565b6101926112b9565b3480156103cd57600080fd5b506101926103dc366004611dbe565b6112df565b6101926103ef366004611e0b565b6114d8565b3360009081526004602052604090205481111561042c5760405162461bcd60e51b815260040161042390611e65565b60405180910390fd5b336000908152600460205260408120805483929061044b908490611ea8565b9091555050604051339082156108fc029083906000818181858888f1935050505015801561047d573d6000803e3d6000fd5b5050565b60006002836040516104939190611ebf565b908152602001604051809103902054116104bf5760405162461bcd60e51b815260040161042390611edb565b3360009081526003602052604080822090516104dc908590611ebf565b9081526020016040518091039020905060006104f882846117f8565b825490915081106105425760405162461bcd60e51b8152602060048201526014602482015273139bc81c185e5b595b9d081cd8da19591d5b195960621b6044820152606401610423565b600082828154811061055657610556611f06565b6000918252602090912060059091020160028101546003820154600483015492935090916105848282611f1c565b4210156105c95760405162461bcd60e51b81526020600482015260136024820152725061796d656e74206e6f74207965742064756560681b6044820152606401610423565b6009546040516000916001600160a01b03169063805a2b14906002906105f0908d90611ebf565b908152602001604051809103902054600260405161060d90611f34565b908152604051908190036020018120546001600160e01b031960e085901b16825261063d92918990600401611f43565b60206040518083038186803b15801561065557600080fd5b505afa158015610669573d6000803e3d6000fd5b505050506040513d601f19601f8201168201806040525081019061068d9190611f59565b3360009081526001602052604090819020905191925082916106ae90611f34565b90815260200160405180910390205410156106db5760405162461bcd60e51b815260040161042390611f72565b336000908152600160205260409081902090518291906106fa90611f34565b908152602001604051809103902060008282546107179190611ea8565b90915550506001600160a01b038816600090815260016020526040908190209051859190610746908c90611ebf565b908152602001604051809103902060008282546107639190611f1c565b9250508190555042856004018190555060006040518060a00160405280336001600160a01b0316815260200160008054906101000a90046001600160a01b03166001600160a01b031681526020018b815260200186815260200142815250905060086000336001600160a01b03166001600160a01b0316815260200190815260200160002081908060018154018082558091505060019003906000526020600020906005020160009091909190915060008201518160000160006101000a8154816001600160a01b0302191690836001600160a01b0316021790555060208201518160010160006101000a8154816001600160a01b0302191690836001600160a01b031602179055506040820151816002019080519060200190610888929190611865565b50606082015181600301556080820151816004015550506000805160206120a083398151915233868c6040516108c093929190611fa0565b60405180910390a16000805160206120c083398151915289868c6040516108e993929190611fa0565b60405180910390a150505050505050505050565b6000806002836040516109109190611ebf565b9081526020016040518091039020541161093c5760405162461bcd60e51b815260040161042390611edb565b3360009081526001602052604090819020905161095a908490611ebf565b9081526020016040518091039020549050919050565b3360009081526007602090815260408083205460058352818420546006909352908320546301e1338092906109a59042611ea8565b6109af9190611fd0565b6109b99190611fd0565b6109c39190611fef565b905060008111610a095760405162461bcd60e51b81526020600482015260116024820152702737903637b0b7103a37903932b830bc9760791b6044820152606401610423565b33600090815260046020526040902054811115610a385760405162461bcd60e51b815260040161042390611e65565b3360009081526004602052604081208054839290610a57908490611ea8565b909155505033600090815260056020908152604080832083905560068252808320839055600790915281205550565b336000908152600860209081526040808320805482518185028101850190935280835260609492939192909184015b82821015610bb05760008481526020908190206040805160a0810182526005860290920180546001600160a01b0390811684526001820154169383019390935260028301805492939291840191610b0b90612011565b80601f0160208091040260200160405190810160405280929190818152602001828054610b3790612011565b8015610b845780601f10610b5957610100808354040283529160200191610b84565b820191906000526020600020905b815481529060010190602001808311610b6757829003601f168201915b505050505081526020016003820154815260200160048201548152505081526020019060010190610ab5565b50505050905090565b60008211610c135760405162461bcd60e51b815260206004820152602160248201527f416d6f756e74206d7573742062652067726561746572207468616e207a65726f6044820152601760f91b6064820152608401610423565b60008111610c745760405162461bcd60e51b815260206004820152602860248201527f496e7465726573742072617465206d757374206265206772656174657220746860448201526730b7103d32b9379760c11b6064820152608401610423565b33600090815260046020526040902054821115610ca35760405162461bcd60e51b815260040161042390611e65565b3360009081526004602052604081208054849290610cc2908490611ea8565b90915550503360009081526005602052604081208054849290610ce6908490611f1c565b9091555050336000908152600660209081526040808320429055600790915290205550565b6000600284604051610d1d9190611ebf565b908152602001604051809103902054118015610d5757506000600283604051610d469190611ebf565b908152602001604051809103902054115b610d735760405162461bcd60e51b815260040161042390611edb565b33600090815260016020526040908190209051829190610d94908690611ebf565b9081526020016040518091039020541015610dc15760405162461bcd60e51b815260040161042390611f72565b6009546040516000916001600160a01b03169063805a2b1490600290610de8908890611ebf565b908152602001604051809103902054600286604051610e079190611ebf565b908152604051908190036020018120546001600160e01b031960e085901b168252610e3792918790600401611f43565b60206040518083038186803b158015610e4f57600080fd5b505afa158015610e63573d6000803e3d6000fd5b505050506040513d601f19601f82011682018060405250810190610e879190611f59565b336000908152600160205260409081902090519192508391610eaa908790611ebf565b90815260200160405180910390206000828254610ec79190611ea8565b909155505033600090815260016020526040908190209051829190610eed908690611ebf565b90815260200160405180910390206000828254610f0a9190611f1c565b909155505050505050565b60036020908152600084815260409020835180850183018051928152908301928501929092209152805482908110610f4c57600080fd5b6000918252602090912060059091020180546001820180546001600160a01b039092169550919350909150610f8090612011565b80601f0160208091040260200160405190810160405280929190818152602001828054610fac90612011565b8015610ff95780601f10610fce57610100808354040283529160200191610ff9565b820191906000526020600020905b815481529060010190602001808311610fdc57829003601f168201915b5050505050908060020154908060030154908060040154905085565b6000806002856040516110289190611ebf565b908152602001604051809103902054118015611062575060006002836040516110519190611ebf565b908152602001604051809103902054115b61107e5760405162461bcd60e51b815260040161042390611edb565b6009546040516000916001600160a01b03169063805a2b14906002906110a5908990611ebf565b9081526020016040518091039020546002866040516110c49190611ebf565b908152604051908190036020018120546001600160e01b031960e085901b1682526110f492918990600401611f43565b60206040518083038186803b15801561110c57600080fd5b505afa158015611120573d6000803e3d6000fd5b505050506040513d601f19601f820116820180604052508101906111449190611f59565b336000908152600160205260409081902090519192508591611167908890611ebf565b908152602001604051809103902060008282546111849190611ea8565b9091555050336000908152600160205260409081902090518291906111aa908690611ebf565b908152602001604051809103902060008282546111c79190611f1c565b909155509095945050505050565b600860205281600052604060002081815481106111f157600080fd5b60009182526020909120600590910201805460018201546002830180546001600160a01b03938416965091909216935061122a90612011565b80601f016020809104026020016040519081016040528092919081815260200182805461125690612011565b80156112a35780601f10611278576101008083540402835291602001916112a3565b820191906000526020600020905b81548152906001019060200180831161128657829003601f168201915b5050505050908060030154908060040154905085565b33600090815260046020526040812080543492906112d8908490611f1c565b9091555050565b60006002846040516112f19190611ebf565b9081526020016040518091039020541161131d5760405162461bcd60e51b815260040161042390611edb565b3360009081526001602052604090819020905183919061133e908690611ebf565b908152602001604051809103902054101561136b5760405162461bcd60e51b815260040161042390611f72565b600081116113c65760405162461bcd60e51b815260206004820152602260248201527f496e74657276616c206d7573742062652067726561746572207468616e207a65604482015261726f60f01b6064820152608401610423565b6040805160a081018252600080546001600160a01b03168252602080830187905282840186905260608301859052426080840152338252600390528290209151909190611414908690611ebf565b90815260405160209181900382019020805460018082018355600092835291839020845160059092020180546001600160a01b0319166001600160a01b039092169190911781558383015180518594929361147493908501920190611865565b5060408201518160020155606082015181600301556080820151816004015550507fb276ef143c34359eaaa07048f76b9447868402ca92457d9777fa55e7c4a10873338486856040516114ca949392919061204c565b60405180910390a150505050565b60006002846040516114ea9190611ebf565b908152602001604051809103902054116115165760405162461bcd60e51b815260040161042390611edb565b33600090815260016020526040908190209051839190611537908690611ebf565b90815260200160405180910390205410156115645760405162461bcd60e51b815260040161042390611f72565b6040516001600160a01b038216903480156108fc02916000818181858888f19350505050158015611599573d6000803e3d6000fd5b50336000908152600160205260409081902090518391906115bb908690611ebf565b908152602001604051809103902060008282546115d89190611ea8565b90915550506040516000805160206120a0833981519152906115ff90839085908790611fa0565b60405180910390a16009546040516000916001600160a01b03169063805a2b149060029061162e908890611ebf565b908152602001604051809103902054600260405161164b90611f34565b908152604051908190036020018120546001600160e01b031960e085901b16825261167b92918890600401611f43565b60206040518083038186803b15801561169357600080fd5b505afa1580156116a7573d6000803e3d6000fd5b505050506040513d601f19601f820116820180604052508101906116cb9190611f59565b6001600160a01b03831660009081526001602052604090819020905191925082916116f590611f34565b908152602001604051809103902060008282546117129190611f1c565b90915550506040516000805160206120c08339815191529061173990339086908890611fa0565b60405180910390a16040805160a08101825233808252600080546001600160a01b0390811660208086019182528587018b8152606087018b90524260808801529484526008815295832080546001818101835591855293879020865160059095020180549484166001600160a01b03199586161781559151908201805491909316931692909217905590518051929384936117da9260028501920190611865565b50606082015181600301556080820151816004015550505050505050565b6000805b835481101561185a57826001600160a01b031684828154811061182157611821611f06565b60009182526020909120600590910201546001600160a01b0316141561184857905061185f565b8061185281612084565b9150506117fc565b505081545b92915050565b82805461187190612011565b90600052602060002090601f01602090048101928261189357600085556118d9565b82601f106118ac57805160ff19168380011785556118d9565b828001600101855582156118d9579182015b828111156118d95782518255916020019190600101906118be565b506118e59291506118e9565b5090565b5b808211156118e557600081556001016118ea565b6001600160a01b038116811461191357600080fd5b50565b634e487b7160e01b600052604160045260246000fd5b600082601f83011261193d57600080fd5b81356001600160401b038082111561195757611957611916565b604051601f8301601f19908116603f0116810190828211818310171561197f5761197f611916565b8160405283815286602085880101111561199857600080fd5b836020870160208301376000602085830101528094505050505092915050565b600080604083850312156119cb57600080fd5b82356119d6816118fe565b915060208301356001600160401b038111156119f157600080fd5b6119fd8582860161192c565b9150509250929050565b600060208284031215611a1957600080fd5b5035919050565b600060208284031215611a3257600080fd5b8135611a3d816118fe565b9392505050565b60008060408385031215611a5757600080fd5b82356001600160401b03811115611a6d57600080fd5b611a798582860161192c565b9250506020830135611a8a816118fe565b809150509250929050565b600060208284031215611aa757600080fd5b81356001600160401b03811115611abd57600080fd5b611ac98482850161192c565b949350505050565b60005b83811015611aec578181015183820152602001611ad4565b83811115611afb576000848401525b50505050565b60008151808452611b19816020860160208601611ad1565b601f01601f19169290920160200192915050565b60006020808301818452808551808352604092508286019150828160051b87010184880160005b83811015611bc257888303603f19018552815180516001600160a01b0390811685528882015116888501528681015160a088860181905290611b9882870182611b01565b60608481015190880152608093840151939096019290925250509386019390860190600101611b54565b509098975050505050505050565b60008060408385031215611be357600080fd5b50508035926020909101359150565b600080600060608486031215611c0757600080fd5b83356001600160401b0380821115611c1e57600080fd5b611c2a8783880161192c565b94506020860135915080821115611c4057600080fd5b50611c4d8682870161192c565b925050604084013590509250925092565b600080600060608486031215611c7357600080fd5b8335611c7e816118fe565b925060208401356001600160401b03811115611c9957600080fd5b611c4d8682870161192c565b6001600160a01b038616815260a060208201819052600090611cc990830187611b01565b604083019590955250606081019290925260809091015292915050565b600080600060608486031215611cfb57600080fd5b83356001600160401b0380821115611d1257600080fd5b611d1e8783880161192c565b9450602086013593506040860135915080821115611d3b57600080fd5b50611d488682870161192c565b9150509250925092565b60008060408385031215611d6557600080fd5b8235611d70816118fe565b946020939093013593505050565b6001600160a01b0386811682528516602082015260a060408201819052600090611daa90830186611b01565b606083019490945250608001529392505050565b600080600060608486031215611dd357600080fd5b83356001600160401b03811115611de957600080fd5b611df58682870161192c565b9660208601359650604090950135949350505050565b600080600060608486031215611e2057600080fd5b83356001600160401b03811115611e3657600080fd5b611e428682870161192c565b935050602084013591506040840135611e5a816118fe565b809150509250925092565b60208082526013908201527224b739bab33334b1b4b2b73a10333ab732399760691b604082015260600190565b634e487b7160e01b600052601160045260246000fd5b600082821015611eba57611eba611e92565b500390565b60008251611ed1818460208701611ad1565b9190910192915050565b6020808252601190820152702ab739bab83837b93a32b2103a37b5b2b760791b604082015260600190565b634e487b7160e01b600052603260045260246000fd5b60008219821115611f2f57611f2f611e92565b500190565b6258444360e81b815260030190565b9283526020830191909152604082015260600190565b600060208284031215611f6b57600080fd5b5051919050565b602080825260149082015273496e73756666696369656e742062616c616e636560601b604082015260600190565b60018060a01b0384168152826020820152606060408201526000611fc76060830184611b01565b95945050505050565b6000816000190483118215151615611fea57611fea611e92565b500290565b60008261200c57634e487b7160e01b600052601260045260246000fd5b500490565b600181811c9082168061202557607f821691505b6020821081141561204657634e487b7160e01b600052602260045260246000fd5b50919050565b60018060a01b03851681528360208201526080604082015260006120736080830185611b01565b905082606083015295945050505050565b600060001982141561209857612098611e92565b506001019056fe53c70bd67916e0181ec9b1ae9e5f5e9c76188ad9d5a018bf5fb8b2507a44dd848dfc1109af223bb7f4e48f38a8a7631f492f0106b90747a651bf181b0fc4e402a26469706673582212204dc48d28ddc84592faf0d598c743efe3718c6f630199b22197610c2666bbf89764736f6c63430008090033",
  "linkReferences": {},
  "deployedLinkReferences": {}
}