{
  "_format": "hh-sol-artifact-1",
  "contractName": "XDCPay",
  "sourceName": "contracts/XDCPay.sol",
  "abi": [
    {
      "inputs": [
        {
          "internalType": "address",
          "name": "_xswap",
          "type": "address"
        }
      ],
      "stateMutability": "nonpayable",
      "type": "constructor"
    },
    {
      "anonymous": false,
      "inputs": [
        {
          "indexed": false,
          "internalType": "address",
          "name": "payer",
          "type": "address"
        },
        {
          "indexed": false,
          "internalType": "uint256",
          "name": "amount",
          "type": "uint256"
        },
        {
          "indexed": false,
          "internalType": "string",
          "name": "token",
          "type": "string"
        }
      ],
      "name": "PaymentReceived",
      "type": "event"
    },
    {
      "anonymous": false,
      "inputs": [
        {
          "indexed": false,
          "internalType": "address",
          "name": "payer",
          "type": "address"
        },
        {
          "indexed": false,
          "internalType": "address",
          "name": "recipient",
          "type": "address"
        },
        {
          "indexed": false,
          "internalType": "uint256",
          "name": "amount",
          "type": "uint256"
        },
        {
          "indexed": false,
          "internalType": "string",
          "name": "token",
          "type": "string"
        },
        {
          "indexed": false,
          "internalType": "uint256",
          "name": "interval",
          "type": "uint256"
        }
      ],
      "name": "PaymentScheduleCreated",
      "type": "event"
    },
    {
      "anonymous": false,
      "inputs": [
        {
          "indexed": false,
          "internalType": "address",
          "name": "payer",
          "type": "address"
        },
        {
          "indexed": false,
          "internalType": "uint256",
          "name": "amount",
          "type": "uint256"
        },
        {
          "indexed": false,
          "internalType": "string",
          "name": "token",
          "type": "string"
        },
        {
          "indexed": false,
          "internalType": "uint256",
          "name": "interval",
          "type": "uint256"
        }
      ],
      "name": "PaymentScheduled",
      "type": "event"
    },
    {
      "anonymous": false,
      "inputs": [
        {
          "indexed": false,
          "internalType": "address",
          "name": "recipient",
          "type": "address"
        },
        {
          "indexed": false,
          "internalType": "uint256",
          "name": "amount",
          "type": "uint256"
        },
        {
          "indexed": false,
          "internalType": "string",
          "name": "token",
          "type": "string"
        }
      ],
      "name": "PaymentSent",
      "type": "event"
    },
    {
      "inputs": [
        {
          "internalType": "string",
          "name": "token",
          "type": "string"
        }
      ],
      "name": "balance",
      "outputs": [
        {
          "internalType": "uint256",
          "name": "",
          "type": "uint256"
        }
      ],
      "stateMutability": "view",
      "type": "function"
    },
    {
      "inputs": [
        {
          "internalType": "address",
          "name": "",
          "type": "address"
        },
        {
          "internalType": "string",
          "name": "",
          "type": "string"
        }
      ],
      "name": "balances",
      "outputs": [
        {
          "internalType": "uint256",
          "name": "",
          "type": "uint256"
        }
      ],
      "stateMutability": "view",
      "type": "function"
    },
    {
      "inputs": [
        {
          "internalType": "string",
          "name": "fromToken",
          "type": "string"
        },
        {
          "internalType": "string",
          "name": "toToken",
          "type": "string"
        },
        {
          "internalType": "uint256",
          "name": "amount",
          "type": "uint256"
        }
      ],
      "name": "convert",
      "outputs": [],
      "stateMutability": "nonpayable",
      "type": "function"
    },
    {
      "inputs": [],
      "name": "deposit",
      "outputs": [],
      "stateMutability": "payable",
      "type": "function"
    },
    {
      "inputs": [],
      "name": "getAllPaymentHistory",
      "outputs": [
        {
          "components": [
            {
              "internalType": "address",
              "name": "sender",
              "type": "address"
            },
            {
              "internalType": "address",
              "name": "recipient",
              "type": "address"
            },
            {
              "internalType": "string",
              "name": "token",
              "type": "string"
            },
            {
              "internalType": "uint256",
              "name": "amount",
              "type": "uint256"
            },
            {
              "internalType": "uint256",
              "name": "timestamp",
              "type": "uint256"
            }
          ],
          "internalType": "struct XDCPay.Payment[]",
          "name": "",
          "type": "tuple[]"
        }
      ],
      "stateMutability": "view",
      "type": "function"
    },
    {
      "inputs": [],
      "name": "getBalance",
      "outputs": [
        {
          "internalType": "uint256",
          "name": "",
          "type": "uint256"
        }
      ],
      "stateMutability": "view",
      "type": "function"
    },
    {
      "inputs": [
        {
          "internalType": "uint256",
          "name": "amount",
          "type": "uint256"
        },
        {
          "internalType": "uint256",
          "name": "rate",
          "type": "uint256"
        }
      ],
      "name": "lend",
      "outputs": [],
      "stateMutability": "nonpayable",
      "type": "function"
    },
    {
      "inputs": [
        {
          "internalType": "address",
          "name": "",
          "type": "address"
        }
      ],
      "name": "loanAmounts",
      "outputs": [
        {
          "internalType": "uint256",
          "name": "",
          "type": "uint256"
        }
      ],
      "stateMutability": "view",
      "type": "function"
    },
    {
      "inputs": [
        {
          "internalType": "address",
          "name": "",
          "type": "address"
        }
      ],
      "name": "loanBalances",
      "outputs": [
        {
          "internalType": "uint256",
          "name": "",
          "type": "uint256"
        }
      ],
      "stateMutability": "view",
      "type": "function"
    },
    {
      "inputs": [
        {
          "internalType": "address",
          "name": "",
          "type": "address"
        }
      ],
      "name": "loanRates",
      "outputs": [
        {
          "internalType": "uint256",
          "name": "",
          "type": "uint256"
        }
      ],
      "stateMutability": "view",
      "type": "function"
    },
    {
      "inputs": [
        {
          "internalType": "address",
          "name": "",
          "type": "address"
        }
      ],
      "name": "loanTimes",
      "outputs": [
        {
          "internalType": "uint256",
          "name": "",
          "type": "uint256"
        }
      ],
      "stateMutability": "view",
      "type": "function"
    },
    {
      "inputs": [
        {
          "internalType": "string",
          "name": "token",
          "type": "string"
        },
        {
          "internalType": "address",
          "name": "recipient",
          "type": "address"
        }
      ],
      "name": "makeScheduledPayment",
      "outputs": [],
      "stateMutability": "nonpayable",
      "type": "function"
    },
    {
      "inputs": [
        {
          "internalType": "string",
          "name": "token",
          "type": "string"
        },
        {
          "internalType": "uint256",
          "name": "amount",
          "type": "uint256"
        },
        {
          "internalType": "address",
          "name": "recipient",
          "type": "address"
        }
      ],
      "name": "pay",
      "outputs": [],
      "stateMutability": "nonpayable",
      "type": "function"
    },
    {
      "inputs": [
        {
          "internalType": "address",
          "name": "",
          "type": "address"
        },
        {
          "internalType": "uint256",
          "name": "",
          "type": "uint256"
        }
      ],
      "name": "paymentHistory",
      "outputs": [
        {
          "internalType": "address",
          "name": "sender",
          "type": "address"
        },
        {
          "internalType": "address",
          "name": "recipient",
          "type": "address"
        },
        {
          "internalType": "string",
          "name": "token",
          "type": "string"
        },
        {
          "internalType": "uint256",
          "name": "amount",
          "type": "uint256"
        },
        {
          "internalType": "uint256",
          "name": "timestamp",
          "type": "uint256"
        }
      ],
      "stateMutability": "view",
      "type": "function"
    },
    {
      "inputs": [
        {
          "internalType": "address",
          "name": "",
          "type": "address"
        },
        {
          "internalType": "string",
          "name": "",
          "type": "string"
        },
        {
          "internalType": "uint256",
          "name": "",
          "type": "uint256"
        }
      ],
      "name": "paymentSchedules",
      "outputs": [
        {
          "internalType": "address",
          "name": "recipient",
          "type": "address"
        },
        {
          "internalType": "string",
          "name": "token",
          "type": "string"
        },
        {
          "internalType": "uint256",
          "name": "amount",
          "type": "uint256"
        },
        {
          "internalType": "uint256",
          "name": "interval",
          "type": "uint256"
        },
        {
          "internalType": "uint256",
          "name": "lastPaymentTime",
          "type": "uint256"
        }
      ],
      "stateMutability": "view",
      "type": "function"
    },
    {
      "inputs": [],
      "name": "repay",
      "outputs": [],
      "stateMutability": "nonpayable",
      "type": "function"
    },
    {
      "inputs": [
        {
          "internalType": "string",
          "name": "token",
          "type": "string"
        },
        {
          "internalType": "uint256",
          "name": "amount",
          "type": "uint256"
        },
        {
          "internalType": "uint256",
          "name": "interval",
          "type": "uint256"
        }
      ],
      "name": "schedulePayment",
      "outputs": [],
      "stateMutability": "nonpayable",
      "type": "function"
    },
    {
      "inputs": [
        {
          "internalType": "string",
          "name": "",
          "type": "string"
        }
      ],
      "name": "supportedTokens",
      "outputs": [
        {
          "internalType": "uint256",
          "name": "",
          "type": "uint256"
        }
      ],
      "stateMutability": "view",
      "type": "function"
    },
    {
      "inputs": [
        {
          "internalType": "string",
          "name": "fromToken",
          "type": "string"
        },
        {
          "internalType": "uint256",
          "name": "amount",
          "type": "uint256"
        },
        {
          "internalType": "string",
          "name": "toToken",
          "type": "string"
        }
      ],
      "name": "swap",
      "outputs": [
        {
          "internalType": "uint256",
          "name": "",
          "type": "uint256"
        }
      ],
      "stateMutability": "nonpayable",
      "type": "function"
    },
    {
      "inputs": [
        {
          "internalType": "uint256",
          "name": "amount",
          "type": "uint256"
        }
      ],
      "name": "withdraw",
      "outputs": [],
      "stateMutability": "nonpayable",
      "type": "function"
    }
  ],
  "bytecode": "0x60806040523480156200001157600080fd5b506040516200224638038062002246833981016040819052620000349162000115565b60008054336001600160a01b031991821617909155600980549091166001600160a01b038316179055604051600190600290620000719062000147565b908152604080519182900360209081018320939093556208aa8960eb1b825260026003808401829052825193849003602390810185208390556242534360e81b855284820183905283519485900301842055631554d11560e21b83526004808401919091528151928390036024018320553360008181526001909452922091319190620000fe9062000147565b908152604051908190036020019020555062000156565b6000602082840312156200012857600080fd5b81516001600160a01b03811681146200014057600080fd5b9392505050565b6258444360e81b815260030190565b6120e080620001666000396000f3fe6080604052600436106100ef5760003560e01c806305d01f50146100f457806312065fe0146101505780632e1a7d4d146101725780632ebb4eaa1461019457806339ae1216146101c15780633d80b532146101e1578063402d8883146102015780634c37a6331461021657806375976bad1461024357806389919cdd146102655780638f78e2f01461029d5780639110df85146102ca5780639207f95b146102ea578063a73a37a01461030a578063ab6f26bb1461033b578063c7d3a1ad1461035b578063cc38b47714610388578063d0e30db0146103b9578063d9e4ed17146103c1578063f37a848b146103e1575b600080fd5b34801561010057600080fd5b5061013d61010f366004611993565b6001602090815260009283526040909220815180830184018051928152908401929093019190912091525481565b6040519081526020015b60405180910390f35b34801561015c57600080fd5b503360009081526004602052604090205461013d565b34801561017e57600080fd5b5061019261018d3660046119e0565b610401565b005b3480156101a057600080fd5b5061013d6101af3660046119f9565b60076020526000908152604090205481565b3480156101cd57600080fd5b506101926101dc366004611a1b565b61048e565b3480156101ed57600080fd5b5061013d6101fc366004611a68565b61090a565b34801561020d57600080fd5b5061019261097d565b34801561022257600080fd5b5061013d6102313660046119f9565b60066020526000908152604090205481565b34801561024f57600080fd5b50610258610a93565b6040516101479190611b00565b34801561027157600080fd5b5061013d610280366004611a68565b805160208183018101805160028252928201919093012091525481565b3480156102a957600080fd5b5061013d6102b83660046119f9565b60056020526000908152604090205481565b3480156102d657600080fd5b506101926102e5366004611ba3565b610bc6565b3480156102f657600080fd5b50610192610305366004611bc5565b610d18565b34801561031657600080fd5b5061032a610325366004611c31565b610f22565b604051610147959493929190611c76565b34801561034757600080fd5b5061013d610356366004611cb7565b611022565b34801561036757600080fd5b5061013d6103763660046119f9565b60046020526000908152604090205481565b34801561039457600080fd5b506103a86103a3366004611d23565b6111e2565b604051610147959493929190611d4d565b6101926112c6565b3480156103cd57600080fd5b506101926103dc366004611d8d565b6112ec565b3480156103ed57600080fd5b506101926103fc366004611dda565b6114e5565b336000908152600460205260409020548111156104395760405162461bcd60e51b815260040161043090611e30565b60405180910390fd5b3360009081526004602052604081208054839290610458908490611e73565b9091555050604051339082156108fc029083906000818181858888f1935050505015801561048a573d6000803e3d6000fd5b5050565b60006002836040516104a09190611e8a565b908152602001604051809103902054116104cc5760405162461bcd60e51b815260040161043090611ea6565b3360009081526003602052604080822090516104e9908590611e8a565b90815260200160405180910390209050600061050582846117cf565b8254909150811061054f5760405162461bcd60e51b8152602060048201526014602482015273139bc81c185e5b595b9d081cd8da19591d5b195960621b6044820152606401610430565b600082828154811061056357610563611ed1565b6000918252602090912060059091020160028101546003820154600483015492935090916105918282611ee7565b4210156105d65760405162461bcd60e51b81526020600482015260136024820152725061796d656e74206e6f74207965742064756560681b6044820152606401610430565b6009546040516000916001600160a01b03169063805a2b14906002906105fd908d90611e8a565b908152602001604051809103902054600260405161061a90611eff565b908152604051908190036020018120546001600160e01b031960e085901b16825261064a92918990600401611f0e565b60206040518083038186803b15801561066257600080fd5b505afa158015610676573d6000803e3d6000fd5b505050506040513d601f19601f8201168201806040525081019061069a9190611f24565b3360009081526001602052604090819020905191925082916106bb90611eff565b90815260200160405180910390205410156106e85760405162461bcd60e51b815260040161043090611f3d565b3360009081526001602052604090819020905182919061070790611eff565b908152602001604051809103902060008282546107249190611e73565b90915550506001600160a01b038816600090815260016020526040908190209051859190610753908c90611e8a565b908152602001604051809103902060008282546107709190611ee7565b9250508190555042856004018190555060006040518060a00160405280336001600160a01b0316815260200160008054906101000a90046001600160a01b03166001600160a01b031681526020018b815260200186815260200142815250905060086000336001600160a01b03166001600160a01b0316815260200190815260200160002081908060018154018082558091505060019003906000526020600020906005020160009091909190915060008201518160000160006101000a8154816001600160a01b0302191690836001600160a01b0316021790555060208201518160010160006101000a8154816001600160a01b0302191690836001600160a01b03160217905550604082015181600201908051906020019061089592919061183c565b506060820151816003015560808201518160040155505060008051602061206b83398151915233868c6040516108cd93929190611f6b565b60405180910390a160008051602061208b83398151915289868c6040516108f693929190611f6b565b60405180910390a150505050505050505050565b60008060028360405161091d9190611e8a565b908152602001604051809103902054116109495760405162461bcd60e51b815260040161043090611ea6565b33600090815260016020526040908190209051610967908490611e8a565b9081526020016040518091039020549050919050565b3360009081526007602090815260408083205460058352818420546006909352908320546301e1338092906109b29042611e73565b6109bc9190611f9b565b6109c69190611f9b565b6109d09190611fba565b905060008111610a165760405162461bcd60e51b81526020600482015260116024820152702737903637b0b7103a37903932b830bc9760791b6044820152606401610430565b33600090815260046020526040902054811115610a455760405162461bcd60e51b815260040161043090611e30565b3360009081526004602052604081208054839290610a64908490611e73565b909155505033600090815260056020908152604080832083905560068252808320839055600790915281205550565b336000908152600860209081526040808320805482518185028101850190935280835260609492939192909184015b82821015610bbd5760008481526020908190206040805160a0810182526005860290920180546001600160a01b0390811684526001820154169383019390935260028301805492939291840191610b1890611fdc565b80601f0160208091040260200160405190810160405280929190818152602001828054610b4490611fdc565b8015610b915780601f10610b6657610100808354040283529160200191610b91565b820191906000526020600020905b815481529060010190602001808311610b7457829003601f168201915b505050505081526020016003820154815260200160048201548152505081526020019060010190610ac2565b50505050905090565b60008211610c205760405162461bcd60e51b815260206004820152602160248201527f416d6f756e74206d7573742062652067726561746572207468616e207a65726f6044820152601760f91b6064820152608401610430565b60008111610c815760405162461bcd60e51b815260206004820152602860248201527f496e7465726573742072617465206d757374206265206772656174657220746860448201526730b7103d32b9379760c11b6064820152608401610430565b33600090815260046020526040902054821115610cb05760405162461bcd60e51b815260040161043090611e30565b3360009081526004602052604081208054849290610ccf908490611e73565b90915550503360009081526005602052604081208054849290610cf3908490611ee7565b9091555050336000908152600660209081526040808320429055600790915290205550565b6000600284604051610d2a9190611e8a565b908152602001604051809103902054118015610d6457506000600283604051610d539190611e8a565b908152602001604051809103902054115b610d805760405162461bcd60e51b815260040161043090611ea6565b33600090815260016020526040908190209051829190610da1908690611e8a565b9081526020016040518091039020541015610dce5760405162461bcd60e51b815260040161043090611f3d565b6009546040516000916001600160a01b03169063805a2b1490600290610df5908890611e8a565b908152602001604051809103902054600286604051610e149190611e8a565b908152604051908190036020018120546001600160e01b031960e085901b168252610e4492918790600401611f0e565b60206040518083038186803b158015610e5c57600080fd5b505afa158015610e70573d6000803e3d6000fd5b505050506040513d601f19601f82011682018060405250810190610e949190611f24565b336000908152600160205260409081902090519192508391610eb7908790611e8a565b90815260200160405180910390206000828254610ed49190611e73565b909155505033600090815260016020526040908190209051829190610efa908690611e8a565b90815260200160405180910390206000828254610f179190611ee7565b909155505050505050565b60036020908152600084815260409020835180850183018051928152908301928501929092209152805482908110610f5957600080fd5b6000918252602090912060059091020180546001820180546001600160a01b039092169550919350909150610f8d90611fdc565b80601f0160208091040260200160405190810160405280929190818152602001828054610fb990611fdc565b80156110065780601f10610fdb57610100808354040283529160200191611006565b820191906000526020600020905b815481529060010190602001808311610fe957829003601f168201915b5050505050908060020154908060030154908060040154905085565b6000806002856040516110359190611e8a565b90815260200160405180910390205411801561106f5750600060028360405161105e9190611e8a565b908152602001604051809103902054115b61108b5760405162461bcd60e51b815260040161043090611ea6565b6009546040516000916001600160a01b03169063805a2b14906002906110b2908990611e8a565b9081526020016040518091039020546002866040516110d19190611e8a565b908152604051908190036020018120546001600160e01b031960e085901b16825261110192918990600401611f0e565b60206040518083038186803b15801561111957600080fd5b505afa15801561112d573d6000803e3d6000fd5b505050506040513d601f19601f820116820180604052508101906111519190611f24565b336000908152600160205260409081902090519192508591611174908890611e8a565b908152602001604051809103902060008282546111919190611e73565b9091555050336000908152600160205260409081902090518291906111b7908690611e8a565b908152602001604051809103902060008282546111d49190611ee7565b909155509095945050505050565b600860205281600052604060002081815481106111fe57600080fd5b60009182526020909120600590910201805460018201546002830180546001600160a01b03938416965091909216935061123790611fdc565b80601f016020809104026020016040519081016040528092919081815260200182805461126390611fdc565b80156112b05780601f10611285576101008083540402835291602001916112b0565b820191906000526020600020905b81548152906001019060200180831161129357829003601f168201915b5050505050908060030154908060040154905085565b33600090815260046020526040812080543492906112e5908490611ee7565b9091555050565b60006002846040516112fe9190611e8a565b9081526020016040518091039020541161132a5760405162461bcd60e51b815260040161043090611ea6565b3360009081526001602052604090819020905183919061134b908690611e8a565b90815260200160405180910390205410156113785760405162461bcd60e51b815260040161043090611f3d565b600081116113d35760405162461bcd60e51b815260206004820152602260248201527f496e74657276616c206d7573742062652067726561746572207468616e207a65604482015261726f60f01b6064820152608401610430565b6040805160a081018252600080546001600160a01b03168252602080830187905282840186905260608301859052426080840152338252600390528290209151909190611421908690611e8a565b90815260405160209181900382019020805460018082018355600092835291839020845160059092020180546001600160a01b0319166001600160a01b03909216919091178155838301518051859492936114819390850192019061183c565b5060408201518160020155606082015181600301556080820151816004015550507fb276ef143c34359eaaa07048f76b9447868402ca92457d9777fa55e7c4a10873338486856040516114d79493929190612017565b60405180910390a150505050565b60006002846040516114f79190611e8a565b908152602001604051809103902054116115235760405162461bcd60e51b815260040161043090611ea6565b33600090815260016020526040908190209051839190611544908690611e8a565b90815260200160405180910390205410156115715760405162461bcd60e51b815260040161043090611f3d565b33600090815260016020526040908190209051839190611592908690611e8a565b908152602001604051809103902060008282546115af9190611e73565b909155505060405160008051602061206b833981519152906115d690839085908790611f6b565b60405180910390a16009546040516000916001600160a01b03169063805a2b1490600290611605908890611e8a565b908152602001604051809103902054600260405161162290611eff565b908152604051908190036020018120546001600160e01b031960e085901b16825261165292918890600401611f0e565b60206040518083038186803b15801561166a57600080fd5b505afa15801561167e573d6000803e3d6000fd5b505050506040513d601f19601f820116820180604052508101906116a29190611f24565b6001600160a01b03831660009081526001602052604090819020905191925082916116cc90611eff565b908152602001604051809103902060008282546116e99190611ee7565b909155505060405160008051602061208b8339815191529061171090339086908890611f6b565b60405180910390a16040805160a08101825233808252600080546001600160a01b0390811660208086019182528587018b8152606087018b90524260808801529484526008815295832080546001818101835591855293879020865160059095020180549484166001600160a01b03199586161781559151908201805491909316931692909217905590518051929384936117b1926002850192019061183c565b50606082015181600301556080820151816004015550505050505050565b6000805b835481101561183157826001600160a01b03168482815481106117f8576117f8611ed1565b60009182526020909120600590910201546001600160a01b0316141561181f579050611836565b806118298161204f565b9150506117d3565b505081545b92915050565b82805461184890611fdc565b90600052602060002090601f01602090048101928261186a57600085556118b0565b82601f1061188357805160ff19168380011785556118b0565b828001600101855582156118b0579182015b828111156118b0578251825591602001919060010190611895565b506118bc9291506118c0565b5090565b5b808211156118bc57600081556001016118c1565b80356001600160a01b03811681146118ec57600080fd5b919050565b634e487b7160e01b600052604160045260246000fd5b600082601f83011261191857600080fd5b81356001600160401b0380821115611932576119326118f1565b604051601f8301601f19908116603f0116810190828211818310171561195a5761195a6118f1565b8160405283815286602085880101111561197357600080fd5b836020870160208301376000602085830101528094505050505092915050565b600080604083850312156119a657600080fd5b6119af836118d5565b915060208301356001600160401b038111156119ca57600080fd5b6119d685828601611907565b9150509250929050565b6000602082840312156119f257600080fd5b5035919050565b600060208284031215611a0b57600080fd5b611a14826118d5565b9392505050565b60008060408385031215611a2e57600080fd5b82356001600160401b03811115611a4457600080fd5b611a5085828601611907565b925050611a5f602084016118d5565b90509250929050565b600060208284031215611a7a57600080fd5b81356001600160401b03811115611a9057600080fd5b611a9c84828501611907565b949350505050565b60005b83811015611abf578181015183820152602001611aa7565b83811115611ace576000848401525b50505050565b60008151808452611aec816020860160208601611aa4565b601f01601f19169290920160200192915050565b60006020808301818452808551808352604092508286019150828160051b87010184880160005b83811015611b9557888303603f19018552815180516001600160a01b0390811685528882015116888501528681015160a088860181905290611b6b82870182611ad4565b60608481015190880152608093840151939096019290925250509386019390860190600101611b27565b509098975050505050505050565b60008060408385031215611bb657600080fd5b50508035926020909101359150565b600080600060608486031215611bda57600080fd5b83356001600160401b0380821115611bf157600080fd5b611bfd87838801611907565b94506020860135915080821115611c1357600080fd5b50611c2086828701611907565b925050604084013590509250925092565b600080600060608486031215611c4657600080fd5b611c4f846118d5565b925060208401356001600160401b03811115611c6a57600080fd5b611c2086828701611907565b6001600160a01b038616815260a060208201819052600090611c9a90830187611ad4565b604083019590955250606081019290925260809091015292915050565b600080600060608486031215611ccc57600080fd5b83356001600160401b0380821115611ce357600080fd5b611cef87838801611907565b9450602086013593506040860135915080821115611d0c57600080fd5b50611d1986828701611907565b9150509250925092565b60008060408385031215611d3657600080fd5b611d3f836118d5565b946020939093013593505050565b6001600160a01b0386811682528516602082015260a060408201819052600090611d7990830186611ad4565b606083019490945250608001529392505050565b600080600060608486031215611da257600080fd5b83356001600160401b03811115611db857600080fd5b611dc486828701611907565b9660208601359650604090950135949350505050565b600080600060608486031215611def57600080fd5b83356001600160401b03811115611e0557600080fd5b611e1186828701611907565b93505060208401359150611e27604085016118d5565b90509250925092565b60208082526013908201527224b739bab33334b1b4b2b73a10333ab732399760691b604082015260600190565b634e487b7160e01b600052601160045260246000fd5b600082821015611e8557611e85611e5d565b500390565b60008251611e9c818460208701611aa4565b9190910192915050565b6020808252601190820152702ab739bab83837b93a32b2103a37b5b2b760791b604082015260600190565b634e487b7160e01b600052603260045260246000fd5b60008219821115611efa57611efa611e5d565b500190565b6258444360e81b815260030190565b9283526020830191909152604082015260600190565b600060208284031215611f3657600080fd5b5051919050565b602080825260149082015273496e73756666696369656e742062616c616e636560601b604082015260600190565b60018060a01b0384168152826020820152606060408201526000611f926060830184611ad4565b95945050505050565b6000816000190483118215151615611fb557611fb5611e5d565b500290565b600082611fd757634e487b7160e01b600052601260045260246000fd5b500490565b600181811c90821680611ff057607f821691505b6020821081141561201157634e487b7160e01b600052602260045260246000fd5b50919050565b60018060a01b038516815283602082015260806040820152600061203e6080830185611ad4565b905082606083015295945050505050565b600060001982141561206357612063611e5d565b506001019056fe53c70bd67916e0181ec9b1ae9e5f5e9c76188ad9d5a018bf5fb8b2507a44dd848dfc1109af223bb7f4e48f38a8a7631f492f0106b90747a651bf181b0fc4e402a26469706673582212206f2864665d87f1db8eae16888d48cf04f79cd7cce97b4a430ed5daeb3982431164736f6c63430008090033",
  "linkReferences": {},
  "deployedLinkReferences": {}
}