{
  "_format": "hh-sol-artifact-1",
  "contractName": "XDCPay",
  "sourceName": "contracts/XDCPay.sol",
  "abi": [
    {
      "inputs": [],
      "stateMutability": "nonpayable",
      "type": "constructor"
    },
    {
      "anonymous": false,
      "inputs": [
        {
          "indexed": false,
          "internalType": "address",
          "name": "payer",
          "type": "address"
        },
        {
          "indexed": false,
          "internalType": "uint256",
          "name": "amount",
          "type": "uint256"
        },
        {
          "indexed": false,
          "internalType": "string",
          "name": "token",
          "type": "string"
        }
      ],
      "name": "PaymentReceived",
      "type": "event"
    },
    {
      "anonymous": false,
      "inputs": [
        {
          "indexed": false,
          "internalType": "address",
          "name": "payer",
          "type": "address"
        },
        {
          "indexed": false,
          "internalType": "address",
          "name": "recipient",
          "type": "address"
        },
        {
          "indexed": false,
          "internalType": "uint256",
          "name": "amount",
          "type": "uint256"
        },
        {
          "indexed": false,
          "internalType": "string",
          "name": "token",
          "type": "string"
        },
        {
          "indexed": false,
          "internalType": "uint256",
          "name": "interval",
          "type": "uint256"
        }
      ],
      "name": "PaymentScheduleCreated",
      "type": "event"
    },
    {
      "anonymous": false,
      "inputs": [
        {
          "indexed": false,
          "internalType": "address",
          "name": "payer",
          "type": "address"
        },
        {
          "indexed": false,
          "internalType": "uint256",
          "name": "amount",
          "type": "uint256"
        },
        {
          "indexed": false,
          "internalType": "string",
          "name": "token",
          "type": "string"
        },
        {
          "indexed": false,
          "internalType": "uint256",
          "name": "interval",
          "type": "uint256"
        }
      ],
      "name": "PaymentScheduled",
      "type": "event"
    },
    {
      "anonymous": false,
      "inputs": [
        {
          "indexed": false,
          "internalType": "address",
          "name": "recipient",
          "type": "address"
        },
        {
          "indexed": false,
          "internalType": "uint256",
          "name": "amount",
          "type": "uint256"
        },
        {
          "indexed": false,
          "internalType": "string",
          "name": "token",
          "type": "string"
        }
      ],
      "name": "PaymentSent",
      "type": "event"
    },
    {
      "inputs": [
        {
          "internalType": "string",
          "name": "token",
          "type": "string"
        }
      ],
      "name": "balance",
      "outputs": [
        {
          "internalType": "uint256",
          "name": "",
          "type": "uint256"
        }
      ],
      "stateMutability": "view",
      "type": "function"
    },
    {
      "inputs": [
        {
          "internalType": "address",
          "name": "",
          "type": "address"
        }
      ],
      "name": "balances",
      "outputs": [
        {
          "internalType": "uint256",
          "name": "",
          "type": "uint256"
        }
      ],
      "stateMutability": "view",
      "type": "function"
    },
    {
      "inputs": [
        {
          "internalType": "string",
          "name": "token",
          "type": "string"
        },
        {
          "internalType": "uint256",
          "name": "amount",
          "type": "uint256"
        }
      ],
      "name": "convert",
      "outputs": [],
      "stateMutability": "nonpayable",
      "type": "function"
    },
    {
      "inputs": [
        {
          "internalType": "string",
          "name": "fromToken",
          "type": "string"
        },
        {
          "internalType": "string",
          "name": "toToken",
          "type": "string"
        },
        {
          "internalType": "uint256",
          "name": "amount",
          "type": "uint256"
        }
      ],
      "name": "convertTokens",
      "outputs": [],
      "stateMutability": "nonpayable",
      "type": "function"
    },
    {
      "inputs": [
        {
          "internalType": "uint256",
          "name": "amount",
          "type": "uint256"
        },
        {
          "internalType": "string",
          "name": "token",
          "type": "string"
        }
      ],
      "name": "pay",
      "outputs": [],
      "stateMutability": "nonpayable",
      "type": "function"
    },
    {
      "inputs": [
        {
          "internalType": "address",
          "name": "",
          "type": "address"
        },
        {
          "internalType": "string",
          "name": "",
          "type": "string"
        }
      ],
      "name": "paymentSchedules",
      "outputs": [
        {
          "internalType": "uint256",
          "name": "",
          "type": "uint256"
        }
      ],
      "stateMutability": "view",
      "type": "function"
    },
    {
      "inputs": [
        {
          "internalType": "string",
          "name": "token",
          "type": "string"
        },
        {
          "internalType": "uint256",
          "name": "amount",
          "type": "uint256"
        },
        {
          "internalType": "uint256",
          "name": "interval",
          "type": "uint256"
        }
      ],
      "name": "schedulePayment",
      "outputs": [],
      "stateMutability": "nonpayable",
      "type": "function"
    },
    {
      "inputs": [
        {
          "internalType": "string",
          "name": "",
          "type": "string"
        }
      ],
      "name": "supportedTokens",
      "outputs": [
        {
          "internalType": "uint256",
          "name": "",
          "type": "uint256"
        }
      ],
      "stateMutability": "view",
      "type": "function"
    },
    {
      "inputs": [
        {
          "internalType": "uint256",
          "name": "amount",
          "type": "uint256"
        },
        {
          "internalType": "string",
          "name": "fromToken",
          "type": "string"
        },
        {
          "internalType": "string",
          "name": "toToken",
          "type": "string"
        }
      ],
      "name": "swap",
      "outputs": [
        {
          "internalType": "uint256",
          "name": "",
          "type": "uint256"
        }
      ],
      "stateMutability": "nonpayable",
      "type": "function"
    }
  ],
  "bytecode": "0x608060405234801561001057600080fd5b50600080546001600160a01b0319163317905560405160019060029061003f906258444360e81b815260030190565b908152604051908190036020018120919091556208aa8960eb1b81526002908190600301908152604051908190036020018120919091556242534360e81b8152600390600290820190815260405190819003602001812091909155631554d11560e21b8152600490600290820190815260405190819003602001902055611001806100cb6000396000f3fe608060405234801561001057600080fd5b50600436106100835760003560e01c80631181dfc514610088578063154fbbc41461009d57806327e235e3146100b05780633d80b532146100e257806359efab3c146100f557806381ee83091461013157806389919cdd14610144578063d9e4ed171461016f578063dbc16a6314610182575b600080fd5b61009b610096366004610bb6565b610195565b005b61009b6100ab366004610bfa565b610380565b6100d06100be366004610c5c565b60016020526000908152604090205481565b60405190815260200160405180910390f35b6100d06100f0366004610c77565b6105a8565b6100d0610103366004610cb3565b6003602090815260009283526040909220815180830184018051928152908401929093019190912091525481565b6100d061013f366004610cea565b6106c2565b6100d0610152366004610c77565b805160208183018101805160028252928201919093012091525481565b61009b61017d366004610d56565b610823565b61009b610190366004610da3565b610964565b6000546001600160a01b031633146101f45760405162461bcd60e51b815260206004820152601d60248201527f4f6e6c79206f776e65722063616e20636f6e7665727420746f6b656e7300000060448201526064015b60405180910390fd5b60006002836040516102069190610e3f565b908152602001604051809103902054116102325760405162461bcd60e51b81526004016101eb90610e5b565b306000908152600160205260409020548111156102615760405162461bcd60e51b81526004016101eb90610e86565b3060009081526001602052604081208054839290610280908490610eca565b90915550506004546040516000916001600160a01b03169063805a2b14906002906102ac908790610e3f565b90815260200160405180910390205460026040516102c990610ee1565b908152604051908190036020018120546001600160e01b031960e085901b1682526102f992918790600401610ef0565b60206040518083038186803b15801561031157600080fd5b505afa158015610325573d6000803e3d6000fd5b505050506040513d601f19601f820116820180604052508101906103499190610f06565b600080546001600160a01b0316815260016020526040812080549293508392909190610376908490610f1f565b9091555050505050565b60006002826040516103929190610e3f565b908152602001604051809103902054116103be5760405162461bcd60e51b81526004016101eb90610e5b565b336000908152600160205260409020548211156103ed5760405162461bcd60e51b81526004016101eb90610e86565b336000908152600160205260408120805484929061040c908490610eca565b9091555050600054604080516001600160a01b0390921682526020820184905260608282018190526003908301526258444360e81b6080830152517f53c70bd67916e0181ec9b1ae9e5f5e9c76188ad9d5a018bf5fb8b2507a44dd849181900360a00190a16004546040516000916001600160a01b03169063805a2b1490600290610498908690610e3f565b90815260200160405180910390205460026040516104b590610ee1565b908152604051908190036020018120546001600160e01b031960e085901b1682526104e592918890600401610ef0565b60206040518083038186803b1580156104fd57600080fd5b505afa158015610511573d6000803e3d6000fd5b505050506040513d601f19601f820116820180604052508101906105359190610f06565b600080546001600160a01b0316815260016020526040812080549293508392909190610562908490610f1f565b90915550506040517f8dfc1109af223bb7f4e48f38a8a7631f492f0106b90747a651bf181b0fc4e4029061059b90339086908690610f63565b60405180910390a1505050565b6000806002836040516105bb9190610e3f565b908152602001604051809103902054116105e75760405162461bcd60e51b81526004016101eb90610e5b565b6004546040516000916001600160a01b03169063805a2b149060029061060e908790610e3f565b908152602001604051809103902054600260405161062b90610ee1565b908152604080519182900360209081018320543360009081526001909252919020546001600160e01b031960e086901b16835261066b9392600401610ef0565b60206040518083038186803b15801561068357600080fd5b505afa158015610697573d6000803e3d6000fd5b505050506040513d601f19601f820116820180604052508101906106bb9190610f06565b9392505050565b6000806002846040516106d59190610e3f565b90815260200160405180910390205411801561070f575060006002836040516106fe9190610e3f565b908152602001604051809103902054115b61072b5760405162461bcd60e51b81526004016101eb90610e5b565b6004546040516000916001600160a01b03169063805a2b1490600290610752908890610e3f565b9081526020016040518091039020546002866040516107719190610e3f565b908152604051908190036020018120546001600160e01b031960e085901b1682526107a192918a90600401610ef0565b60206040518083038186803b1580156107b957600080fd5b505afa1580156107cd573d6000803e3d6000fd5b505050506040513d601f19601f820116820180604052508101906107f19190610f06565b33600090815260016020526040812080549293508392909190610815908490610f1f565b909155509095945050505050565b60006002846040516108359190610e3f565b908152602001604051809103902054116108615760405162461bcd60e51b81526004016101eb90610e5b565b336000908152600160205260409020548211156108905760405162461bcd60e51b81526004016101eb90610e86565b600081116108eb5760405162461bcd60e51b815260206004820152602260248201527f496e74657276616c206d7573742062652067726561746572207468616e207a65604482015261726f60f01b60648201526084016101eb565b3360009081526003602052604090819020905183919061090c908690610e3f565b908152602001604051809103902060008282546109299190610f1f565b90915550506040517fb276ef143c34359eaaa07048f76b9447868402ca92457d9777fa55e7c4a108739061059b903390859087908690610f93565b60006002846040516109769190610e3f565b9081526020016040518091039020541180156109b05750600060028360405161099f9190610e3f565b908152602001604051809103902054115b6109cc5760405162461bcd60e51b81526004016101eb90610e5b565b336000908152600160205260409020548111156109fb5760405162461bcd60e51b81526004016101eb90610e86565b6004546040516000916001600160a01b03169063805a2b1490600290610a22908890610e3f565b908152602001604051809103902054600286604051610a419190610e3f565b908152604051908190036020018120546001600160e01b031960e085901b168252610a7192918790600401610ef0565b60206040518083038186803b158015610a8957600080fd5b505afa158015610a9d573d6000803e3d6000fd5b505050506040513d601f19601f82011682018060405250810190610ac19190610f06565b33600090815260016020526040812080549293508492909190610ae5908490610eca565b90915550503360009081526001602052604081208054839290610b09908490610f1f565b909155505050505050565b634e487b7160e01b600052604160045260246000fd5b600082601f830112610b3b57600080fd5b81356001600160401b0380821115610b5557610b55610b14565b604051601f8301601f19908116603f01168101908282118183101715610b7d57610b7d610b14565b81604052838152866020858801011115610b9657600080fd5b836020870160208301376000602085830101528094505050505092915050565b60008060408385031215610bc957600080fd5b82356001600160401b03811115610bdf57600080fd5b610beb85828601610b2a565b95602094909401359450505050565b60008060408385031215610c0d57600080fd5b8235915060208301356001600160401b03811115610c2a57600080fd5b610c3685828601610b2a565b9150509250929050565b80356001600160a01b0381168114610c5757600080fd5b919050565b600060208284031215610c6e57600080fd5b6106bb82610c40565b600060208284031215610c8957600080fd5b81356001600160401b03811115610c9f57600080fd5b610cab84828501610b2a565b949350505050565b60008060408385031215610cc657600080fd5b610ccf83610c40565b915060208301356001600160401b03811115610c2a57600080fd5b600080600060608486031215610cff57600080fd5b8335925060208401356001600160401b0380821115610d1d57600080fd5b610d2987838801610b2a565b93506040860135915080821115610d3f57600080fd5b50610d4c86828701610b2a565b9150509250925092565b600080600060608486031215610d6b57600080fd5b83356001600160401b03811115610d8157600080fd5b610d8d86828701610b2a565b9660208601359650604090950135949350505050565b600080600060608486031215610db857600080fd5b83356001600160401b0380821115610dcf57600080fd5b610ddb87838801610b2a565b94506020860135915080821115610df157600080fd5b50610dfe86828701610b2a565b925050604084013590509250925092565b60005b83811015610e2a578181015183820152602001610e12565b83811115610e39576000848401525b50505050565b60008251610e51818460208701610e0f565b9190910192915050565b6020808252601190820152702ab739bab83837b93a32b2103a37b5b2b760791b604082015260600190565b602080825260149082015273496e73756666696369656e742062616c616e636560601b604082015260600190565b634e487b7160e01b600052601160045260246000fd5b600082821015610edc57610edc610eb4565b500390565b6258444360e81b815260030190565b9283526020830191909152604082015260600190565b600060208284031215610f1857600080fd5b5051919050565b60008219821115610f3257610f32610eb4565b500190565b60008151808452610f4f816020860160208601610e0f565b601f01601f19169290920160200192915050565b60018060a01b0384168152826020820152606060408201526000610f8a6060830184610f37565b95945050505050565b60018060a01b0385168152836020820152608060408201526000610fba6080830185610f37565b90508260608301529594505050505056fea2646970667358221220cc66173d104d0ae3a88f05138f49b89e1698547ff1e2277dec16840c0f4442d564736f6c63430008090033",
  "linkReferences": {},
  "deployedLinkReferences": {}
}