{
  "_format": "hh-sol-artifact-1",
  "contractName": "XDCPay",
  "sourceName": "contracts/XDCPay.sol",
  "abi": [
    {
      "inputs": [
        {
          "internalType": "address",
          "name": "_xswap",
          "type": "address"
        }
      ],
      "stateMutability": "nonpayable",
      "type": "constructor"
    },
    {
      "anonymous": false,
      "inputs": [
        {
          "indexed": false,
          "internalType": "address",
          "name": "payer",
          "type": "address"
        },
        {
          "indexed": false,
          "internalType": "uint256",
          "name": "amount",
          "type": "uint256"
        },
        {
          "indexed": false,
          "internalType": "string",
          "name": "token",
          "type": "string"
        }
      ],
      "name": "PaymentReceived",
      "type": "event"
    },
    {
      "anonymous": false,
      "inputs": [
        {
          "indexed": false,
          "internalType": "address",
          "name": "payer",
          "type": "address"
        },
        {
          "indexed": false,
          "internalType": "address",
          "name": "recipient",
          "type": "address"
        },
        {
          "indexed": false,
          "internalType": "uint256",
          "name": "amount",
          "type": "uint256"
        },
        {
          "indexed": false,
          "internalType": "string",
          "name": "token",
          "type": "string"
        },
        {
          "indexed": false,
          "internalType": "uint256",
          "name": "interval",
          "type": "uint256"
        }
      ],
      "name": "PaymentScheduleCreated",
      "type": "event"
    },
    {
      "anonymous": false,
      "inputs": [
        {
          "indexed": false,
          "internalType": "address",
          "name": "payer",
          "type": "address"
        },
        {
          "indexed": false,
          "internalType": "uint256",
          "name": "amount",
          "type": "uint256"
        },
        {
          "indexed": false,
          "internalType": "string",
          "name": "token",
          "type": "string"
        },
        {
          "indexed": false,
          "internalType": "uint256",
          "name": "interval",
          "type": "uint256"
        }
      ],
      "name": "PaymentScheduled",
      "type": "event"
    },
    {
      "anonymous": false,
      "inputs": [
        {
          "indexed": false,
          "internalType": "address",
          "name": "recipient",
          "type": "address"
        },
        {
          "indexed": false,
          "internalType": "uint256",
          "name": "amount",
          "type": "uint256"
        },
        {
          "indexed": false,
          "internalType": "string",
          "name": "token",
          "type": "string"
        }
      ],
      "name": "PaymentSent",
      "type": "event"
    },
    {
      "inputs": [
        {
          "internalType": "string",
          "name": "token",
          "type": "string"
        }
      ],
      "name": "balance",
      "outputs": [
        {
          "internalType": "uint256",
          "name": "",
          "type": "uint256"
        }
      ],
      "stateMutability": "view",
      "type": "function"
    },
    {
      "inputs": [
        {
          "internalType": "address",
          "name": "",
          "type": "address"
        },
        {
          "internalType": "string",
          "name": "",
          "type": "string"
        }
      ],
      "name": "balances",
      "outputs": [
        {
          "internalType": "uint256",
          "name": "",
          "type": "uint256"
        }
      ],
      "stateMutability": "view",
      "type": "function"
    },
    {
      "inputs": [
        {
          "internalType": "string",
          "name": "fromToken",
          "type": "string"
        },
        {
          "internalType": "string",
          "name": "toToken",
          "type": "string"
        },
        {
          "internalType": "uint256",
          "name": "amount",
          "type": "uint256"
        }
      ],
      "name": "convert",
      "outputs": [],
      "stateMutability": "nonpayable",
      "type": "function"
    },
    {
      "inputs": [],
      "name": "deposit",
      "outputs": [],
      "stateMutability": "payable",
      "type": "function"
    },
    {
      "inputs": [],
      "name": "getBalance",
      "outputs": [
        {
          "internalType": "uint256",
          "name": "",
          "type": "uint256"
        }
      ],
      "stateMutability": "view",
      "type": "function"
    },
    {
      "inputs": [
        {
          "internalType": "uint256",
          "name": "amount",
          "type": "uint256"
        },
        {
          "internalType": "uint256",
          "name": "rate",
          "type": "uint256"
        }
      ],
      "name": "lend",
      "outputs": [],
      "stateMutability": "nonpayable",
      "type": "function"
    },
    {
      "inputs": [
        {
          "internalType": "address",
          "name": "",
          "type": "address"
        }
      ],
      "name": "loanAmounts",
      "outputs": [
        {
          "internalType": "uint256",
          "name": "",
          "type": "uint256"
        }
      ],
      "stateMutability": "view",
      "type": "function"
    },
    {
      "inputs": [
        {
          "internalType": "address",
          "name": "",
          "type": "address"
        }
      ],
      "name": "loanBalances",
      "outputs": [
        {
          "internalType": "uint256",
          "name": "",
          "type": "uint256"
        }
      ],
      "stateMutability": "view",
      "type": "function"
    },
    {
      "inputs": [
        {
          "internalType": "address",
          "name": "",
          "type": "address"
        }
      ],
      "name": "loanRates",
      "outputs": [
        {
          "internalType": "uint256",
          "name": "",
          "type": "uint256"
        }
      ],
      "stateMutability": "view",
      "type": "function"
    },
    {
      "inputs": [
        {
          "internalType": "address",
          "name": "",
          "type": "address"
        }
      ],
      "name": "loanTimes",
      "outputs": [
        {
          "internalType": "uint256",
          "name": "",
          "type": "uint256"
        }
      ],
      "stateMutability": "view",
      "type": "function"
    },
    {
      "inputs": [
        {
          "internalType": "string",
          "name": "token",
          "type": "string"
        },
        {
          "internalType": "uint256",
          "name": "amount",
          "type": "uint256"
        }
      ],
      "name": "pay",
      "outputs": [],
      "stateMutability": "nonpayable",
      "type": "function"
    },
    {
      "inputs": [
        {
          "internalType": "address",
          "name": "",
          "type": "address"
        },
        {
          "internalType": "string",
          "name": "",
          "type": "string"
        }
      ],
      "name": "paymentSchedules",
      "outputs": [
        {
          "internalType": "uint256",
          "name": "",
          "type": "uint256"
        }
      ],
      "stateMutability": "view",
      "type": "function"
    },
    {
      "inputs": [],
      "name": "repay",
      "outputs": [],
      "stateMutability": "nonpayable",
      "type": "function"
    },
    {
      "inputs": [
        {
          "internalType": "string",
          "name": "token",
          "type": "string"
        },
        {
          "internalType": "uint256",
          "name": "amount",
          "type": "uint256"
        },
        {
          "internalType": "uint256",
          "name": "interval",
          "type": "uint256"
        }
      ],
      "name": "schedulePayment",
      "outputs": [],
      "stateMutability": "nonpayable",
      "type": "function"
    },
    {
      "inputs": [
        {
          "internalType": "string",
          "name": "",
          "type": "string"
        }
      ],
      "name": "supportedTokens",
      "outputs": [
        {
          "internalType": "uint256",
          "name": "",
          "type": "uint256"
        }
      ],
      "stateMutability": "view",
      "type": "function"
    },
    {
      "inputs": [
        {
          "internalType": "string",
          "name": "fromToken",
          "type": "string"
        },
        {
          "internalType": "uint256",
          "name": "amount",
          "type": "uint256"
        },
        {
          "internalType": "string",
          "name": "toToken",
          "type": "string"
        }
      ],
      "name": "swap",
      "outputs": [
        {
          "internalType": "uint256",
          "name": "",
          "type": "uint256"
        }
      ],
      "stateMutability": "nonpayable",
      "type": "function"
    },
    {
      "inputs": [
        {
          "internalType": "uint256",
          "name": "amount",
          "type": "uint256"
        }
      ],
      "name": "withdraw",
      "outputs": [],
      "stateMutability": "nonpayable",
      "type": "function"
    }
  ],
  "bytecode": "0x608060405234801561001057600080fd5b5060405161156b38038061156b83398101604081905261002f9161010b565b60008054336001600160a01b031991821617909155600880549091166001600160a01b03831617905560405160019060029061006a9061013b565b908152604080519182900360209081018320939093556208aa8960eb1b825260026003808401829052825193849003602390810185208390556242534360e81b855284820183905283519485900301842055631554d11560e21b835260048084019190915281519283900360240183205533600081815260019094529220913191906100f59061013b565b908152604051908190036020019020555061014a565b60006020828403121561011d57600080fd5b81516001600160a01b038116811461013457600080fd5b9392505050565b6258444360e81b815260030190565b611412806101596000396000f3fe6080604052600436106100ce5760003560e01c806305d01f50146100d357806312065fe01461012e5780632e1a7d4d146101505780632ebb4eaa146101725780633d80b5321461019f578063402d8883146101bf5780634c37a633146101d457806359efab3c1461020157806389919cdd1461024a5780638f78e2f014610282578063901c5953146102af5780639110df85146102cf5780639207f95b146102ef578063ab6f26bb1461030f578063c7d3a1ad1461032f578063d0e30db01461035c578063d9e4ed1714610364575b600080fd5b3480156100df57600080fd5b5061011c6100ee366004610f63565b6001602090815260009283526040909220815180830184018051928152908401929093019190912091525481565b60405190815260200160405180910390f35b34801561013a57600080fd5b503360009081526004602052604090205461011c565b34801561015c57600080fd5b5061017061016b366004610fb0565b610384565b005b34801561017e57600080fd5b5061011c61018d366004610fc9565b60076020526000908152604090205481565b3480156101ab57600080fd5b5061011c6101ba366004610feb565b610411565b3480156101cb57600080fd5b50610170610484565b3480156101e057600080fd5b5061011c6101ef366004610fc9565b60066020526000908152604090205481565b34801561020d57600080fd5b5061011c61021c366004610f63565b6003602090815260009283526040909220815180830184018051928152908401929093019190912091525481565b34801561025657600080fd5b5061011c610265366004610feb565b805160208183018101805160028252928201919093012091525481565b34801561028e57600080fd5b5061011c61029d366004610fc9565b60056020526000908152604090205481565b3480156102bb57600080fd5b506101706102ca366004611027565b61059a565b3480156102db57600080fd5b506101706102ea36600461106b565b610803565b3480156102fb57600080fd5b5061017061030a36600461108d565b610955565b34801561031b57600080fd5b5061011c61032a3660046110f9565b610b5f565b34801561033b57600080fd5b5061011c61034a366004610fc9565b60046020526000908152604090205481565b610170610d1f565b34801561037057600080fd5b5061017061037f366004611165565b610d45565b336000908152600460205260409020548111156103bc5760405162461bcd60e51b81526004016103b3906111b2565b60405180910390fd5b33600090815260046020526040812080548392906103db9084906111f5565b9091555050604051339082156108fc029083906000818181858888f1935050505015801561040d573d6000803e3d6000fd5b5050565b600080600283604051610424919061123c565b908152602001604051809103902054116104505760405162461bcd60e51b81526004016103b390611258565b3360009081526001602052604090819020905161046e90849061123c565b9081526020016040518091039020549050919050565b3360009081526007602090815260408083205460058352818420546006909352908320546301e1338092906104b990426111f5565b6104c39190611283565b6104cd9190611283565b6104d791906112a2565b90506000811161051d5760405162461bcd60e51b81526020600482015260116024820152702737903637b0b7103a37903932b830bc9760791b60448201526064016103b3565b3360009081526004602052604090205481111561054c5760405162461bcd60e51b81526004016103b3906111b2565b336000908152600460205260408120805483929061056b9084906111f5565b909155505033600090815260056020908152604080832083905560068252808320839055600790915281205550565b60006002836040516105ac919061123c565b908152602001604051809103902054116105d85760405162461bcd60e51b81526004016103b390611258565b336000908152600160205260409081902090518291906105f990859061123c565b90815260200160405180910390205410156106265760405162461bcd60e51b81526004016103b3906112c4565b3360009081526001602052604090819020905182919061064790859061123c565b9081526020016040518091039020600082825461066491906111f5565b90915550506000546040517f53c70bd67916e0181ec9b1ae9e5f5e9c76188ad9d5a018bf5fb8b2507a44dd84916106aa916001600160a01b03909116908490869061131e565b60405180910390a16008546040516000916001600160a01b03169063805a2b14906002906106d990879061123c565b90815260200160405180910390205460026040516106f69061134e565b908152604051908190036020018120546001600160e01b031960e085901b1682526107269291879060040161135d565b60206040518083038186803b15801561073e57600080fd5b505afa158015610752573d6000803e3d6000fd5b505050506040513d601f19601f820116820180604052508101906107769190611373565b600080546001600160a01b031681526001602052604090819020905191925082916107a09061134e565b908152602001604051809103902060008282546107bd919061138c565b90915550506040517f8dfc1109af223bb7f4e48f38a8a7631f492f0106b90747a651bf181b0fc4e402906107f69033908590879061131e565b60405180910390a1505050565b6000821161085d5760405162461bcd60e51b815260206004820152602160248201527f416d6f756e74206d7573742062652067726561746572207468616e207a65726f6044820152601760f91b60648201526084016103b3565b600081116108be5760405162461bcd60e51b815260206004820152602860248201527f496e7465726573742072617465206d757374206265206772656174657220746860448201526730b7103d32b9379760c11b60648201526084016103b3565b336000908152600460205260409020548211156108ed5760405162461bcd60e51b81526004016103b3906111b2565b336000908152600460205260408120805484929061090c9084906111f5565b9091555050336000908152600560205260408120805484929061093090849061138c565b9091555050336000908152600660209081526040808320429055600790915290205550565b6000600284604051610967919061123c565b9081526020016040518091039020541180156109a157506000600283604051610990919061123c565b908152602001604051809103902054115b6109bd5760405162461bcd60e51b81526004016103b390611258565b336000908152600160205260409081902090518291906109de90869061123c565b9081526020016040518091039020541015610a0b5760405162461bcd60e51b81526004016103b3906112c4565b6008546040516000916001600160a01b03169063805a2b1490600290610a3290889061123c565b908152602001604051809103902054600286604051610a51919061123c565b908152604051908190036020018120546001600160e01b031960e085901b168252610a819291879060040161135d565b60206040518083038186803b158015610a9957600080fd5b505afa158015610aad573d6000803e3d6000fd5b505050506040513d601f19601f82011682018060405250810190610ad19190611373565b336000908152600160205260409081902090519192508391610af490879061123c565b90815260200160405180910390206000828254610b1191906111f5565b909155505033600090815260016020526040908190209051829190610b3790869061123c565b90815260200160405180910390206000828254610b54919061138c565b909155505050505050565b600080600285604051610b72919061123c565b908152602001604051809103902054118015610bac57506000600283604051610b9b919061123c565b908152602001604051809103902054115b610bc85760405162461bcd60e51b81526004016103b390611258565b6008546040516000916001600160a01b03169063805a2b1490600290610bef90899061123c565b908152602001604051809103902054600286604051610c0e919061123c565b908152604051908190036020018120546001600160e01b031960e085901b168252610c3e9291899060040161135d565b60206040518083038186803b158015610c5657600080fd5b505afa158015610c6a573d6000803e3d6000fd5b505050506040513d601f19601f82011682018060405250810190610c8e9190611373565b336000908152600160205260409081902090519192508591610cb190889061123c565b90815260200160405180910390206000828254610cce91906111f5565b909155505033600090815260016020526040908190209051829190610cf490869061123c565b90815260200160405180910390206000828254610d11919061138c565b909155509095945050505050565b3360009081526004602052604081208054349290610d3e90849061138c565b9091555050565b6000600284604051610d57919061123c565b90815260200160405180910390205411610d835760405162461bcd60e51b81526004016103b390611258565b33600090815260016020526040908190209051839190610da490869061123c565b9081526020016040518091039020541015610dd15760405162461bcd60e51b81526004016103b3906112c4565b60008111610e2c5760405162461bcd60e51b815260206004820152602260248201527f496e74657276616c206d7573742062652067726561746572207468616e207a65604482015261726f60f01b60648201526084016103b3565b33600090815260036020526040908190209051839190610e4d90869061123c565b90815260200160405180910390206000828254610e6a919061138c565b90915550506040517fb276ef143c34359eaaa07048f76b9447868402ca92457d9777fa55e7c4a10873906107f69033908590879086906113a4565b80356001600160a01b0381168114610ebc57600080fd5b919050565b634e487b7160e01b600052604160045260246000fd5b600082601f830112610ee857600080fd5b81356001600160401b0380821115610f0257610f02610ec1565b604051601f8301601f19908116603f01168101908282118183101715610f2a57610f2a610ec1565b81604052838152866020858801011115610f4357600080fd5b836020870160208301376000602085830101528094505050505092915050565b60008060408385031215610f7657600080fd5b610f7f83610ea5565b915060208301356001600160401b03811115610f9a57600080fd5b610fa685828601610ed7565b9150509250929050565b600060208284031215610fc257600080fd5b5035919050565b600060208284031215610fdb57600080fd5b610fe482610ea5565b9392505050565b600060208284031215610ffd57600080fd5b81356001600160401b0381111561101357600080fd5b61101f84828501610ed7565b949350505050565b6000806040838503121561103a57600080fd5b82356001600160401b0381111561105057600080fd5b61105c85828601610ed7565b95602094909401359450505050565b6000806040838503121561107e57600080fd5b50508035926020909101359150565b6000806000606084860312156110a257600080fd5b83356001600160401b03808211156110b957600080fd5b6110c587838801610ed7565b945060208601359150808211156110db57600080fd5b506110e886828701610ed7565b925050604084013590509250925092565b60008060006060848603121561110e57600080fd5b83356001600160401b038082111561112557600080fd5b61113187838801610ed7565b945060208601359350604086013591508082111561114e57600080fd5b5061115b86828701610ed7565b9150509250925092565b60008060006060848603121561117a57600080fd5b83356001600160401b0381111561119057600080fd5b61119c86828701610ed7565b9660208601359650604090950135949350505050565b60208082526013908201527224b739bab33334b1b4b2b73a10333ab732399760691b604082015260600190565b634e487b7160e01b600052601160045260246000fd5b600082821015611207576112076111df565b500390565b60005b8381101561122757818101518382015260200161120f565b83811115611236576000848401525b50505050565b6000825161124e81846020870161120c565b9190910192915050565b6020808252601190820152702ab739bab83837b93a32b2103a37b5b2b760791b604082015260600190565b600081600019048311821515161561129d5761129d6111df565b500290565b6000826112bf57634e487b7160e01b600052601260045260246000fd5b500490565b602080825260149082015273496e73756666696369656e742062616c616e636560601b604082015260600190565b6000815180845261130a81602086016020860161120c565b601f01601f19169290920160200192915050565b60018060a01b038416815282602082015260606040820152600061134560608301846112f2565b95945050505050565b6258444360e81b815260030190565b9283526020830191909152604082015260600190565b60006020828403121561138557600080fd5b5051919050565b6000821982111561139f5761139f6111df565b500190565b60018060a01b03851681528360208201526080604082015260006113cb60808301856112f2565b90508260608301529594505050505056fea2646970667358221220054c335ca6fec353449118086d7bde77b8fff8503c4dcb36029bdb2adce7396264736f6c63430008090033",
  "linkReferences": {},
  "deployedLinkReferences": {}
}