{
  "_format": "hh-sol-artifact-1",
  "contractName": "XLending",
  "sourceName": "contracts/XLending.sol",
  "abi": [
    {
      "inputs": [
        {
          "internalType": "uint256",
          "name": "_interestRate",
          "type": "uint256"
        }
      ],
      "name": "addInterestRate",
      "outputs": [],
      "stateMutability": "nonpayable",
      "type": "function"
    },
    {
      "inputs": [
        {
          "internalType": "address",
          "name": "_borrowerAddress",
          "type": "address"
        },
        {
          "internalType": "uint256",
          "name": "_loanId",
          "type": "uint256"
        }
      ],
      "name": "approveLoan",
      "outputs": [],
      "stateMutability": "nonpayable",
      "type": "function"
    },
    {
      "inputs": [],
      "name": "becomeABorrower",
      "outputs": [],
      "stateMutability": "nonpayable",
      "type": "function"
    },
    {
      "inputs": [],
      "name": "becomeALender",
      "outputs": [],
      "stateMutability": "nonpayable",
      "type": "function"
    },
    {
      "inputs": [
        {
          "internalType": "uint256",
          "name": "",
          "type": "uint256"
        }
      ],
      "name": "borrowerList",
      "outputs": [
        {
          "internalType": "address",
          "name": "",
          "type": "address"
        }
      ],
      "stateMutability": "view",
      "type": "function"
    },
    {
      "inputs": [
        {
          "internalType": "address",
          "name": "",
          "type": "address"
        },
        {
          "internalType": "uint256",
          "name": "",
          "type": "uint256"
        }
      ],
      "name": "borrowerLoanIds",
      "outputs": [
        {
          "internalType": "uint256",
          "name": "",
          "type": "uint256"
        }
      ],
      "stateMutability": "view",
      "type": "function"
    },
    {
      "inputs": [
        {
          "internalType": "address",
          "name": "",
          "type": "address"
        },
        {
          "internalType": "uint256",
          "name": "",
          "type": "uint256"
        }
      ],
      "name": "borrowers",
      "outputs": [
        {
          "internalType": "address",
          "name": "borrowerAddress",
          "type": "address"
        },
        {
          "internalType": "uint256",
          "name": "loanAmount",
          "type": "uint256"
        },
        {
          "internalType": "uint256",
          "name": "interestRate",
          "type": "uint256"
        },
        {
          "internalType": "bool",
          "name": "approved",
          "type": "bool"
        },
        {
          "internalType": "bool",
          "name": "paid",
          "type": "bool"
        },
        {
          "internalType": "uint256",
          "name": "deadline",
          "type": "uint256"
        },
        {
          "internalType": "uint256",
          "name": "score",
          "type": "uint256"
        }
      ],
      "stateMutability": "view",
      "type": "function"
    },
    {
      "inputs": [],
      "name": "getAllBorrowers",
      "outputs": [
        {
          "internalType": "address[]",
          "name": "",
          "type": "address[]"
        }
      ],
      "stateMutability": "view",
      "type": "function"
    },
    {
      "inputs": [],
      "name": "getAllLenders",
      "outputs": [
        {
          "internalType": "address[]",
          "name": "",
          "type": "address[]"
        }
      ],
      "stateMutability": "view",
      "type": "function"
    },
    {
      "inputs": [],
      "name": "getAllUnpaidLoans",
      "outputs": [
        {
          "internalType": "uint256[]",
          "name": "",
          "type": "uint256[]"
        }
      ],
      "stateMutability": "view",
      "type": "function"
    },
    {
      "inputs": [],
      "name": "getPendingLoans",
      "outputs": [
        {
          "components": [
            {
              "internalType": "address",
              "name": "borrowerAddress",
              "type": "address"
            },
            {
              "internalType": "uint256",
              "name": "loanAmount",
              "type": "uint256"
            },
            {
              "internalType": "uint256",
              "name": "interestRate",
              "type": "uint256"
            },
            {
              "internalType": "uint256",
              "name": "deliveryTime",
              "type": "uint256"
            },
            {
              "internalType": "uint256",
              "name": "score",
              "type": "uint256"
            }
          ],
          "internalType": "struct XLending.PendingLoan[]",
          "name": "",
          "type": "tuple[]"
        }
      ],
      "stateMutability": "view",
      "type": "function"
    },
    {
      "inputs": [
        {
          "internalType": "address",
          "name": "_address",
          "type": "address"
        }
      ],
      "name": "isBorrower",
      "outputs": [
        {
          "internalType": "bool",
          "name": "",
          "type": "bool"
        }
      ],
      "stateMutability": "view",
      "type": "function"
    },
    {
      "inputs": [
        {
          "internalType": "address",
          "name": "_address",
          "type": "address"
        }
      ],
      "name": "isLender",
      "outputs": [
        {
          "internalType": "bool",
          "name": "",
          "type": "bool"
        }
      ],
      "stateMutability": "view",
      "type": "function"
    },
    {
      "inputs": [
        {
          "internalType": "uint256",
          "name": "_loanId",
          "type": "uint256"
        }
      ],
      "name": "isLoanPaid",
      "outputs": [
        {
          "internalType": "bool",
          "name": "",
          "type": "bool"
        }
      ],
      "stateMutability": "view",
      "type": "function"
    },
    {
      "inputs": [
        {
          "internalType": "uint256",
          "name": "",
          "type": "uint256"
        }
      ],
      "name": "lenderList",
      "outputs": [
        {
          "internalType": "address",
          "name": "",
          "type": "address"
        }
      ],
      "stateMutability": "view",
      "type": "function"
    },
    {
      "inputs": [
        {
          "internalType": "address",
          "name": "",
          "type": "address"
        },
        {
          "internalType": "uint256",
          "name": "",
          "type": "uint256"
        }
      ],
      "name": "lenderPendingLoans",
      "outputs": [
        {
          "internalType": "address",
          "name": "",
          "type": "address"
        }
      ],
      "stateMutability": "view",
      "type": "function"
    },
    {
      "inputs": [
        {
          "internalType": "address",
          "name": "",
          "type": "address"
        }
      ],
      "name": "lenders",
      "outputs": [
        {
          "internalType": "address",
          "name": "lenderAddress",
          "type": "address"
        },
        {
          "internalType": "uint256",
          "name": "balance",
          "type": "uint256"
        },
        {
          "internalType": "uint256",
          "name": "interestRate",
          "type": "uint256"
        },
        {
          "internalType": "uint256",
          "name": "score",
          "type": "uint256"
        }
      ],
      "stateMutability": "view",
      "type": "function"
    },
    {
      "inputs": [
        {
          "internalType": "address",
          "name": "",
          "type": "address"
        },
        {
          "internalType": "uint256",
          "name": "",
          "type": "uint256"
        }
      ],
      "name": "loans",
      "outputs": [
        {
          "internalType": "address",
          "name": "borrowerAddress",
          "type": "address"
        },
        {
          "internalType": "uint256",
          "name": "loanAmount",
          "type": "uint256"
        },
        {
          "internalType": "uint256",
          "name": "interestRate",
          "type": "uint256"
        },
        {
          "internalType": "bool",
          "name": "approved",
          "type": "bool"
        },
        {
          "internalType": "bool",
          "name": "paid",
          "type": "bool"
        },
        {
          "internalType": "uint256",
          "name": "deadline",
          "type": "uint256"
        },
        {
          "internalType": "uint256",
          "name": "score",
          "type": "uint256"
        }
      ],
      "stateMutability": "view",
      "type": "function"
    },
    {
      "inputs": [
        {
          "internalType": "address",
          "name": "_borrowerAddress",
          "type": "address"
        },
        {
          "internalType": "uint256",
          "name": "_loanId",
          "type": "uint256"
        }
      ],
      "name": "markAsPaid",
      "outputs": [],
      "stateMutability": "nonpayable",
      "type": "function"
    },
    {
      "inputs": [],
      "name": "nextLoanId",
      "outputs": [
        {
          "internalType": "uint256",
          "name": "",
          "type": "uint256"
        }
      ],
      "stateMutability": "view",
      "type": "function"
    },
    {
      "inputs": [],
      "name": "nextPendingLoanId",
      "outputs": [
        {
          "internalType": "uint256",
          "name": "",
          "type": "uint256"
        }
      ],
      "stateMutability": "view",
      "type": "function"
    },
    {
      "inputs": [
        {
          "internalType": "address",
          "name": "",
          "type": "address"
        },
        {
          "internalType": "uint256",
          "name": "",
          "type": "uint256"
        }
      ],
      "name": "pendingLoans",
      "outputs": [
        {
          "internalType": "address",
          "name": "borrowerAddress",
          "type": "address"
        },
        {
          "internalType": "uint256",
          "name": "loanAmount",
          "type": "uint256"
        },
        {
          "internalType": "uint256",
          "name": "interestRate",
          "type": "uint256"
        },
        {
          "internalType": "uint256",
          "name": "deliveryTime",
          "type": "uint256"
        },
        {
          "internalType": "uint256",
          "name": "score",
          "type": "uint256"
        }
      ],
      "stateMutability": "view",
      "type": "function"
    },
    {
      "inputs": [
        {
          "internalType": "uint256",
          "name": "_loanId",
          "type": "uint256"
        }
      ],
      "name": "repay",
      "outputs": [],
      "stateMutability": "payable",
      "type": "function"
    },
    {
      "inputs": [
        {
          "internalType": "address",
          "name": "_lenderAddress",
          "type": "address"
        },
        {
          "internalType": "uint256",
          "name": "_loanAmount",
          "type": "uint256"
        },
        {
          "internalType": "uint256",
          "name": "_interestRate",
          "type": "uint256"
        },
        {
          "internalType": "uint256",
          "name": "_deadline",
          "type": "uint256"
        }
      ],
      "name": "requestLoan",
      "outputs": [],
      "stateMutability": "nonpayable",
      "type": "function"
    }
  ],
  "bytecode": "0x608060405234801561001057600080fd5b50611dbe806100206000396000f3fe60806040526004361061011b5760003560e01c8063049462e7146101205780631026654614610137578063176c149e1461015757806328fd10d7146101825780632ff9badf146101f857806332abcdbe14610230578063371fd8e6146102525780636085c7df14610265578063709b89611461028557806374c915d9146102d05780637a0f860a1461035e57806387c514591461037357806392c79d121461039757806398c61c37146103b75780639cedf8b3146104695780639f63f5c31461047f578063a1666b541461049f578063a56e11bc146104b4578063b3a66524146104d4578063d00c1a53146104f4578063eaf6e48314610514578063ee24af5a1461055c578063f335ed761461057e578063fbabd13c146105ee575b600080fd5b34801561012c57600080fd5b5061013561060e565b005b34801561014357600080fd5b50610135610152366004611a5d565b61075e565b34801561016357600080fd5b5061016c6107e3565b6040516101799190611a76565b60405180910390f35b34801561018e57600080fd5b506101ce61019d366004611ad6565b60006020819052908152604090208054600182015460028301546003909301546001600160a01b0390921692909184565b604080516001600160a01b0390951685526020850193909352918301526060820152608001610179565b34801561020457600080fd5b50610218610213366004611af8565b610a2f565b6040516001600160a01b039091168152602001610179565b34801561023c57600080fd5b50610245610a67565b6040516101799190611b22565b610135610260366004611a5d565b610ac9565b34801561027157600080fd5b50610218610280366004611a5d565b610d74565b34801561029157600080fd5b506102c06102a0366004611ad6565b6001600160a01b0390811660009081526020819052604090205416151590565b6040519015158152602001610179565b3480156102dc57600080fd5b5061032c6102eb366004611af8565b60026020818152600093845260408085209091529183529120805460018201549282015460038301546004909301546001600160a01b039092169392909185565b604080516001600160a01b0390961686526020860194909452928401919091526060830152608082015260a001610179565b34801561036a57600080fd5b50610135610d9e565b34801561037f57600080fd5b5061038960085481565b604051908152602001610179565b3480156103a357600080fd5b506101356103b2366004611b63565b610e55565b3480156103c357600080fd5b506104286103d2366004611af8565b600160208181526000938452604080852090915291835291208054918101546002820154600383015460048401546005909401546001600160a01b03909516949293919260ff8083169361010090930416919087565b604080516001600160a01b03909816885260208801969096529486019390935290151560608501521515608084015260a083015260c082015260e001610179565b34801561047557600080fd5b5061038960095481565b34801561048b57600080fd5b5061013561049a366004611af8565b61116d565b3480156104ab57600080fd5b506102456113a5565b3480156104c057600080fd5b506103896104cf366004611af8565b611405565b3480156104e057600080fd5b506102186104ef366004611a5d565b611436565b34801561050057600080fd5b5061013561050f366004611af8565b611446565b34801561052057600080fd5b506102c061052f366004611ad6565b6001600160a01b039081166000908152600560209081526040808320600854845290915290205416151590565b34801561056857600080fd5b506105716115df565b6040516101799190611b9c565b34801561058a57600080fd5b50610428610599366004611af8565b600560208181526000938452604080852090915291835291208054600182015460028301546003840154600485015494909501546001600160a01b03909316949193909260ff80841693610100900416919087565b3480156105fa57600080fd5b506102c0610609366004611a5d565b61185e565b33600090815260056020908152604080832060085484529091529020546001600160a01b03161561067b5760405162461bcd60e51b815260206004820152601260248201527120b63932b0b23c9030903137b93937bbb2b960711b60448201526064015b60405180910390fd5b6040805160e0810182523380825260006020808401828152848601838152606086018481526080870185815260a0880186815260c0890187815288885260058088528b89206008548a52909752998720985189546001600160a01b03919091166001600160a01b0319918216178a55945160018a810191909155935160028a01559151600389018054925115156101000261ff00199215159290921661ffff1990931692909217179055516004870155955194909101939093556007805494850181559052600080516020611d6983398151915290920180549091169091179055565b336000908152602081905260409020546001600160a01b03166107ce5760405162461bcd60e51b815260206004820152602260248201527f4f6e6c79206c656e646572732063616e2061646420696e746572657374207261604482015261746560f01b6064820152608401610672565b33600090815260208190526040902060020155565b33600090815260056020908152604080832060085484529091529020546060906001600160a01b03166108645760405162461bcd60e51b815260206004820152602360248201527f4f6e6c7920626f72726f776572732063616e2067657420756e70616964206c6f604482015262616e7360e81b6064820152608401610672565b336000908152600360205260408120546001600160401b0381111561088b5761088b611c13565b6040519080825280602002602001820160405280156108b4578160200160208202803683370190505b5090506000805b3360009081526003602052604090205481101561098c573360009081526003602052604081208054839081106108f3576108f3611c29565b6000918252602080832090910154338352600582526040808420828552909252912060038101549192509060ff16801561093757506003810154610100900460ff16155b80156109465750806004015442105b15610977578185858151811061095e5761095e611c29565b60209081029190910101528361097381611c55565b9450505b5050808061098490611c55565b9150506108bb565b506000816001600160401b038111156109a7576109a7611c13565b6040519080825280602002602001820160405280156109d0578160200160208202803683370190505b50905060005b82811015610a27578381815181106109f0576109f0611c29565b6020026020010151828281518110610a0a57610a0a611c29565b602090810291909101015280610a1f81611c55565b9150506109d6565b509392505050565b60046020528160005260406000208181548110610a4b57600080fd5b6000918252602090912001546001600160a01b03169150829050565b60606007805480602002602001604051908101604052809291908181526020018280548015610abf57602002820191906000526020600020905b81546001600160a01b03168152600190910190602001808311610aa1575b5050505050905090565b3360009081526005602090815260408083208484529091529020546001600160a01b0316610b345760405162461bcd60e51b81526020600482015260186024820152774f6e6c7920626f72726f776572732063616e20726570617960401b6044820152606401610672565b33600090815260056020908152604080832084845290915290206003015460ff16610b715760405162461bcd60e51b815260040161067290611c70565b336000908152600560209081526040808320848452909152902060030154610100900460ff1615610bb45760405162461bcd60e51b815260040161067290611c9b565b3360009081526005602090815260408083208484529091529020600401544210610bf05760405162461bcd60e51b815260040161067290611cc6565b33600090815260056020908152604080832084845290915281206002810154600190910154349291606491610c259190611cf8565b610c2f9190611d17565b33600090815260056020908152604080832087845290915281206001015491925090610c5c908390611d39565b905080831015610cb85760405162461bcd60e51b815260206004820152602160248201527f496e73756666696369656e7420616d6f756e7420746f207265706179206c6f616044820152603760f91b6064820152608401610672565b6000610cc48285611d51565b90508015610cfb57604051339082156108fc029083906000818181858888f19350505050158015610cf9573d6000803e3d6000fd5b505b3360008181526005602090815260408083208984528252808320600190810154948452918390528220018054909190610d35908490611d39565b90915550503360008181526005602090815260408083208984529091529020600301805461ff001916610100179055610d6d90611903565b5050505050565b60068181548110610d8457600080fd5b6000918252602090912001546001600160a01b0316905081565b336000908152602081905260409020546001600160a01b031615610df75760405162461bcd60e51b815260206004820152601060248201526f20b63932b0b23c9030903632b73232b960811b6044820152606401610672565b33600081815260208190526040812080546001600160a01b031990811684179091556006805460018101825592527ff652222313e28459528d920b65115c16c04f3efc82aaedc97be59f3f377c0d3f90910180549091169091179055565b33600090815260056020908152604080832060085484529091529020546001600160a01b031615610ec85760405162461bcd60e51b815260206004820152601f60248201527f4f6e6c7920626f72726f776572732063616e2072657175657374206c6f616e006044820152606401610672565b60088054906000610ed883611c55565b90915550506040805160e08101825233815260208101859052908101839052600060608201819052608082015260a08101610f138342611d39565b815260006020918201819052338082526005808452604080842060085485528552808420865181546001600160a01b0319166001600160a01b039091161781558686015160018201558682015160028201556060808801516003830180546080808c015161ffff1990921693151561ff001916939093176101009115159190910217905560a0808a0151600485015560c0909901519290940191909155815160e081018352938452948301899052820187905292810182905291820152908101610fdd8342611d39565b8152600060209182018190523380825260018084526040808420600880548652908652818520875181546001600160a01b03919091166001600160a01b031990911617815587870151818501558783015160028201556060808901516003808401805460808d015115156101000261ff00199415159490941661ffff19909116179290921790915560a0808b0151600485015560c0909a015160059093019290925585875290875282862091548254948501835591865294869020909201919091558051948501815290845291830186905290820184905281016110c18342611d39565b8152600060209182018190526001600160a01b03808816808352600280855260408085206009805487529087528186208851815496166001600160a01b0319968716178155888801516001808301919091558984015194820194909455606089015160038201556080909801516004988901559285529585529483208054958601815583529282209093018054909316331790925580549161116283611c55565b919050555050505050565b336000908152602081905260409020546001600160a01b03166111d25760405162461bcd60e51b815260206004820152601d60248201527f4f6e6c79206c656e646572732063616e20617070726f7665206c6f616e0000006044820152606401610672565b6001600160a01b038083166000908152600560209081526040808320858452909152902080549091166112415760405162461bcd60e51b8152602060048201526017602482015276109bdc9c9bddd95c88191bd95cc81b9bdd08195e1a5cdd604a1b6044820152606401610672565b600381015460ff161561128e5760405162461bcd60e51b8152602060048201526015602482015274131bd85b88185b1c9958591e48185c1c1c9bdd9959605a1b6044820152606401610672565b3360009081526020819052604081206002015460018301546064916112b291611cf8565b6112bc9190611d17565b905060008183600101546112d09190611d39565b3360009081526020819052604090206001015490915081111561132c5760405162461bcd60e51b8152602060048201526014602482015273496e73756666696369656e742062616c616e636560601b6044820152606401610672565b336000908152602081905260408120600101805483929061134e908490611d51565b909155505050506003018054600160ff199091168117909155600780549182018155600052600080516020611d698339815191520180546001600160a01b0319166001600160a01b03939093169290921790915550565b60606006805480602002602001604051908101604052809291908181526020018280548015610abf576020028201919060005260206000209081546001600160a01b03168152600190910190602001808311610aa1575050505050905090565b6003602052816000526040600020818154811061142157600080fd5b90600052602060002001600091509150505481565b60078181548110610d8457600080fd5b6001600160a01b0382811660009081526005602090815260408083208584529091529020541633146114c65760405162461bcd60e51b815260206004820152602360248201527f4f6e6c7920626f72726f7765722063616e206d61726b206c6f616e2061732070604482015262185a5960ea1b6064820152608401610672565b6001600160a01b038216600090815260056020908152604080832084845290915290206003015460ff1661150c5760405162461bcd60e51b815260040161067290611c70565b6001600160a01b0382166000908152600560209081526040808320848452909152902060030154610100900460ff16156115585760405162461bcd60e51b815260040161067290611c9b565b6001600160a01b0382166000908152600560209081526040808320848452909152902060040154421061159d5760405162461bcd60e51b815260040161067290611cc6565b6001600160a01b0382166000908152600560209081526040808320848452909152902060038101805461ff0019166101001790556115da83611903565b505050565b336000908152602081905260409020546060906001600160a01b03166116525760405162461bcd60e51b815260206004820152602260248201527f4f6e6c79206c656e646572732063616e206765742070656e64696e67206c6f616044820152616e7360f01b6064820152608401610672565b336000908152600460209081526040808320805482518185028101850190935280835291929091908301828280156116b357602002820191906000526020600020905b81546001600160a01b03168152600190910190602001808311611695575b50505050509050600081516001600160401b038111156116d5576116d5611c13565b60405190808252806020026020018201604052801561174157816020015b61172e6040518060a0016040528060006001600160a01b03168152602001600081526020016000815260200160008152602001600081525090565b8152602001906001900390816116f35790505b50905060005b825181101561185757600083828151811061176457611764611c29565b6020908102919091018101516001600160a01b038116600090815260039092526040822080549193509061179a90600190611d51565b815481106117aa576117aa611c29565b60009182526020808320909101546001600160a01b038516808452600583526040808520838652845280852033865260028086528287208a8852865295829020825160a0810184529384526001820154958401959095529485015490820152600383015460608201526004830154608082015287519194509087908790811061183557611835611c29565b602002602001018190525050505050808061184f90611c55565b915050611747565b5092915050565b3360009081526005602090815260408083208484529091528120546001600160a01b03166118da5760405162461bcd60e51b8152602060048201526024808201527f4f6e6c7920626f72726f776572732063616e20636865636b206c6f616e2073746044820152636174757360e01b6064820152608401610672565b503360009081526005602090815260408083209383529290522060030154610100900460ff1690565b6000806000805b6001600160a01b038516600090815260036020526040902054811015611a03576001600160a01b038516600090815260036020526040812080548390811061195457611954611c29565b60009182526020808320909101546001600160a01b038916835260058252604080842082855290925291206003015490915060ff61010090910416156119b4578361199e81611c55565b94505084806119ac90611c55565b9550506119f0565b6001600160a01b03861660009081526005602090815260408083208484529091529020600401544211156119f057826119ec81611c55565b9350505b50806119fb81611c55565b91505061190a565b50600082118015611a12575080155b15611a2457611a218284611d39565b92505b600a831115611a3257600a92505b50506001600160a01b0390911660009081526005602081815260408084208480529091529091200155565b600060208284031215611a6f57600080fd5b5035919050565b6020808252825182820181905260009190848201906040850190845b81811015611aae57835183529284019291840191600101611a92565b50909695505050505050565b80356001600160a01b0381168114611ad157600080fd5b919050565b600060208284031215611ae857600080fd5b611af182611aba565b9392505050565b60008060408385031215611b0b57600080fd5b611b1483611aba565b946020939093013593505050565b6020808252825182820181905260009190848201906040850190845b81811015611aae5783516001600160a01b031683529284019291840191600101611b3e565b60008060008060808587031215611b7957600080fd5b611b8285611aba565b966020860135965060408601359560600135945092505050565b602080825282518282018190526000919060409081850190868401855b82811015611c0657815180516001600160a01b0316855286810151878601528581015186860152606080820151908601526080908101519085015260a09093019290850190600101611bb9565b5091979650505050505050565b634e487b7160e01b600052604160045260246000fd5b634e487b7160e01b600052603260045260246000fd5b634e487b7160e01b600052601160045260246000fd5b6000600019821415611c6957611c69611c3f565b5060010190565b602080825260119082015270131bd85b881b9bdd08185c1c1c9bdd9959607a1b604082015260600190565b602080825260119082015270131bd85b88185b1c9958591e481c185a59607a1b604082015260600190565b602080825260189082015277131bd85b881a185cc8185b1c9958591e48195e1c1a5c995960421b604082015260600190565b6000816000190483118215151615611d1257611d12611c3f565b500290565b600082611d3457634e487b7160e01b600052601260045260246000fd5b500490565b60008219821115611d4c57611d4c611c3f565b500190565b600082821015611d6357611d63611c3f565b50039056fea66cc928b5edb82af9bd49922954155ab7b0942694bea4ce44661d9a8736c688a2646970667358221220f714e34688d5919151179036a1280fae4a3e7a9cfb56c6b7b9712dfb0895d36864736f6c63430008090033",
  "linkReferences": {},
  "deployedLinkReferences": {}
}