{
  "_format": "hh-sol-artifact-1",
  "contractName": "XLending",
  "sourceName": "contracts/XLending.sol",
  "abi": [
    {
      "inputs": [
        {
          "internalType": "uint256",
          "name": "_interestRate",
          "type": "uint256"
        }
      ],
      "name": "addInterestRate",
      "outputs": [],
      "stateMutability": "nonpayable",
      "type": "function"
    },
    {
      "inputs": [
        {
          "internalType": "address",
          "name": "_borrowerAddress",
          "type": "address"
        },
        {
          "internalType": "uint256",
          "name": "_loanId",
          "type": "uint256"
        }
      ],
      "name": "approveLoan",
      "outputs": [],
      "stateMutability": "nonpayable",
      "type": "function"
    },
    {
      "inputs": [],
      "name": "becomeABorrower",
      "outputs": [],
      "stateMutability": "nonpayable",
      "type": "function"
    },
    {
      "inputs": [],
      "name": "becomeALender",
      "outputs": [],
      "stateMutability": "nonpayable",
      "type": "function"
    },
    {
      "inputs": [
        {
          "internalType": "uint256",
          "name": "",
          "type": "uint256"
        }
      ],
      "name": "borrowerList",
      "outputs": [
        {
          "internalType": "address",
          "name": "",
          "type": "address"
        }
      ],
      "stateMutability": "view",
      "type": "function"
    },
    {
      "inputs": [
        {
          "internalType": "address",
          "name": "",
          "type": "address"
        },
        {
          "internalType": "uint256",
          "name": "",
          "type": "uint256"
        }
      ],
      "name": "borrowerLoanIds",
      "outputs": [
        {
          "internalType": "uint256",
          "name": "",
          "type": "uint256"
        }
      ],
      "stateMutability": "view",
      "type": "function"
    },
    {
      "inputs": [
        {
          "internalType": "address",
          "name": "",
          "type": "address"
        },
        {
          "internalType": "uint256",
          "name": "",
          "type": "uint256"
        }
      ],
      "name": "borrowers",
      "outputs": [
        {
          "internalType": "address",
          "name": "borrowerAddress",
          "type": "address"
        },
        {
          "internalType": "uint256",
          "name": "loanAmount",
          "type": "uint256"
        },
        {
          "internalType": "uint256",
          "name": "interestRate",
          "type": "uint256"
        },
        {
          "internalType": "bool",
          "name": "approved",
          "type": "bool"
        },
        {
          "internalType": "bool",
          "name": "paid",
          "type": "bool"
        },
        {
          "internalType": "uint256",
          "name": "deadline",
          "type": "uint256"
        },
        {
          "internalType": "uint256",
          "name": "score",
          "type": "uint256"
        }
      ],
      "stateMutability": "view",
      "type": "function"
    },
    {
      "inputs": [],
      "name": "getAllBorrowers",
      "outputs": [
        {
          "internalType": "address[]",
          "name": "",
          "type": "address[]"
        }
      ],
      "stateMutability": "view",
      "type": "function"
    },
    {
      "inputs": [],
      "name": "getAllLenders",
      "outputs": [
        {
          "internalType": "address[]",
          "name": "",
          "type": "address[]"
        }
      ],
      "stateMutability": "view",
      "type": "function"
    },
    {
      "inputs": [],
      "name": "getAllUnpaidLoans",
      "outputs": [
        {
          "internalType": "uint256[]",
          "name": "",
          "type": "uint256[]"
        }
      ],
      "stateMutability": "view",
      "type": "function"
    },
    {
      "inputs": [],
      "name": "getPendingLoans",
      "outputs": [
        {
          "internalType": "address[]",
          "name": "",
          "type": "address[]"
        }
      ],
      "stateMutability": "view",
      "type": "function"
    },
    {
      "inputs": [
        {
          "internalType": "address",
          "name": "_address",
          "type": "address"
        }
      ],
      "name": "isBorrower",
      "outputs": [
        {
          "internalType": "bool",
          "name": "",
          "type": "bool"
        }
      ],
      "stateMutability": "view",
      "type": "function"
    },
    {
      "inputs": [
        {
          "internalType": "address",
          "name": "_address",
          "type": "address"
        }
      ],
      "name": "isLender",
      "outputs": [
        {
          "internalType": "bool",
          "name": "",
          "type": "bool"
        }
      ],
      "stateMutability": "view",
      "type": "function"
    },
    {
      "inputs": [
        {
          "internalType": "uint256",
          "name": "_loanId",
          "type": "uint256"
        }
      ],
      "name": "isLoanPaid",
      "outputs": [
        {
          "internalType": "bool",
          "name": "",
          "type": "bool"
        }
      ],
      "stateMutability": "view",
      "type": "function"
    },
    {
      "inputs": [
        {
          "internalType": "uint256",
          "name": "",
          "type": "uint256"
        }
      ],
      "name": "lenderList",
      "outputs": [
        {
          "internalType": "address",
          "name": "",
          "type": "address"
        }
      ],
      "stateMutability": "view",
      "type": "function"
    },
    {
      "inputs": [
        {
          "internalType": "address",
          "name": "",
          "type": "address"
        }
      ],
      "name": "lenders",
      "outputs": [
        {
          "internalType": "address",
          "name": "lenderAddress",
          "type": "address"
        },
        {
          "internalType": "uint256",
          "name": "balance",
          "type": "uint256"
        },
        {
          "internalType": "uint256",
          "name": "interestRate",
          "type": "uint256"
        },
        {
          "internalType": "uint256",
          "name": "score",
          "type": "uint256"
        }
      ],
      "stateMutability": "view",
      "type": "function"
    },
    {
      "inputs": [
        {
          "internalType": "uint256",
          "name": "_loanId",
          "type": "uint256"
        }
      ],
      "name": "markAsPaid",
      "outputs": [],
      "stateMutability": "nonpayable",
      "type": "function"
    },
    {
      "inputs": [],
      "name": "nextLoanId",
      "outputs": [
        {
          "internalType": "uint256",
          "name": "",
          "type": "uint256"
        }
      ],
      "stateMutability": "view",
      "type": "function"
    },
    {
      "inputs": [
        {
          "internalType": "address",
          "name": "",
          "type": "address"
        },
        {
          "internalType": "uint256",
          "name": "",
          "type": "uint256"
        }
      ],
      "name": "pendingLoans",
      "outputs": [
        {
          "internalType": "address",
          "name": "",
          "type": "address"
        }
      ],
      "stateMutability": "view",
      "type": "function"
    },
    {
      "inputs": [
        {
          "internalType": "uint256",
          "name": "_loanId",
          "type": "uint256"
        }
      ],
      "name": "repay",
      "outputs": [],
      "stateMutability": "payable",
      "type": "function"
    },
    {
      "inputs": [
        {
          "internalType": "uint256",
          "name": "_loanAmount",
          "type": "uint256"
        },
        {
          "internalType": "uint256",
          "name": "_interestRate",
          "type": "uint256"
        },
        {
          "internalType": "uint256",
          "name": "_deadline",
          "type": "uint256"
        }
      ],
      "name": "requestLoan",
      "outputs": [],
      "stateMutability": "nonpayable",
      "type": "function"
    }
  ],
  "bytecode": "0x608060405234801561001057600080fd5b506118a6806100206000396000f3fe6080604052600436106100fa5760003560e01c8063049462e7146100ff5780631026654614610116578063176c149e1461013657806328fd10d71461016157806332abcdbe146101d7578063371fd8e6146101f95780636085c7df1461020c5780637021cafe14610244578063709b89611461026457806374c915d9146102af5780637a0f860a146102cf57806387c51459146102e45780639f63f5c314610308578063a1666b5414610328578063a56e11bc1461033d578063b3a665241461035d578063eaf6e4831461037d578063edadbbfe146103c5578063ee24af5a146103e5578063f335ed76146103fa578063fbabd13c146104ac575b600080fd5b34801561010b57600080fd5b506101146104cc565b005b34801561012257600080fd5b506101146101313660046115c9565b610612565b34801561014257600080fd5b5061014b610697565b60405161015891906115e2565b60405180910390f35b34801561016d57600080fd5b506101ad61017c366004611642565b60006020819052908152604090208054600182015460028301546003909301546001600160a01b0390921692909184565b604080516001600160a01b0390951685526020850193909352918301526060820152608001610158565b3480156101e357600080fd5b506101ec6108e3565b6040516101589190611664565b6101146102073660046115c9565b610945565b34801561021857600080fd5b5061022c6102273660046115c9565b610be4565b6040516001600160a01b039091168152602001610158565b34801561025057600080fd5b5061011461025f3660046115c9565b610c0e565b34801561027057600080fd5b5061029f61027f366004611642565b6001600160a01b0390811660009081526020819052604090205416151590565b6040519015158152602001610158565b3480156102bb57600080fd5b5061022c6102ca3660046116a5565b610d80565b3480156102db57600080fd5b50610114610db8565b3480156102f057600080fd5b506102fa60065481565b604051908152602001610158565b34801561031457600080fd5b506101146103233660046116a5565b610e6f565b34801561033457600080fd5b506101ec6110cd565b34801561034957600080fd5b506102fa6103583660046116a5565b61112d565b34801561036957600080fd5b5061022c6103783660046115c9565b61115e565b34801561038957600080fd5b5061029f610398366004611642565b6001600160a01b039081166000908152600160209081526040808320600654845290915290205416151590565b3480156103d157600080fd5b506101146103e03660046116cf565b61116e565b3480156103f157600080fd5b506101ec6112f0565b34801561040657600080fd5b5061046b6104153660046116a5565b600160208181526000938452604080852090915291835291208054918101546002820154600383015460048401546005909401546001600160a01b03909516949293919260ff8083169361010090930416919087565b604080516001600160a01b03909816885260208801969096529486019390935290151560608501521515608084015260a083015260c082015260e001610158565b3480156104b857600080fd5b5061029f6104c73660046115c9565b6113ca565b33600090815260016020908152604080832060065484529091529020546001600160a01b0316156105395760405162461bcd60e51b815260206004820152601260248201527120b63932b0b23c9030903137b93937bbb2b960711b60448201526064015b60405180910390fd5b6040805160e0810182523380825260006020808401828152848601838152606086018481526080870185815260a0880186815260c0890187815288885260018088528b89206006548a52909752998720985189546001600160a01b03919091166001600160a01b0319918216178a55945189870155925160028901559051600388018054925115156101000261ff00199215159290921661ffff19909316929092171790555160048601559451600594850155835490810184559290526000805160206118518339815191529091018054909216179055565b336000908152602081905260409020546001600160a01b03166106825760405162461bcd60e51b815260206004820152602260248201527f4f6e6c79206c656e646572732063616e2061646420696e746572657374207261604482015261746560f01b6064820152608401610530565b33600090815260208190526040902060020155565b33600090815260016020908152604080832060065484529091529020546060906001600160a01b03166107185760405162461bcd60e51b815260206004820152602360248201527f4f6e6c7920626f72726f776572732063616e2067657420756e70616964206c6f604482015262616e7360e81b6064820152608401610530565b336000908152600260205260408120546001600160401b0381111561073f5761073f6116fb565b604051908082528060200260200182016040528015610768578160200160208202803683370190505b5090506000805b33600090815260026020526040902054811015610840573360009081526002602052604081208054839081106107a7576107a7611711565b6000918252602080832090910154338352600182526040808420828552909252912060038101549192509060ff1680156107eb57506003810154610100900460ff16155b80156107fa5750806004015442105b1561082b578185858151811061081257610812611711565b6020908102919091010152836108278161173d565b9450505b505080806108389061173d565b91505061076f565b506000816001600160401b0381111561085b5761085b6116fb565b604051908082528060200260200182016040528015610884578160200160208202803683370190505b50905060005b828110156108db578381815181106108a4576108a4611711565b60200260200101518282815181106108be576108be611711565b6020908102919091010152806108d38161173d565b91505061088a565b509392505050565b6060600580548060200260200160405190810160405280929190818152602001828054801561093b57602002820191906000526020600020905b81546001600160a01b0316815260019091019060200180831161091d575b5050505050905090565b3360009081526001602090815260408083208484529091529020546001600160a01b03166109b05760405162461bcd60e51b81526020600482015260186024820152774f6e6c7920626f72726f776572732063616e20726570617960401b6044820152606401610530565b33600090815260016020908152604080832084845290915290206003015460ff166109ed5760405162461bcd60e51b815260040161053090611758565b336000908152600160209081526040808320848452909152902060030154610100900460ff1615610a305760405162461bcd60e51b815260040161053090611783565b3360009081526001602090815260408083208484529091529020600401544210610a6c5760405162461bcd60e51b8152600401610530906117ae565b33600090815260016020818152604080842085855290915282206002810154910154606491610a9a916117e0565b610aa491906117ff565b3360009081526001602081815260408084208785529091528220015491925090610acf908390611821565b905080341015610b2b5760405162461bcd60e51b815260206004820152602160248201527f496e73756666696369656e7420616d6f756e7420746f207265706179206c6f616044820152603760f91b6064820152608401610530565b6000610b378234611839565b90508015610b6e57604051339082156108fc029083906000818181858888f19350505050158015610b6c573d6000803e3d6000fd5b505b3360008181526001602081815260408084208985528252808420830154948452908390528220018054909190610ba5908490611821565b90915550503360008181526001602090815260408083208884529091529020600301805461ff001916610100179055610bde908561146f565b50505050565b60048181548110610bf457600080fd5b6000918252602090912001546001600160a01b0316905081565b3360009081526001602090815260408083208484529091529020546001600160a01b0316610c8a5760405162461bcd60e51b8152602060048201526024808201527f4f6e6c7920626f72726f776572732063616e206d61726b206c6f616e206173206044820152631c185a5960e21b6064820152608401610530565b33600090815260016020908152604080832084845290915290206003015460ff16610cc75760405162461bcd60e51b815260040161053090611758565b336000908152600160209081526040808320848452909152902060030154610100900460ff1615610d0a5760405162461bcd60e51b815260040161053090611783565b3360009081526001602090815260408083208484529091529020600401544210610d465760405162461bcd60e51b8152600401610530906117ae565b336000818152600160209081526040808320858452909152902060038101805461ff00191661010017905590610d7c908361146f565b5050565b60036020528160005260406000208181548110610d9c57600080fd5b6000918252602090912001546001600160a01b03169150829050565b336000908152602081905260409020546001600160a01b031615610e115760405162461bcd60e51b815260206004820152601060248201526f20b63932b0b23c9030903632b73232b960811b6044820152606401610530565b33600081815260208190526040812080546001600160a01b031990811684179091556004805460018101825592527f8a35acfbc15ff81a39ae7d344fd709f28e8600b4aa8c65c6b64bfe7fe36bd19b90910180549091169091179055565b336000908152602081905260409020546001600160a01b0316610ed45760405162461bcd60e51b815260206004820152601d60248201527f4f6e6c79206c656e646572732063616e20617070726f7665206c6f616e0000006044820152606401610530565b6001600160a01b03808316600090815260016020908152604080832085845290915290208054909116610f435760405162461bcd60e51b8152602060048201526017602482015276109bdc9c9bddd95c88191bd95cc81b9bdd08195e1a5cdd604a1b6044820152606401610530565b600381015460ff1615610f905760405162461bcd60e51b8152602060048201526015602482015274131bd85b88185b1c9958591e48185c1c1c9bdd9959605a1b6044820152606401610530565b336000908152602081905260408120600201546001830154606491610fb4916117e0565b610fbe91906117ff565b90506000818360010154610fd29190611821565b3360009081526020819052604090206001015490915081111561102e5760405162461bcd60e51b8152602060048201526014602482015273496e73756666696369656e742062616c616e636560601b6044820152606401610530565b3360009081526020819052604081206001018054839290611050908490611839565b9091555050506003918201805460ff19166001908117909155600580548083019091556000805160206118518339815191520180546001600160a01b039096166001600160a01b03199687168117909155336000908152602094855260408120805493840181558152939093200180549094169091179092555050565b6060600480548060200260200160405190810160405280929190818152602001828054801561093b576020028201919060005260206000209081546001600160a01b0316815260019091019060200180831161091d575050505050905090565b6002602052816000526040600020818154811061114957600080fd5b90600052602060002001600091509150505481565b60058181548110610bf457600080fd5b33600090815260016020908152604080832060065484529091529020546001600160a01b0316156111e15760405162461bcd60e51b815260206004820152601f60248201527f4f6e6c7920626f72726f776572732063616e2072657175657374206c6f616e006044820152606401610530565b600680549060006111f18361173d565b90915550506040805160e08101825233815260208101859052908101839052600060608201819052608082018190529060a0810161122f8442611821565b8152600060209182018190523380825260018084526040808420600680548652908652818520875181546001600160a01b03919091166001600160a01b0319909116178155878701518185015582880151600280830191909155606089015160038301805460808c015115156101000261ff00199315159390931661ffff199091161791909117905560a0890151600483015560c0909801516005909101559284529484529382209054815494850182559082529190209091015550505050565b336000908152602081905260409020546060906001600160a01b03166113635760405162461bcd60e51b815260206004820152602260248201527f4f6e6c79206c656e646572732063616e206765742070656e64696e67206c6f616044820152616e7360f01b6064820152608401610530565b336000908152600360209081526040918290208054835181840281018401909452808452909183018282801561093b576020028201919060005260206000209081546001600160a01b0316815260019091019060200180831161091d575050505050905090565b3360009081526001602090815260408083208484529091528120546001600160a01b03166114465760405162461bcd60e51b8152602060048201526024808201527f4f6e6c7920626f72726f776572732063616e20636865636b206c6f616e2073746044820152636174757360e01b6064820152608401610530565b503360009081526001602090815260408083209383529290522060030154610100900460ff1690565b6000806000805b6001600160a01b03861660009081526002602052604090205481101561156f576001600160a01b03861660009081526002602052604081208054839081106114c0576114c0611711565b60009182526020808320909101546001600160a01b038a16835260018252604080842082855290925291206003015490915060ff6101009091041615611520578361150a8161173d565b94505084806115189061173d565b95505061155c565b6001600160a01b038716600090815260016020908152604080832084845290915290206004015442111561155c57826115588161173d565b9350505b50806115678161173d565b915050611476565b5060008211801561157e575080155b156115905761158d8284611821565b92505b600a83111561159e57600a92505b50506001600160a01b0390921660009081526001602090815260408083209383529290522060050155565b6000602082840312156115db57600080fd5b5035919050565b6020808252825182820181905260009190848201906040850190845b8181101561161a578351835292840192918401916001016115fe565b50909695505050505050565b80356001600160a01b038116811461163d57600080fd5b919050565b60006020828403121561165457600080fd5b61165d82611626565b9392505050565b6020808252825182820181905260009190848201906040850190845b8181101561161a5783516001600160a01b031683529284019291840191600101611680565b600080604083850312156116b857600080fd5b6116c183611626565b946020939093013593505050565b6000806000606084860312156116e457600080fd5b505081359360208301359350604090920135919050565b634e487b7160e01b600052604160045260246000fd5b634e487b7160e01b600052603260045260246000fd5b634e487b7160e01b600052601160045260246000fd5b600060001982141561175157611751611727565b5060010190565b602080825260119082015270131bd85b881b9bdd08185c1c1c9bdd9959607a1b604082015260600190565b602080825260119082015270131bd85b88185b1c9958591e481c185a59607a1b604082015260600190565b602080825260189082015277131bd85b881a185cc8185b1c9958591e48195e1c1a5c995960421b604082015260600190565b60008160001904831182151516156117fa576117fa611727565b500290565b60008261181c57634e487b7160e01b600052601260045260246000fd5b500490565b6000821982111561183457611834611727565b500190565b60008282101561184b5761184b611727565b50039056fe036b6384b5eca791c62761152d0c79bb0604c104a5fb6f4eb0703f3154bb3db0a264697066735822122061a7314e19d17d1fccf5becdfb2d90b79ed0e4e8886202948e61db80b7470be564736f6c63430008090033",
  "linkReferences": {},
  "deployedLinkReferences": {}
}