{
  "_format": "hh-sol-artifact-1",
  "contractName": "XLending",
  "sourceName": "contracts/XLending.sol",
  "abi": [
    {
      "inputs": [
        {
          "internalType": "uint256",
          "name": "_interestRate",
          "type": "uint256"
        }
      ],
      "name": "addInterestRate",
      "outputs": [],
      "stateMutability": "nonpayable",
      "type": "function"
    },
    {
      "inputs": [
        {
          "internalType": "address",
          "name": "_borrowerAddress",
          "type": "address"
        },
        {
          "internalType": "uint256",
          "name": "_loanId",
          "type": "uint256"
        }
      ],
      "name": "approveLoan",
      "outputs": [],
      "stateMutability": "nonpayable",
      "type": "function"
    },
    {
      "inputs": [],
      "name": "becomeABorrower",
      "outputs": [],
      "stateMutability": "nonpayable",
      "type": "function"
    },
    {
      "inputs": [
        {
          "internalType": "uint256",
          "name": "_interestRate",
          "type": "uint256"
        }
      ],
      "name": "becomeALender",
      "outputs": [],
      "stateMutability": "nonpayable",
      "type": "function"
    },
    {
      "inputs": [
        {
          "internalType": "uint256",
          "name": "",
          "type": "uint256"
        }
      ],
      "name": "borrowerList",
      "outputs": [
        {
          "internalType": "address",
          "name": "borrowerAddress",
          "type": "address"
        },
        {
          "internalType": "uint256",
          "name": "loanAmount",
          "type": "uint256"
        },
        {
          "internalType": "uint256",
          "name": "interestRate",
          "type": "uint256"
        },
        {
          "internalType": "bool",
          "name": "approved",
          "type": "bool"
        },
        {
          "internalType": "bool",
          "name": "paid",
          "type": "bool"
        },
        {
          "internalType": "uint256",
          "name": "deadline",
          "type": "uint256"
        },
        {
          "internalType": "uint256",
          "name": "score",
          "type": "uint256"
        }
      ],
      "stateMutability": "view",
      "type": "function"
    },
    {
      "inputs": [
        {
          "internalType": "address",
          "name": "",
          "type": "address"
        },
        {
          "internalType": "uint256",
          "name": "",
          "type": "uint256"
        }
      ],
      "name": "borrowerLoanIds",
      "outputs": [
        {
          "internalType": "uint256",
          "name": "",
          "type": "uint256"
        }
      ],
      "stateMutability": "view",
      "type": "function"
    },
    {
      "inputs": [
        {
          "internalType": "address",
          "name": "",
          "type": "address"
        },
        {
          "internalType": "uint256",
          "name": "",
          "type": "uint256"
        }
      ],
      "name": "borrowers",
      "outputs": [
        {
          "internalType": "address",
          "name": "borrowerAddress",
          "type": "address"
        },
        {
          "internalType": "uint256",
          "name": "loanAmount",
          "type": "uint256"
        },
        {
          "internalType": "uint256",
          "name": "interestRate",
          "type": "uint256"
        },
        {
          "internalType": "bool",
          "name": "approved",
          "type": "bool"
        },
        {
          "internalType": "bool",
          "name": "paid",
          "type": "bool"
        },
        {
          "internalType": "uint256",
          "name": "deadline",
          "type": "uint256"
        },
        {
          "internalType": "uint256",
          "name": "score",
          "type": "uint256"
        }
      ],
      "stateMutability": "view",
      "type": "function"
    },
    {
      "inputs": [],
      "name": "getAllBorrowers",
      "outputs": [
        {
          "components": [
            {
              "internalType": "address",
              "name": "borrowerAddress",
              "type": "address"
            },
            {
              "internalType": "uint256",
              "name": "loanAmount",
              "type": "uint256"
            },
            {
              "internalType": "uint256",
              "name": "interestRate",
              "type": "uint256"
            },
            {
              "internalType": "bool",
              "name": "approved",
              "type": "bool"
            },
            {
              "internalType": "bool",
              "name": "paid",
              "type": "bool"
            },
            {
              "internalType": "uint256",
              "name": "deadline",
              "type": "uint256"
            },
            {
              "internalType": "uint256",
              "name": "score",
              "type": "uint256"
            }
          ],
          "internalType": "struct XLending.Borrower[]",
          "name": "",
          "type": "tuple[]"
        }
      ],
      "stateMutability": "view",
      "type": "function"
    },
    {
      "inputs": [],
      "name": "getAllLenders",
      "outputs": [
        {
          "components": [
            {
              "internalType": "address",
              "name": "lenderAddress",
              "type": "address"
            },
            {
              "internalType": "uint256",
              "name": "balance",
              "type": "uint256"
            },
            {
              "internalType": "uint256",
              "name": "interestRate",
              "type": "uint256"
            },
            {
              "internalType": "uint256",
              "name": "score",
              "type": "uint256"
            }
          ],
          "internalType": "struct XLending.Lender[]",
          "name": "",
          "type": "tuple[]"
        }
      ],
      "stateMutability": "view",
      "type": "function"
    },
    {
      "inputs": [],
      "name": "getAllLoansGivenOut",
      "outputs": [
        {
          "components": [
            {
              "internalType": "address",
              "name": "borrowerAddress",
              "type": "address"
            },
            {
              "internalType": "uint256",
              "name": "loanAmount",
              "type": "uint256"
            },
            {
              "internalType": "uint256",
              "name": "interestRate",
              "type": "uint256"
            },
            {
              "internalType": "bool",
              "name": "approved",
              "type": "bool"
            },
            {
              "internalType": "bool",
              "name": "paid",
              "type": "bool"
            },
            {
              "internalType": "uint256",
              "name": "deadline",
              "type": "uint256"
            },
            {
              "internalType": "uint256",
              "name": "score",
              "type": "uint256"
            }
          ],
          "internalType": "struct XLending.Loan[]",
          "name": "",
          "type": "tuple[]"
        }
      ],
      "stateMutability": "view",
      "type": "function"
    },
    {
      "inputs": [],
      "name": "getAllUnpaidLoans",
      "outputs": [
        {
          "internalType": "uint256[]",
          "name": "",
          "type": "uint256[]"
        }
      ],
      "stateMutability": "view",
      "type": "function"
    },
    {
      "inputs": [],
      "name": "getPendingLoans",
      "outputs": [
        {
          "components": [
            {
              "internalType": "address",
              "name": "borrowerAddress",
              "type": "address"
            },
            {
              "internalType": "uint256",
              "name": "loanAmount",
              "type": "uint256"
            },
            {
              "internalType": "uint256",
              "name": "interestRate",
              "type": "uint256"
            },
            {
              "internalType": "uint256",
              "name": "deliveryTime",
              "type": "uint256"
            },
            {
              "internalType": "uint256",
              "name": "score",
              "type": "uint256"
            }
          ],
          "internalType": "struct XLending.PendingLoan[]",
          "name": "",
          "type": "tuple[]"
        }
      ],
      "stateMutability": "view",
      "type": "function"
    },
    {
      "inputs": [
        {
          "internalType": "address",
          "name": "_address",
          "type": "address"
        }
      ],
      "name": "isBorrower",
      "outputs": [
        {
          "internalType": "bool",
          "name": "",
          "type": "bool"
        }
      ],
      "stateMutability": "view",
      "type": "function"
    },
    {
      "inputs": [
        {
          "internalType": "address",
          "name": "_address",
          "type": "address"
        }
      ],
      "name": "isLender",
      "outputs": [
        {
          "internalType": "bool",
          "name": "",
          "type": "bool"
        }
      ],
      "stateMutability": "view",
      "type": "function"
    },
    {
      "inputs": [
        {
          "internalType": "uint256",
          "name": "_loanId",
          "type": "uint256"
        }
      ],
      "name": "isLoanPaid",
      "outputs": [
        {
          "internalType": "bool",
          "name": "",
          "type": "bool"
        }
      ],
      "stateMutability": "view",
      "type": "function"
    },
    {
      "inputs": [
        {
          "internalType": "uint256",
          "name": "",
          "type": "uint256"
        }
      ],
      "name": "lenderList",
      "outputs": [
        {
          "internalType": "address",
          "name": "lenderAddress",
          "type": "address"
        },
        {
          "internalType": "uint256",
          "name": "balance",
          "type": "uint256"
        },
        {
          "internalType": "uint256",
          "name": "interestRate",
          "type": "uint256"
        },
        {
          "internalType": "uint256",
          "name": "score",
          "type": "uint256"
        }
      ],
      "stateMutability": "view",
      "type": "function"
    },
    {
      "inputs": [
        {
          "internalType": "address",
          "name": "",
          "type": "address"
        },
        {
          "internalType": "uint256",
          "name": "",
          "type": "uint256"
        }
      ],
      "name": "lenderPendingLoans",
      "outputs": [
        {
          "internalType": "address",
          "name": "",
          "type": "address"
        }
      ],
      "stateMutability": "view",
      "type": "function"
    },
    {
      "inputs": [
        {
          "internalType": "address",
          "name": "",
          "type": "address"
        }
      ],
      "name": "lenders",
      "outputs": [
        {
          "internalType": "address",
          "name": "lenderAddress",
          "type": "address"
        },
        {
          "internalType": "uint256",
          "name": "balance",
          "type": "uint256"
        },
        {
          "internalType": "uint256",
          "name": "interestRate",
          "type": "uint256"
        },
        {
          "internalType": "uint256",
          "name": "score",
          "type": "uint256"
        }
      ],
      "stateMutability": "view",
      "type": "function"
    },
    {
      "inputs": [
        {
          "internalType": "address",
          "name": "",
          "type": "address"
        },
        {
          "internalType": "uint256",
          "name": "",
          "type": "uint256"
        }
      ],
      "name": "loans",
      "outputs": [
        {
          "internalType": "address",
          "name": "borrowerAddress",
          "type": "address"
        },
        {
          "internalType": "uint256",
          "name": "loanAmount",
          "type": "uint256"
        },
        {
          "internalType": "uint256",
          "name": "interestRate",
          "type": "uint256"
        },
        {
          "internalType": "bool",
          "name": "approved",
          "type": "bool"
        },
        {
          "internalType": "bool",
          "name": "paid",
          "type": "bool"
        },
        {
          "internalType": "uint256",
          "name": "deadline",
          "type": "uint256"
        },
        {
          "internalType": "uint256",
          "name": "score",
          "type": "uint256"
        }
      ],
      "stateMutability": "view",
      "type": "function"
    },
    {
      "inputs": [
        {
          "internalType": "address",
          "name": "_borrowerAddress",
          "type": "address"
        },
        {
          "internalType": "uint256",
          "name": "_loanId",
          "type": "uint256"
        }
      ],
      "name": "markAsPaid",
      "outputs": [],
      "stateMutability": "nonpayable",
      "type": "function"
    },
    {
      "inputs": [],
      "name": "nextLoanId",
      "outputs": [
        {
          "internalType": "uint256",
          "name": "",
          "type": "uint256"
        }
      ],
      "stateMutability": "view",
      "type": "function"
    },
    {
      "inputs": [],
      "name": "nextPendingLoanId",
      "outputs": [
        {
          "internalType": "uint256",
          "name": "",
          "type": "uint256"
        }
      ],
      "stateMutability": "view",
      "type": "function"
    },
    {
      "inputs": [
        {
          "internalType": "address",
          "name": "",
          "type": "address"
        },
        {
          "internalType": "uint256",
          "name": "",
          "type": "uint256"
        }
      ],
      "name": "pendingLoans",
      "outputs": [
        {
          "internalType": "address",
          "name": "borrowerAddress",
          "type": "address"
        },
        {
          "internalType": "uint256",
          "name": "loanAmount",
          "type": "uint256"
        },
        {
          "internalType": "uint256",
          "name": "interestRate",
          "type": "uint256"
        },
        {
          "internalType": "uint256",
          "name": "deliveryTime",
          "type": "uint256"
        },
        {
          "internalType": "uint256",
          "name": "score",
          "type": "uint256"
        }
      ],
      "stateMutability": "view",
      "type": "function"
    },
    {
      "inputs": [
        {
          "internalType": "uint256",
          "name": "_loanId",
          "type": "uint256"
        }
      ],
      "name": "repay",
      "outputs": [],
      "stateMutability": "payable",
      "type": "function"
    },
    {
      "inputs": [
        {
          "internalType": "address",
          "name": "_lenderAddress",
          "type": "address"
        },
        {
          "internalType": "uint256",
          "name": "_loanAmount",
          "type": "uint256"
        },
        {
          "internalType": "uint256",
          "name": "_interestRate",
          "type": "uint256"
        },
        {
          "internalType": "uint256",
          "name": "_deadline",
          "type": "uint256"
        }
      ],
      "name": "requestLoan",
      "outputs": [],
      "stateMutability": "nonpayable",
      "type": "function"
    }
  ],
  "bytecode": "0x608060405234801561001057600080fd5b506125e5806100206000396000f3fe6080604052600436106101265760003560e01c8063049462e71461012b57806310266546146102a9578063176c149e146102c957806328fd10d7146102f45780632ff9badf1461036a57806332abcdbe146103a2578063371fd8e6146103c45780633f989b44146103d75780636085c7df146103f9578063709b89611461041957806374c915d91461046457806387c51459146104f257806392c79d121461051657806398c61c37146105365780639cedf8b3146105e85780639f63f5c3146105fe578063a1666b541461061e578063a56e11bc14610640578063b3a6652414610660578063bcddc0d314610680578063d00c1a53146106a0578063eaf6e483146106c0578063ee24af5a14610708578063f335ed761461072a578063fbabd13c1461079a575b600080fd5b34801561013757600080fd5b506102a76040805160e0810182523380825260006020808401828152848601838152606086018481526080870185815260a0880186815260c0890187815297875260058087528a88206008548952909652988620885181546001600160a01b039182166001600160a01b031991821617835586516001848101919091558651600285015585516003850180548751151561010090810261ff0019941515851661ffff1993841617179092558f5160048801558d5196909b0195909555600780549283018155909a529a516006909b026000805160206124d0833981519152810180549c9093169b9091169a909a179055935160008051602061257083398151915289015591516000805160206124b08339815191528801555160008051602061259083398151915287018054925115159093029015159094169216919091179190911790559151600080516020612470833981519152820155905160008051602061255083398151915290910155565b005b3480156102b557600080fd5b506102a76102c4366004612073565b6107ba565b3480156102d557600080fd5b506102de610844565b6040516102eb919061208c565b60405180910390f35b34801561030057600080fd5b5061034061030f3660046120ec565b60006020819052908152604090208054600182015460028301546003909301546001600160a01b0390921692909184565b604080516001600160a01b03909516855260208501939093529183015260608201526080016102eb565b34801561037657600080fd5b5061038a61038536600461210e565b610a90565b6040516001600160a01b0390911681526020016102eb565b3480156103ae57600080fd5b506103b7610ac8565b6040516102eb9190612186565b6102a76103d2366004612073565b610b7b565b3480156103e357600080fd5b506103ec610e26565b6040516102eb91906121c8565b34801561040557600080fd5b50610340610414366004612073565b611049565b34801561042557600080fd5b506104546104343660046120ec565b6001600160a01b0390811660009081526020819052604090205416151590565b60405190151581526020016102eb565b34801561047057600080fd5b506104c061047f36600461210e565b60026020818152600093845260408085209091529183529120805460018201549282015460038301546004909301546001600160a01b039092169392909185565b604080516001600160a01b0390961686526020860194909452928401919091526060830152608082015260a0016102eb565b3480156104fe57600080fd5b5061050860085481565b6040519081526020016102eb565b34801561052257600080fd5b506102a761053136600461220a565b61108d565b34801561054257600080fd5b506105a761055136600461210e565b600160208181526000938452604080852090915291835291208054918101546002820154600383015460048401546005909401546001600160a01b03909516949293919260ff8083169361010090930416919087565b604080516001600160a01b03909816885260208801969096529486019390935290151560608501521515608084015260a083015260c082015260e0016102eb565b3480156105f457600080fd5b5061050860095481565b34801561060a57600080fd5b506102a761061936600461210e565b6113a5565b34801561062a57600080fd5b50610633611818565b6040516102eb9190612243565b34801561064c57600080fd5b5061050861065b36600461210e565b611899565b34801561066c57600080fd5b506105a761067b366004612073565b6118ca565b34801561068c57600080fd5b506102a761069b366004612073565b611928565b3480156106ac57600080fd5b506102a76106bb36600461210e565b611a5c565b3480156106cc57600080fd5b506104546106db3660046120ec565b6001600160a01b039081166000908152600560209081526040808320600854845290915290205416151590565b34801561071457600080fd5b5061071d611bf5565b6040516102eb91906122b0565b34801561073657600080fd5b506105a761074536600461210e565b600560208181526000938452604080852090915291835291208054600182015460028301546003840154600485015494909501546001600160a01b03909316949193909260ff80841693610100900416919087565b3480156107a657600080fd5b506104546107b5366004612073565b611e74565b336000908152602081905260409020546001600160a01b031661082f5760405162461bcd60e51b815260206004820152602260248201527f4f6e6c79206c656e646572732063616e2061646420696e746572657374207261604482015261746560f01b60648201526084015b60405180910390fd5b33600090815260208190526040902060020155565b33600090815260056020908152604080832060085484529091529020546060906001600160a01b03166108c55760405162461bcd60e51b815260206004820152602360248201527f4f6e6c7920626f72726f776572732063616e2067657420756e70616964206c6f604482015262616e7360e81b6064820152608401610826565b336000908152600360205260408120546001600160401b038111156108ec576108ec61231a565b604051908082528060200260200182016040528015610915578160200160208202803683370190505b5090506000805b336000908152600360205260409020548110156109ed5733600090815260036020526040812080548390811061095457610954612330565b6000918252602080832090910154338352600582526040808420828552909252912060038101549192509060ff16801561099857506003810154610100900460ff16155b80156109a75750806004015442105b156109d857818585815181106109bf576109bf612330565b6020908102919091010152836109d48161235c565b9450505b505080806109e59061235c565b91505061091c565b506000816001600160401b03811115610a0857610a0861231a565b604051908082528060200260200182016040528015610a31578160200160208202803683370190505b50905060005b82811015610a8857838181518110610a5157610a51612330565b6020026020010151828281518110610a6b57610a6b612330565b602090810291909101015280610a808161235c565b915050610a37565b509392505050565b60046020528160005260406000208181548110610aac57600080fd5b6000918252602090912001546001600160a01b03169150829050565b60606007805480602002602001604051908101604052809291908181526020016000905b82821015610b725760008481526020908190206040805160e0810182526006860290920180546001600160a01b0316835260018082015484860152600282015492840192909252600381015460ff808216151560608601526101009091041615156080840152600481015460a08401526005015460c08301529083529092019101610aec565b50505050905090565b3360009081526005602090815260408083208484529091529020546001600160a01b0316610be65760405162461bcd60e51b81526020600482015260186024820152774f6e6c7920626f72726f776572732063616e20726570617960401b6044820152606401610826565b33600090815260056020908152604080832084845290915290206003015460ff16610c235760405162461bcd60e51b815260040161082690612377565b336000908152600560209081526040808320848452909152902060030154610100900460ff1615610c665760405162461bcd60e51b8152600401610826906123a2565b3360009081526005602090815260408083208484529091529020600401544210610ca25760405162461bcd60e51b8152600401610826906123cd565b33600090815260056020908152604080832084845290915281206002810154600190910154349291606491610cd791906123ff565b610ce1919061241e565b33600090815260056020908152604080832087845290915281206001015491925090610d0e908390612440565b905080831015610d6a5760405162461bcd60e51b815260206004820152602160248201527f496e73756666696369656e7420616d6f756e7420746f207265706179206c6f616044820152603760f91b6064820152608401610826565b6000610d768285612458565b90508015610dad57604051339082156108fc029083906000818181858888f19350505050158015610dab573d6000803e3d6000fd5b505b3360008181526005602090815260408083208984528252808320600190810154948452918390528220018054909190610de7908490612440565b90915550503360008181526005602090815260408083208984529091529020600301805461ff001916610100179055610e1f90611f19565b5050505050565b336000908152602081905260409020546060906001600160a01b0316610e8e5760405162461bcd60e51b815260206004820181905260248201527f4f6e6c79206c656e646572732063616e20676574207468656972206c6f616e736044820152606401610826565b6007546000906001600160401b03811115610eab57610eab61231a565b604051908082528060200260200182016040528015610f2957816020015b610f166040518060e0016040528060006001600160a01b03168152602001600081526020016000815260200160001515815260200160001515815260200160008152602001600081525090565b815260200190600190039081610ec95790505b5090506000805b60075481101561104157600060078281548110610f4f57610f4f612330565b60009182526020909120600690910201600381015490915060ff168015610f8057506003810154610100900460ff16155b1561102e5780546001600160a01b03166000818152600160208181526040808420878552825292839020835160e0810185529485529182015490840152600281015491830191909152600381015460ff808216151560608501526101009091041615156080830152600481015460a0830152600581015460c0830152855190919086908690811061101357611013612330565b602002602001018190525083806110299061235c565b945050505b50806110398161235c565b915050610f30565b509092915050565b6006818154811061105957600080fd5b600091825260209091206004909102018054600182015460028301546003909301546001600160a01b039092169350919084565b33600090815260056020908152604080832060085484529091529020546001600160a01b0316156111005760405162461bcd60e51b815260206004820152601f60248201527f4f6e6c7920626f72726f776572732063616e2072657175657374206c6f616e006044820152606401610826565b600880549060006111108361235c565b90915550506040805160e08101825233815260208101859052908101839052600060608201819052608082015260a0810161114b8342612440565b815260006020918201819052338082526005808452604080842060085485528552808420865181546001600160a01b0319166001600160a01b039091161781558686015160018201558682015160028201556060808801516003830180546080808c015161ffff1990921693151561ff001916939093176101009115159190910217905560a0808a0151600485015560c0909901519290940191909155815160e0810183529384529483018990528201879052928101829052918201529081016112158342612440565b8152600060209182018190523380825260018084526040808420600880548652908652818520875181546001600160a01b03919091166001600160a01b031990911617815587870151818501558783015160028201556060808901516003808401805460808d015115156101000261ff00199415159490941661ffff19909116179290921790915560a0808b0151600485015560c0909a015160059093019290925585875290875282862091548254948501835591865294869020909201919091558051948501815290845291830186905290820184905281016112f98342612440565b8152600060209182018190526001600160a01b03808816808352600280855260408085206009805487529087528186208851815496166001600160a01b0319968716178155888801516001808301919091558984015194820194909455606089015160038201556080909801516004988901559285529585529483208054958601815583529282209093018054909316331790925580549161139a8361235c565b919050555050505050565b336000908152602081905260409020546001600160a01b031661140a5760405162461bcd60e51b815260206004820152601d60248201527f4f6e6c79206c656e646572732063616e20617070726f7665206c6f616e0000006044820152606401610826565b6001600160a01b038083166000908152600560209081526040808320858452909152902080549091166114795760405162461bcd60e51b8152602060048201526017602482015276109bdc9c9bddd95c88191bd95cc81b9bdd08195e1a5cdd604a1b6044820152606401610826565b600381015460ff16156114c65760405162461bcd60e51b8152602060048201526015602482015274131bd85b88185b1c9958591e48185c1c1c9bdd9959605a1b6044820152606401610826565b3360009081526020819052604081206002015460018301546064916114ea916123ff565b6114f4919061241e565b905060008183600101546115089190612440565b336000908152602081905260409020600101549091508111156115645760405162461bcd60e51b8152602060048201526014602482015273496e73756666696369656e742062616c616e636560601b6044820152606401610826565b3360009081526020819052604081206001018054839290611586908490612458565b909155505060038301805460ff191660011790556000805b600754811015611605578454600780546001600160a01b0390921691839081106115ca576115ca612330565b60009182526020909120600690910201546001600160a01b031614156115f35760019150611605565b806115fd8161235c565b91505061159e565b5080611701576007805460018181018355600092909252855460069091026000805160206124d0833981519152810180546001600160a01b0319166001600160a01b03909316929092179091559085015460008051602061257083398151915282015560028501546000805160206124b08339815191528201556003850180546000805160206125908339815191528301805460ff928316151560ff19821681178355935461010090819004909316151590920261ff001990931661ffff199092169190911791909117905560048501546000805160206124708339815191528201556005850154600080516020612550833981519152909101555b6000805b60065481101561176757336001600160a01b03166006828154811061172c5761172c612330565b60009182526020909120600490910201546001600160a01b031614156117555760019150611767565b8061175f8161235c565b915050611705565b508061180f5760408051608081018252338152600060208201818152928201818152606083018281526006805460018101825593529251600080516020612530833981519152600490930292830180546001600160a01b0319166001600160a01b0390921691909117905592516000805160206124f0833981519152820155915160008051602061251083398151915283015551600080516020612490833981519152909101555b50505050505050565b60606006805480602002602001604051908101604052809291908181526020016000905b82821015610b72576000848152602090819020604080516080810182526004860290920180546001600160a01b0316835260018082015484860152600282015492840192909252600301546060830152908352909201910161183c565b600360205281600052604060002081815481106118b557600080fd5b90600052602060002001600091509150505481565b600781815481106118da57600080fd5b60009182526020909120600690910201805460018201546002830154600384015460048501546005909501546001600160a01b0390941695509193909260ff80841693610100900416919087565b336000908152602081905260409020546001600160a01b0316156119815760405162461bcd60e51b815260206004820152601060248201526f20b63932b0b23c9030903632b73232b960811b6044820152606401610826565b60408051608081018252338082528031602080840191825283850195865260006060850181815293815290819052938420925183546001600160a01b039182166001600160a01b03199182161785559151600180860191825596516002860190815593516003860190815560068054988901815590965293546004909602600080516020612530833981519152810180549093169690911695909517905590546000805160206124f0833981519152840155546000805160206125108339815191528301555460008051602061249083398151915290910155565b6001600160a01b038281166000908152600560209081526040808320858452909152902054163314611adc5760405162461bcd60e51b815260206004820152602360248201527f4f6e6c7920626f72726f7765722063616e206d61726b206c6f616e2061732070604482015262185a5960ea1b6064820152608401610826565b6001600160a01b038216600090815260056020908152604080832084845290915290206003015460ff16611b225760405162461bcd60e51b815260040161082690612377565b6001600160a01b0382166000908152600560209081526040808320848452909152902060030154610100900460ff1615611b6e5760405162461bcd60e51b8152600401610826906123a2565b6001600160a01b03821660009081526005602090815260408083208484529091529020600401544210611bb35760405162461bcd60e51b8152600401610826906123cd565b6001600160a01b0382166000908152600560209081526040808320848452909152902060038101805461ff001916610100179055611bf083611f19565b505050565b336000908152602081905260409020546060906001600160a01b0316611c685760405162461bcd60e51b815260206004820152602260248201527f4f6e6c79206c656e646572732063616e206765742070656e64696e67206c6f616044820152616e7360f01b6064820152608401610826565b33600090815260046020908152604080832080548251818502810185019093528083529192909190830182828015611cc957602002820191906000526020600020905b81546001600160a01b03168152600190910190602001808311611cab575b50505050509050600081516001600160401b03811115611ceb57611ceb61231a565b604051908082528060200260200182016040528015611d5757816020015b611d446040518060a0016040528060006001600160a01b03168152602001600081526020016000815260200160008152602001600081525090565b815260200190600190039081611d095790505b50905060005b8251811015611e6d576000838281518110611d7a57611d7a612330565b6020908102919091018101516001600160a01b0381166000908152600390925260408220805491935090611db090600190612458565b81548110611dc057611dc0612330565b60009182526020808320909101546001600160a01b038516808452600583526040808520838652845280852033865260028086528287208a8852865295829020825160a08101845293845260018201549584019590955294850154908201526003830154606082015260048301546080820152875191945090879087908110611e4b57611e4b612330565b6020026020010181905250505050508080611e659061235c565b915050611d5d565b5092915050565b3360009081526005602090815260408083208484529091528120546001600160a01b0316611ef05760405162461bcd60e51b8152602060048201526024808201527f4f6e6c7920626f72726f776572732063616e20636865636b206c6f616e2073746044820152636174757360e01b6064820152608401610826565b503360009081526005602090815260408083209383529290522060030154610100900460ff1690565b6000806000805b6001600160a01b038516600090815260036020526040902054811015612019576001600160a01b0385166000908152600360205260408120805483908110611f6a57611f6a612330565b60009182526020808320909101546001600160a01b038916835260058252604080842082855290925291206003015490915060ff6101009091041615611fca5783611fb48161235c565b9450508480611fc29061235c565b955050612006565b6001600160a01b038616600090815260056020908152604080832084845290915290206004015442111561200657826120028161235c565b9350505b50806120118161235c565b915050611f20565b50600082118015612028575080155b1561203a576120378284612440565b92505b600a83111561204857600a92505b50506001600160a01b0390911660009081526005602081815260408084208480529091529091200155565b60006020828403121561208557600080fd5b5035919050565b6020808252825182820181905260009190848201906040850190845b818110156120c4578351835292840192918401916001016120a8565b50909695505050505050565b80356001600160a01b03811681146120e757600080fd5b919050565b6000602082840312156120fe57600080fd5b612107826120d0565b9392505050565b6000806040838503121561212157600080fd5b61212a836120d0565b946020939093013593505050565b80516001600160a01b03168252602080820151908301526040808201519083015260608082015115159083015260808082015115159083015260a0818101519083015260c090810151910152565b6020808252825182820181905260009190848201906040850190845b818110156120c4576121b5838551612138565b9284019260e092909201916001016121a2565b6020808252825182820181905260009190848201906040850190845b818110156120c4576121f7838551612138565b9284019260e092909201916001016121e4565b6000806000806080858703121561222057600080fd5b612229856120d0565b966020860135965060408601359560600135945092505050565b602080825282518282018190526000919060409081850190868401855b828110156122a357815180516001600160a01b03168552868101518786015285810151868601526060908101519085015260809093019290850190600101612260565b5091979650505050505050565b602080825282518282018190526000919060409081850190868401855b828110156122a357815180516001600160a01b0316855286810151878601528581015186860152606080820151908601526080908101519085015260a090930192908501906001016122cd565b634e487b7160e01b600052604160045260246000fd5b634e487b7160e01b600052603260045260246000fd5b634e487b7160e01b600052601160045260246000fd5b600060001982141561237057612370612346565b5060010190565b602080825260119082015270131bd85b881b9bdd08185c1c1c9bdd9959607a1b604082015260600190565b602080825260119082015270131bd85b88185b1c9958591e481c185a59607a1b604082015260600190565b602080825260189082015277131bd85b881a185cc8185b1c9958591e48195e1c1a5c995960421b604082015260600190565b600081600019048311821515161561241957612419612346565b500290565b60008261243b57634e487b7160e01b600052601260045260246000fd5b500490565b6000821982111561245357612453612346565b500190565b60008282101561246a5761246a612346565b50039056fea66cc928b5edb82af9bd49922954155ab7b0942694bea4ce44661d9a8736c68cf652222313e28459528d920b65115c16c04f3efc82aaedc97be59f3f377c0d42a66cc928b5edb82af9bd49922954155ab7b0942694bea4ce44661d9a8736c68aa66cc928b5edb82af9bd49922954155ab7b0942694bea4ce44661d9a8736c688f652222313e28459528d920b65115c16c04f3efc82aaedc97be59f3f377c0d40f652222313e28459528d920b65115c16c04f3efc82aaedc97be59f3f377c0d41f652222313e28459528d920b65115c16c04f3efc82aaedc97be59f3f377c0d3fa66cc928b5edb82af9bd49922954155ab7b0942694bea4ce44661d9a8736c68da66cc928b5edb82af9bd49922954155ab7b0942694bea4ce44661d9a8736c689a66cc928b5edb82af9bd49922954155ab7b0942694bea4ce44661d9a8736c68ba2646970667358221220483f4983b9808287c6834f366f9d2eb46405000e99870551fb40511bcf7ffd9a64736f6c63430008090033",
  "linkReferences": {},
  "deployedLinkReferences": {}
}