{
  "_format": "hh-sol-artifact-1",
  "contractName": "XLending",
  "sourceName": "contracts/XLending.sol",
  "abi": [
    {
      "inputs": [
        {
          "internalType": "uint256",
          "name": "_interestRate",
          "type": "uint256"
        }
      ],
      "name": "addInterestRate",
      "outputs": [],
      "stateMutability": "nonpayable",
      "type": "function"
    },
    {
      "inputs": [
        {
          "internalType": "address",
          "name": "_borrowerAddress",
          "type": "address"
        },
        {
          "internalType": "uint256",
          "name": "_loanId",
          "type": "uint256"
        }
      ],
      "name": "approveLoan",
      "outputs": [],
      "stateMutability": "nonpayable",
      "type": "function"
    },
    {
      "inputs": [],
      "name": "becomeABorrower",
      "outputs": [],
      "stateMutability": "nonpayable",
      "type": "function"
    },
    {
      "inputs": [
        {
          "internalType": "uint256",
          "name": "_interestRate",
          "type": "uint256"
        }
      ],
      "name": "becomeALender",
      "outputs": [],
      "stateMutability": "nonpayable",
      "type": "function"
    },
    {
      "inputs": [
        {
          "internalType": "uint256",
          "name": "",
          "type": "uint256"
        }
      ],
      "name": "borrowerList",
      "outputs": [
        {
          "internalType": "address",
          "name": "borrowerAddress",
          "type": "address"
        },
        {
          "internalType": "uint256",
          "name": "loanAmount",
          "type": "uint256"
        },
        {
          "internalType": "uint256",
          "name": "interestRate",
          "type": "uint256"
        },
        {
          "internalType": "bool",
          "name": "approved",
          "type": "bool"
        },
        {
          "internalType": "bool",
          "name": "paid",
          "type": "bool"
        },
        {
          "internalType": "uint256",
          "name": "deadline",
          "type": "uint256"
        },
        {
          "internalType": "uint256",
          "name": "score",
          "type": "uint256"
        }
      ],
      "stateMutability": "view",
      "type": "function"
    },
    {
      "inputs": [
        {
          "internalType": "address",
          "name": "",
          "type": "address"
        },
        {
          "internalType": "uint256",
          "name": "",
          "type": "uint256"
        }
      ],
      "name": "borrowerLoanIds",
      "outputs": [
        {
          "internalType": "uint256",
          "name": "",
          "type": "uint256"
        }
      ],
      "stateMutability": "view",
      "type": "function"
    },
    {
      "inputs": [],
      "name": "borrowerPendingLoans",
      "outputs": [
        {
          "components": [
            {
              "internalType": "address",
              "name": "borrowerAddress",
              "type": "address"
            },
            {
              "internalType": "uint256",
              "name": "loanAmount",
              "type": "uint256"
            },
            {
              "internalType": "uint256",
              "name": "interestRate",
              "type": "uint256"
            },
            {
              "internalType": "uint256",
              "name": "deliveryTime",
              "type": "uint256"
            },
            {
              "internalType": "uint256",
              "name": "score",
              "type": "uint256"
            }
          ],
          "internalType": "struct XLending.PendingLoan[]",
          "name": "",
          "type": "tuple[]"
        }
      ],
      "stateMutability": "view",
      "type": "function"
    },
    {
      "inputs": [
        {
          "internalType": "address",
          "name": "",
          "type": "address"
        },
        {
          "internalType": "uint256",
          "name": "",
          "type": "uint256"
        }
      ],
      "name": "borrowers",
      "outputs": [
        {
          "internalType": "address",
          "name": "borrowerAddress",
          "type": "address"
        },
        {
          "internalType": "uint256",
          "name": "loanAmount",
          "type": "uint256"
        },
        {
          "internalType": "uint256",
          "name": "interestRate",
          "type": "uint256"
        },
        {
          "internalType": "bool",
          "name": "approved",
          "type": "bool"
        },
        {
          "internalType": "bool",
          "name": "paid",
          "type": "bool"
        },
        {
          "internalType": "uint256",
          "name": "deadline",
          "type": "uint256"
        },
        {
          "internalType": "uint256",
          "name": "score",
          "type": "uint256"
        }
      ],
      "stateMutability": "view",
      "type": "function"
    },
    {
      "inputs": [
        {
          "internalType": "address",
          "name": "_borrowerAddress",
          "type": "address"
        },
        {
          "internalType": "uint256",
          "name": "_loanId",
          "type": "uint256"
        }
      ],
      "name": "checkLoanStatus",
      "outputs": [
        {
          "internalType": "bool",
          "name": "",
          "type": "bool"
        }
      ],
      "stateMutability": "view",
      "type": "function"
    },
    {
      "inputs": [
        {
          "internalType": "address",
          "name": "_borrowerAddress",
          "type": "address"
        }
      ],
      "name": "getAllApprovedLoans",
      "outputs": [
        {
          "components": [
            {
              "internalType": "address",
              "name": "borrowerAddress",
              "type": "address"
            },
            {
              "internalType": "uint256",
              "name": "loanAmount",
              "type": "uint256"
            },
            {
              "internalType": "uint256",
              "name": "interestRate",
              "type": "uint256"
            },
            {
              "internalType": "bool",
              "name": "approved",
              "type": "bool"
            },
            {
              "internalType": "bool",
              "name": "paid",
              "type": "bool"
            },
            {
              "internalType": "uint256",
              "name": "deadline",
              "type": "uint256"
            },
            {
              "internalType": "uint256",
              "name": "score",
              "type": "uint256"
            }
          ],
          "internalType": "struct XLending.Loan[]",
          "name": "",
          "type": "tuple[]"
        }
      ],
      "stateMutability": "view",
      "type": "function"
    },
    {
      "inputs": [],
      "name": "getAllBorrowers",
      "outputs": [
        {
          "components": [
            {
              "internalType": "address",
              "name": "borrowerAddress",
              "type": "address"
            },
            {
              "internalType": "uint256",
              "name": "loanAmount",
              "type": "uint256"
            },
            {
              "internalType": "uint256",
              "name": "interestRate",
              "type": "uint256"
            },
            {
              "internalType": "bool",
              "name": "approved",
              "type": "bool"
            },
            {
              "internalType": "bool",
              "name": "paid",
              "type": "bool"
            },
            {
              "internalType": "uint256",
              "name": "deadline",
              "type": "uint256"
            },
            {
              "internalType": "uint256",
              "name": "score",
              "type": "uint256"
            }
          ],
          "internalType": "struct XLending.Borrower[]",
          "name": "",
          "type": "tuple[]"
        }
      ],
      "stateMutability": "view",
      "type": "function"
    },
    {
      "inputs": [],
      "name": "getAllLenders",
      "outputs": [
        {
          "components": [
            {
              "internalType": "address",
              "name": "lenderAddress",
              "type": "address"
            },
            {
              "internalType": "uint256",
              "name": "balance",
              "type": "uint256"
            },
            {
              "internalType": "uint256",
              "name": "interestRate",
              "type": "uint256"
            },
            {
              "internalType": "uint256",
              "name": "score",
              "type": "uint256"
            }
          ],
          "internalType": "struct XLending.Lender[]",
          "name": "",
          "type": "tuple[]"
        }
      ],
      "stateMutability": "view",
      "type": "function"
    },
    {
      "inputs": [
        {
          "internalType": "address",
          "name": "_lenderAddress",
          "type": "address"
        }
      ],
      "name": "getAllLoansGivenOut",
      "outputs": [
        {
          "components": [
            {
              "internalType": "address",
              "name": "borrowerAddress",
              "type": "address"
            },
            {
              "internalType": "uint256",
              "name": "loanAmount",
              "type": "uint256"
            },
            {
              "internalType": "uint256",
              "name": "interestRate",
              "type": "uint256"
            },
            {
              "internalType": "bool",
              "name": "approved",
              "type": "bool"
            },
            {
              "internalType": "bool",
              "name": "paid",
              "type": "bool"
            },
            {
              "internalType": "uint256",
              "name": "deadline",
              "type": "uint256"
            },
            {
              "internalType": "uint256",
              "name": "score",
              "type": "uint256"
            }
          ],
          "internalType": "struct XLending.Loan[]",
          "name": "",
          "type": "tuple[]"
        }
      ],
      "stateMutability": "view",
      "type": "function"
    },
    {
      "inputs": [],
      "name": "getAllUnpaidLoans",
      "outputs": [
        {
          "internalType": "uint256[]",
          "name": "",
          "type": "uint256[]"
        }
      ],
      "stateMutability": "view",
      "type": "function"
    },
    {
      "inputs": [
        {
          "internalType": "address",
          "name": "_borrowerAddress",
          "type": "address"
        },
        {
          "internalType": "uint256",
          "name": "_loanId",
          "type": "uint256"
        }
      ],
      "name": "getLoanBalance",
      "outputs": [
        {
          "internalType": "uint256",
          "name": "",
          "type": "uint256"
        }
      ],
      "stateMutability": "view",
      "type": "function"
    },
    {
      "inputs": [],
      "name": "getPendingLoans",
      "outputs": [
        {
          "components": [
            {
              "internalType": "address",
              "name": "borrowerAddress",
              "type": "address"
            },
            {
              "internalType": "uint256",
              "name": "loanAmount",
              "type": "uint256"
            },
            {
              "internalType": "uint256",
              "name": "interestRate",
              "type": "uint256"
            },
            {
              "internalType": "uint256",
              "name": "deliveryTime",
              "type": "uint256"
            },
            {
              "internalType": "uint256",
              "name": "score",
              "type": "uint256"
            }
          ],
          "internalType": "struct XLending.PendingLoan[]",
          "name": "",
          "type": "tuple[]"
        }
      ],
      "stateMutability": "view",
      "type": "function"
    },
    {
      "inputs": [
        {
          "internalType": "address",
          "name": "_address",
          "type": "address"
        }
      ],
      "name": "isBorrower",
      "outputs": [
        {
          "internalType": "bool",
          "name": "",
          "type": "bool"
        }
      ],
      "stateMutability": "view",
      "type": "function"
    },
    {
      "inputs": [
        {
          "internalType": "address",
          "name": "_address",
          "type": "address"
        }
      ],
      "name": "isLender",
      "outputs": [
        {
          "internalType": "bool",
          "name": "",
          "type": "bool"
        }
      ],
      "stateMutability": "view",
      "type": "function"
    },
    {
      "inputs": [
        {
          "internalType": "uint256",
          "name": "_loanId",
          "type": "uint256"
        }
      ],
      "name": "isLoanPaid",
      "outputs": [
        {
          "internalType": "bool",
          "name": "",
          "type": "bool"
        }
      ],
      "stateMutability": "view",
      "type": "function"
    },
    {
      "inputs": [
        {
          "internalType": "uint256",
          "name": "",
          "type": "uint256"
        }
      ],
      "name": "lenderList",
      "outputs": [
        {
          "internalType": "address",
          "name": "lenderAddress",
          "type": "address"
        },
        {
          "internalType": "uint256",
          "name": "balance",
          "type": "uint256"
        },
        {
          "internalType": "uint256",
          "name": "interestRate",
          "type": "uint256"
        },
        {
          "internalType": "uint256",
          "name": "score",
          "type": "uint256"
        }
      ],
      "stateMutability": "view",
      "type": "function"
    },
    {
      "inputs": [
        {
          "internalType": "address",
          "name": "",
          "type": "address"
        },
        {
          "internalType": "uint256",
          "name": "",
          "type": "uint256"
        }
      ],
      "name": "lenderPendingLoans",
      "outputs": [
        {
          "internalType": "address",
          "name": "",
          "type": "address"
        }
      ],
      "stateMutability": "view",
      "type": "function"
    },
    {
      "inputs": [
        {
          "internalType": "address",
          "name": "",
          "type": "address"
        }
      ],
      "name": "lenders",
      "outputs": [
        {
          "internalType": "address",
          "name": "lenderAddress",
          "type": "address"
        },
        {
          "internalType": "uint256",
          "name": "balance",
          "type": "uint256"
        },
        {
          "internalType": "uint256",
          "name": "interestRate",
          "type": "uint256"
        },
        {
          "internalType": "uint256",
          "name": "score",
          "type": "uint256"
        }
      ],
      "stateMutability": "view",
      "type": "function"
    },
    {
      "inputs": [
        {
          "internalType": "address",
          "name": "",
          "type": "address"
        },
        {
          "internalType": "uint256",
          "name": "",
          "type": "uint256"
        }
      ],
      "name": "loans",
      "outputs": [
        {
          "internalType": "address",
          "name": "borrowerAddress",
          "type": "address"
        },
        {
          "internalType": "uint256",
          "name": "loanAmount",
          "type": "uint256"
        },
        {
          "internalType": "uint256",
          "name": "interestRate",
          "type": "uint256"
        },
        {
          "internalType": "bool",
          "name": "approved",
          "type": "bool"
        },
        {
          "internalType": "bool",
          "name": "paid",
          "type": "bool"
        },
        {
          "internalType": "uint256",
          "name": "deadline",
          "type": "uint256"
        },
        {
          "internalType": "uint256",
          "name": "score",
          "type": "uint256"
        }
      ],
      "stateMutability": "view",
      "type": "function"
    },
    {
      "inputs": [
        {
          "internalType": "address",
          "name": "_borrowerAddress",
          "type": "address"
        },
        {
          "internalType": "uint256",
          "name": "_loanId",
          "type": "uint256"
        }
      ],
      "name": "markAsPaid",
      "outputs": [],
      "stateMutability": "nonpayable",
      "type": "function"
    },
    {
      "inputs": [],
      "name": "nextLoanId",
      "outputs": [
        {
          "internalType": "uint256",
          "name": "",
          "type": "uint256"
        }
      ],
      "stateMutability": "view",
      "type": "function"
    },
    {
      "inputs": [],
      "name": "nextPendingLoanId",
      "outputs": [
        {
          "internalType": "uint256",
          "name": "",
          "type": "uint256"
        }
      ],
      "stateMutability": "view",
      "type": "function"
    },
    {
      "inputs": [
        {
          "internalType": "address",
          "name": "",
          "type": "address"
        },
        {
          "internalType": "uint256",
          "name": "",
          "type": "uint256"
        }
      ],
      "name": "pendingLoans",
      "outputs": [
        {
          "internalType": "address",
          "name": "borrowerAddress",
          "type": "address"
        },
        {
          "internalType": "uint256",
          "name": "loanAmount",
          "type": "uint256"
        },
        {
          "internalType": "uint256",
          "name": "interestRate",
          "type": "uint256"
        },
        {
          "internalType": "uint256",
          "name": "deliveryTime",
          "type": "uint256"
        },
        {
          "internalType": "uint256",
          "name": "score",
          "type": "uint256"
        }
      ],
      "stateMutability": "view",
      "type": "function"
    },
    {
      "inputs": [
        {
          "internalType": "uint256",
          "name": "_loanId",
          "type": "uint256"
        }
      ],
      "name": "repay",
      "outputs": [],
      "stateMutability": "payable",
      "type": "function"
    },
    {
      "inputs": [
        {
          "internalType": "address",
          "name": "_lenderAddress",
          "type": "address"
        },
        {
          "internalType": "uint256",
          "name": "_loanAmount",
          "type": "uint256"
        },
        {
          "internalType": "uint256",
          "name": "_interestRate",
          "type": "uint256"
        },
        {
          "internalType": "uint256",
          "name": "_deadline",
          "type": "uint256"
        }
      ],
      "name": "requestLoan",
      "outputs": [],
      "stateMutability": "nonpayable",
      "type": "function"
    }
  ],
  "bytecode": "0x608060405234801561001057600080fd5b50612c81806100206000396000f3fe6080604052600436106101525760003560e01c8063049462e714610157578063079befac146102d5578063102665461461030b578063176c149e1461032b5780632375049b1461034d57806328fd10d71461036f5780632ff9badf146103e557806332abcdbe1461041d578063371fd8e61461043f578063374f7b7e146104525780636085c7df146104ab5780636dc7962a146104cb578063709b8961146104f957806374c915d91461053457806387c51459146105c257806392c79d12146105d857806398c61c37146105f85780639cedf8b3146106aa5780639f63f5c3146106c0578063a1666b54146106e0578063a56e11bc14610702578063a9d500ed14610722578063b3a6652414610742578063bcddc0d314610762578063d00c1a5314610782578063eaf6e483146107a2578063ee24af5a146107ea578063f335ed76146107ff578063fbabd13c1461086f575b600080fd5b34801561016357600080fd5b506102d36040805160e0810182523380825260006020808401828152848601838152606086018481526080870185815260a0880186815260c0890187815297875260058087528a88206008548952909652988620885181546001600160a01b039182166001600160a01b031991821617835586516001848101919091558651600285015585516003850180548751151561010090810261ff0019941515851661ffff1993841617179092558f5160048801558d5196909b0195909555600780549283018155909a529a516006909b02600080516020612b6c833981519152810180549c9093169b9091169a909a1790559351600080516020612c0c8339815191528901559151600080516020612b4c83398151915288015551600080516020612c2c83398151915287018054925115159093029015159094169216919091179190911790559151600080516020612b0c8339815191528201559051600080516020612bec83398151915290910155565b005b3480156102e157600080fd5b506102f56102f036600461272b565b61088f565b604051610302919061279b565b60405180910390f35b34801561031757600080fd5b506102d36103263660046127e9565b610ac7565b34801561033757600080fd5b50610340610b4c565b6040516103029190612802565b34801561035957600080fd5b50610362610d90565b604051610302919061283a565b34801561037b57600080fd5b506103bb61038a36600461272b565b60006020819052908152604090208054600182015460028301546003909301546001600160a01b0390921692909184565b604080516001600160a01b0390951685526020850193909352918301526060820152608001610302565b3480156103f157600080fd5b506104056104003660046128b1565b61103c565b6040516001600160a01b039091168152602001610302565b34801561042957600080fd5b50610432611074565b60405161030291906128db565b6102d361044d3660046127e9565b611127565b34801561045e57600080fd5b5061049b61046d3660046128b1565b6001600160a01b03919091166000908152600560209081526040808320938352929052206003015460ff1690565b6040519015158152602001610302565b3480156104b757600080fd5b506103bb6104c63660046127e9565b6113d2565b3480156104d757600080fd5b506104eb6104e63660046128b1565b611416565b604051908152602001610302565b34801561050557600080fd5b5061049b61051436600461272b565b6001600160a01b0390811660009081526020819052604090205416151590565b34801561054057600080fd5b5061059061054f3660046128b1565b60026020818152600093845260408085209091529183529120805460018201549282015460038301546004909301546001600160a01b039092169392909185565b604080516001600160a01b0390961686526020860194909452928401919091526060830152608082015260a001610302565b3480156105ce57600080fd5b506104eb60085481565b3480156105e457600080fd5b506102d36105f336600461291d565b611503565b34801561060457600080fd5b506106696106133660046128b1565b600160208181526000938452604080852090915291835291208054918101546002820154600383015460048401546005909401546001600160a01b03909516949293919260ff8083169361010090930416919087565b604080516001600160a01b03909816885260208801969096529486019390935290151560608501521515608084015260a083015260c082015260e001610302565b3480156106b657600080fd5b506104eb60095481565b3480156106cc57600080fd5b506102d36106db3660046128b1565b6117a8565b3480156106ec57600080fd5b506106f5611c1b565b6040516103029190612956565b34801561070e57600080fd5b506104eb61071d3660046128b1565b611c9c565b34801561072e57600080fd5b506102f561073d36600461272b565b611ccd565b34801561074e57600080fd5b5061066961075d3660046127e9565b611f17565b34801561076e57600080fd5b506102d361077d3660046127e9565b611f75565b34801561078e57600080fd5b506102d361079d3660046128b1565b6120a9565b3480156107ae57600080fd5b5061049b6107bd36600461272b565b6001600160a01b039081166000908152600560209081526040808320600854845290915290205416151590565b3480156107f657600080fd5b50610362612242565b34801561080b57600080fd5b5061066961081a3660046128b1565b600560208181526000938452604080852090915291835291208054600182015460028301546003840154600485015494909501546001600160a01b03909316949193909260ff80841693610100900416919087565b34801561087b57600080fd5b5061049b61088a3660046127e9565b61248e565b6001600160a01b03818116600090815260208190526040902054606091166108f75760405162461bcd60e51b8152602060048201526016602482015275496e76616c6964206c656e646572206164647265737360501b60448201526064015b60405180910390fd5b6001600160a01b03821660009081526003602090815260408083208054825181850281018501909352808352919290919083018282801561095757602002820191906000526020600020905b815481526020019060010190808311610943575b50505050509050600081516001600160401b03811115610979576109796129b6565b6040519080825280602002602001820160405280156109b257816020015b61099f61268d565b8152602001906001900390816109975790505b50905060005b8251811015610abf5760008382815181106109d5576109d56129cc565b6020908102919091018101516001600160a01b03881660009081526001835260408082208383529093529190912060038101549192509060ff168015610a2557506003810154610100900460ff16155b15610aaa576040805160e08101825282546001600160a01b0316815260018301546020820152600283015491810191909152600382015460ff808216151560608401526101009091041615156080820152600482015460a0820152600582015460c08201528451859085908110610a9e57610a9e6129cc565b60200260200101819052505b50508080610ab7906129f8565b9150506109b8565b509392505050565b336000908152602081905260409020546001600160a01b0316610b375760405162461bcd60e51b815260206004820152602260248201527f4f6e6c79206c656e646572732063616e2061646420696e746572657374207261604482015261746560f01b60648201526084016108ee565b33600090815260208190526040902060020155565b33600090815260056020908152604080832060085484529091529020546060906001600160a01b0316610bcd5760405162461bcd60e51b815260206004820152602360248201527f4f6e6c7920626f72726f776572732063616e2067657420756e70616964206c6f604482015262616e7360e81b60648201526084016108ee565b336000908152600360205260408120546001600160401b03811115610bf457610bf46129b6565b604051908082528060200260200182016040528015610c1d578160200160208202803683370190505b5090506000805b33600090815260036020526040902054811015610cf557336000908152600360205260408120805483908110610c5c57610c5c6129cc565b6000918252602080832090910154338352600582526040808420828552909252912060038101549192509060ff168015610ca057506003810154610100900460ff16155b8015610caf5750806004015442105b15610ce05781858581518110610cc757610cc76129cc565b602090810291909101015283610cdc816129f8565b9450505b50508080610ced906129f8565b915050610c24565b506000816001600160401b03811115610d1057610d106129b6565b604051908082528060200260200182016040528015610d39578160200160208202803683370190505b50905060005b82811015610abf57838181518110610d5957610d596129cc565b6020026020010151828281518110610d7357610d736129cc565b602090810291909101015280610d88816129f8565b915050610d3f565b33600090815260056020908152604080832060085484529091529020546060906001600160a01b0316610e115760405162461bcd60e51b8152602060048201526024808201527f4f6e6c7920626f72726f776572732063616e206765742070656e64696e67206c6044820152636f616e7360e01b60648201526084016108ee565b336000908152600360205260408120546001600160401b03811115610e3857610e386129b6565b604051908082528060200260200182016040528015610e61578160200160208202803683370190505b5090506000805b33600090815260036020526040902054811015610f1357336000908152600360205260408120805483908110610ea057610ea06129cc565b6000918252602080832090910154338352600582526040808420828552909252912060038101549192509060ff16610efe5781858581518110610ee557610ee56129cc565b602090810291909101015283610efa816129f8565b9450505b50508080610f0b906129f8565b915050610e68565b506000816001600160401b03811115610f2e57610f2e6129b6565b604051908082528060200260200182016040528015610f6757816020015b610f546126d7565b815260200190600190039081610f4c5790505b50905060005b82811015610abf576000848281518110610f8957610f896129cc565b60209081029190910181015133600081815260028085526040808320858452865280832093835260058652808320858452865291829020825160a08101845281546001600160a01b031681526001820154968101969096529081015491850191909152600382015460608501526004820154608085015286519294509092909186908690811061101b5761101b6129cc565b60200260200101819052505050508080611034906129f8565b915050610f6d565b6004602052816000526040600020818154811061105857600080fd5b6000918252602090912001546001600160a01b03169150829050565b60606007805480602002602001604051908101604052809291908181526020016000905b8282101561111e5760008481526020908190206040805160e0810182526006860290920180546001600160a01b0316835260018082015484860152600282015492840192909252600381015460ff808216151560608601526101009091041615156080840152600481015460a08401526005015460c08301529083529092019101611098565b50505050905090565b3360009081526005602090815260408083208484529091529020546001600160a01b03166111925760405162461bcd60e51b81526020600482015260186024820152774f6e6c7920626f72726f776572732063616e20726570617960401b60448201526064016108ee565b33600090815260056020908152604080832084845290915290206003015460ff166111cf5760405162461bcd60e51b81526004016108ee90612a13565b336000908152600560209081526040808320848452909152902060030154610100900460ff16156112125760405162461bcd60e51b81526004016108ee90612a3e565b336000908152600560209081526040808320848452909152902060040154421061124e5760405162461bcd60e51b81526004016108ee90612a69565b336000908152600560209081526040808320848452909152812060028101546001909101543492916064916112839190612a9b565b61128d9190612aba565b336000908152600560209081526040808320878452909152812060010154919250906112ba908390612adc565b9050808310156113165760405162461bcd60e51b815260206004820152602160248201527f496e73756666696369656e7420616d6f756e7420746f207265706179206c6f616044820152603760f91b60648201526084016108ee565b60006113228285612af4565b9050801561135957604051339082156108fc029083906000818181858888f19350505050158015611357573d6000803e3d6000fd5b505b3360008181526005602090815260408083208984528252808320600190810154948452918390528220018054909190611393908490612adc565b90915550503360008181526005602090815260408083208984529091529020600301805461ff0019166101001790556113cb90612533565b5050505050565b600681815481106113e257600080fd5b600091825260209091206004909102018054600182015460028301546003909301546001600160a01b039092169350919084565b6001600160a01b0382811660009081526005602090815260408083208584529091528120549091166114805760405162461bcd60e51b8152602060048201526013602482015272131bd85b88191bd95cc81b9bdd08195e1a5cdd606a1b60448201526064016108ee565b6001600160a01b0383166000908152600560209081526040808320858452909152812060028101546001909101546064916114ba91612a9b565b6114c49190612aba565b6001600160a01b0385166000908152600560209081526040808320878452909152812060010154919250906114fa908390612adc565b95945050505050565b60088054906000611513836129f8565b90915550506040805160e08101825233815260208101859052908101839052600060608201819052608082015260a0810161154e8342612adc565b815260006020918201819052338082526005808452604080842060085485528552808420865181546001600160a01b0319166001600160a01b039091161781558686015160018201558682015160028201556060808801516003830180546080808c015161ffff1990921693151561ff001916939093176101009115159190910217905560a0808a0151600485015560c0909901519290940191909155815160e0810183529384529483018990528201879052928101829052918201529081016116188342612adc565b8152600060209182018190523380825260018084526040808420600880548652908652818520875181546001600160a01b03919091166001600160a01b031990911617815587870151818501558783015160028201556060808901516003808401805460808d015115156101000261ff00199415159490941661ffff19909116179290921790915560a0808b0151600485015560c0909a015160059093019290925585875290875282862091548254948501835591865294869020909201919091558051948501815290845291830186905290820184905281016116fc8342612adc565b8152600060209182018190526001600160a01b03808816808352600280855260408085206009805487529087528186208851815496166001600160a01b0319968716178155888801516001808301919091558984015194820194909455606089015160038201556080909801516004988901559285529585529483208054958601815583529282209093018054909316331790925580549161179d836129f8565b919050555050505050565b336000908152602081905260409020546001600160a01b031661180d5760405162461bcd60e51b815260206004820152601d60248201527f4f6e6c79206c656e646572732063616e20617070726f7665206c6f616e00000060448201526064016108ee565b6001600160a01b0380831660009081526005602090815260408083208584529091529020805490911661187c5760405162461bcd60e51b8152602060048201526017602482015276109bdc9c9bddd95c88191bd95cc81b9bdd08195e1a5cdd604a1b60448201526064016108ee565b600381015460ff16156118c95760405162461bcd60e51b8152602060048201526015602482015274131bd85b88185b1c9958591e48185c1c1c9bdd9959605a1b60448201526064016108ee565b3360009081526020819052604081206002015460018301546064916118ed91612a9b565b6118f79190612aba565b9050600081836001015461190b9190612adc565b336000908152602081905260409020600101549091508111156119675760405162461bcd60e51b8152602060048201526014602482015273496e73756666696369656e742062616c616e636560601b60448201526064016108ee565b3360009081526020819052604081206001018054839290611989908490612af4565b909155505060038301805460ff191660011790556000805b600754811015611a08578454600780546001600160a01b0390921691839081106119cd576119cd6129cc565b60009182526020909120600690910201546001600160a01b031614156119f65760019150611a08565b80611a00816129f8565b9150506119a1565b5080611b0457600780546001818101835560009290925285546006909102600080516020612b6c833981519152810180546001600160a01b0319166001600160a01b039093169290921790915590850154600080516020612c0c8339815191528201556002850154600080516020612b4c833981519152820155600385018054600080516020612c2c8339815191528301805460ff928316151560ff19821681178355935461010090819004909316151590920261ff001990931661ffff19909216919091179190911790556004850154600080516020612b0c8339815191528201556005850154600080516020612bec833981519152909101555b6000805b600654811015611b6a57336001600160a01b031660068281548110611b2f57611b2f6129cc565b60009182526020909120600490910201546001600160a01b03161415611b585760019150611b6a565b80611b62816129f8565b915050611b08565b5080611c125760408051608081018252338152600060208201818152928201818152606083018281526006805460018101825593529251600080516020612bcc833981519152600490930292830180546001600160a01b0319166001600160a01b039092169190911790559251600080516020612b8c8339815191528201559151600080516020612bac83398151915283015551600080516020612b2c833981519152909101555b50505050505050565b60606006805480602002602001604051908101604052809291908181526020016000905b8282101561111e576000848152602090819020604080516080810182526004860290920180546001600160a01b03168352600180820154848601526002820154928401929092526003015460608301529083529092019101611c3f565b60036020528160005260406000208181548110611cb857600080fd5b90600052602060002001600091509150505481565b6001600160a01b0381166000908152600360209081526040808320805482518185028101850190935280835260609493830182828015611d2c57602002820191906000526020600020905b815481526020019060010190808311611d18575b505050505090506000805b8251811015611db2576000838281518110611d5457611d546129cc565b6020908102919091018101516001600160a01b0388166000908152600183526040808220838352909352919091206003015490915060ff1615611d9f5782611d9b816129f8565b9350505b5080611daa816129f8565b915050611d37565b506000816001600160401b03811115611dcd57611dcd6129b6565b604051908082528060200260200182016040528015611e0657816020015b611df361268d565b815260200190600190039081611deb5790505b5090506000805b8451811015611f0c576000858281518110611e2a57611e2a6129cc565b6020908102919091018101516001600160a01b038a1660009081526001835260408082208383529093529190912060038101549192509060ff1615611ef7576040805160e08101825282546001600160a01b0316815260018301546020820152600283015491810191909152600382015460ff808216151560608401526101009091041615156080820152600482015460a0820152600582015460c08201528551869086908110611edd57611edd6129cc565b60200260200101819052508380611ef3906129f8565b9450505b50508080611f04906129f8565b915050611e0d565b509095945050505050565b60078181548110611f2757600080fd5b60009182526020909120600690910201805460018201546002830154600384015460048501546005909501546001600160a01b0390941695509193909260ff80841693610100900416919087565b336000908152602081905260409020546001600160a01b031615611fce5760405162461bcd60e51b815260206004820152601060248201526f20b63932b0b23c9030903632b73232b960811b60448201526064016108ee565b60408051608081018252338082528031602080840191825283850195865260006060850181815293815290819052938420925183546001600160a01b039182166001600160a01b03199182161785559151600180860191825596516002860190815593516003860190815560068054988901815590965293546004909602600080516020612bcc83398151915281018054909316969091169590951790559054600080516020612b8c83398151915284015554600080516020612bac83398151915283015554600080516020612b2c83398151915290910155565b6001600160a01b0382811660009081526005602090815260408083208584529091529020541633146121295760405162461bcd60e51b815260206004820152602360248201527f4f6e6c7920626f72726f7765722063616e206d61726b206c6f616e2061732070604482015262185a5960ea1b60648201526084016108ee565b6001600160a01b038216600090815260056020908152604080832084845290915290206003015460ff1661216f5760405162461bcd60e51b81526004016108ee90612a13565b6001600160a01b0382166000908152600560209081526040808320848452909152902060030154610100900460ff16156121bb5760405162461bcd60e51b81526004016108ee90612a3e565b6001600160a01b038216600090815260056020908152604080832084845290915290206004015442106122005760405162461bcd60e51b81526004016108ee90612a69565b6001600160a01b0382166000908152600560209081526040808320848452909152902060038101805461ff00191661010017905561223d83612533565b505050565b336000908152602081905260409020546060906001600160a01b03166122b55760405162461bcd60e51b815260206004820152602260248201527f4f6e6c79206c656e646572732063616e206765742070656e64696e67206c6f616044820152616e7360f01b60648201526084016108ee565b3360009081526004602090815260408083208054825181850281018501909352808352919290919083018282801561231657602002820191906000526020600020905b81546001600160a01b031681526001909101906020018083116122f8575b50505050509050600081516001600160401b03811115612338576123386129b6565b60405190808252806020026020018201604052801561237157816020015b61235e6126d7565b8152602001906001900390816123565790505b50905060005b8251811015612487576000838281518110612394576123946129cc565b6020908102919091018101516001600160a01b03811660009081526003909252604082208054919350906123ca90600190612af4565b815481106123da576123da6129cc565b60009182526020808320909101546001600160a01b038516808452600583526040808520838652845280852033865260028086528287208a8852865295829020825160a08101845293845260018201549584019590955294850154908201526003830154606082015260048301546080820152875191945090879087908110612465576124656129cc565b602002602001018190525050505050808061247f906129f8565b915050612377565b5092915050565b3360009081526005602090815260408083208484529091528120546001600160a01b031661250a5760405162461bcd60e51b8152602060048201526024808201527f4f6e6c7920626f72726f776572732063616e20636865636b206c6f616e2073746044820152636174757360e01b60648201526084016108ee565b503360009081526005602090815260408083209383529290522060030154610100900460ff1690565b6000806000805b6001600160a01b038516600090815260036020526040902054811015612633576001600160a01b0385166000908152600360205260408120805483908110612584576125846129cc565b60009182526020808320909101546001600160a01b038916835260058252604080842082855290925291206003015490915060ff61010090910416156125e457836125ce816129f8565b94505084806125dc906129f8565b955050612620565b6001600160a01b0386166000908152600560209081526040808320848452909152902060040154421115612620578261261c816129f8565b9350505b508061262b816129f8565b91505061253a565b50600082118015612642575080155b15612654576126518284612adc565b92505b600a83111561266257600a92505b50506001600160a01b0390911660009081526005602081815260408084208480529091529091200155565b6040518060e0016040528060006001600160a01b03168152602001600081526020016000815260200160001515815260200160001515815260200160008152602001600081525090565b6040518060a0016040528060006001600160a01b03168152602001600081526020016000815260200160008152602001600081525090565b80356001600160a01b038116811461272657600080fd5b919050565b60006020828403121561273d57600080fd5b6127468261270f565b9392505050565b80516001600160a01b03168252602080820151908301526040808201519083015260608082015115159083015260808082015115159083015260a0818101519083015260c090810151910152565b6020808252825182820181905260009190848201906040850190845b818110156127dd576127ca83855161274d565b9284019260e092909201916001016127b7565b50909695505050505050565b6000602082840312156127fb57600080fd5b5035919050565b6020808252825182820181905260009190848201906040850190845b818110156127dd5783518352928401929184019160010161281e565b602080825282518282018190526000919060409081850190868401855b828110156128a457815180516001600160a01b0316855286810151878601528581015186860152606080820151908601526080908101519085015260a09093019290850190600101612857565b5091979650505050505050565b600080604083850312156128c457600080fd5b6128cd8361270f565b946020939093013593505050565b6020808252825182820181905260009190848201906040850190845b818110156127dd5761290a83855161274d565b9284019260e092909201916001016128f7565b6000806000806080858703121561293357600080fd5b61293c8561270f565b966020860135965060408601359560600135945092505050565b602080825282518282018190526000919060409081850190868401855b828110156128a457815180516001600160a01b03168552868101518786015285810151868601526060908101519085015260809093019290850190600101612973565b634e487b7160e01b600052604160045260246000fd5b634e487b7160e01b600052603260045260246000fd5b634e487b7160e01b600052601160045260246000fd5b6000600019821415612a0c57612a0c6129e2565b5060010190565b602080825260119082015270131bd85b881b9bdd08185c1c1c9bdd9959607a1b604082015260600190565b602080825260119082015270131bd85b88185b1c9958591e481c185a59607a1b604082015260600190565b602080825260189082015277131bd85b881a185cc8185b1c9958591e48195e1c1a5c995960421b604082015260600190565b6000816000190483118215151615612ab557612ab56129e2565b500290565b600082612ad757634e487b7160e01b600052601260045260246000fd5b500490565b60008219821115612aef57612aef6129e2565b500190565b600082821015612b0657612b066129e2565b50039056fea66cc928b5edb82af9bd49922954155ab7b0942694bea4ce44661d9a8736c68cf652222313e28459528d920b65115c16c04f3efc82aaedc97be59f3f377c0d42a66cc928b5edb82af9bd49922954155ab7b0942694bea4ce44661d9a8736c68aa66cc928b5edb82af9bd49922954155ab7b0942694bea4ce44661d9a8736c688f652222313e28459528d920b65115c16c04f3efc82aaedc97be59f3f377c0d40f652222313e28459528d920b65115c16c04f3efc82aaedc97be59f3f377c0d41f652222313e28459528d920b65115c16c04f3efc82aaedc97be59f3f377c0d3fa66cc928b5edb82af9bd49922954155ab7b0942694bea4ce44661d9a8736c68da66cc928b5edb82af9bd49922954155ab7b0942694bea4ce44661d9a8736c689a66cc928b5edb82af9bd49922954155ab7b0942694bea4ce44661d9a8736c68ba2646970667358221220237dbca6ae8e33ef4c45867ac5e8ab0fbd79cc39759eadf8f4c0c58e6a05b11164736f6c63430008090033",
  "linkReferences": {},
  "deployedLinkReferences": {}
}