{
  "_format": "hh-sol-artifact-1",
  "contractName": "XLending",
  "sourceName": "contracts/XLending.sol",
  "abi": [
    {
      "inputs": [
        {
          "internalType": "uint256",
          "name": "_interestRate",
          "type": "uint256"
        }
      ],
      "name": "addInterestRate",
      "outputs": [],
      "stateMutability": "nonpayable",
      "type": "function"
    },
    {
      "inputs": [
        {
          "internalType": "address",
          "name": "_borrowerAddress",
          "type": "address"
        },
        {
          "internalType": "uint256",
          "name": "_loanId",
          "type": "uint256"
        }
      ],
      "name": "approveLoan",
      "outputs": [],
      "stateMutability": "nonpayable",
      "type": "function"
    },
    {
      "inputs": [],
      "name": "becomeABorrower",
      "outputs": [],
      "stateMutability": "nonpayable",
      "type": "function"
    },
    {
      "inputs": [
        {
          "internalType": "uint256",
          "name": "_interestRate",
          "type": "uint256"
        }
      ],
      "name": "becomeALender",
      "outputs": [],
      "stateMutability": "nonpayable",
      "type": "function"
    },
    {
      "inputs": [
        {
          "internalType": "uint256",
          "name": "",
          "type": "uint256"
        }
      ],
      "name": "borrowerList",
      "outputs": [
        {
          "internalType": "address",
          "name": "borrowerAddress",
          "type": "address"
        },
        {
          "internalType": "uint256",
          "name": "loanAmount",
          "type": "uint256"
        },
        {
          "internalType": "uint256",
          "name": "interestRate",
          "type": "uint256"
        },
        {
          "internalType": "bool",
          "name": "approved",
          "type": "bool"
        },
        {
          "internalType": "bool",
          "name": "paid",
          "type": "bool"
        },
        {
          "internalType": "uint256",
          "name": "deadline",
          "type": "uint256"
        },
        {
          "internalType": "uint256",
          "name": "score",
          "type": "uint256"
        }
      ],
      "stateMutability": "view",
      "type": "function"
    },
    {
      "inputs": [
        {
          "internalType": "address",
          "name": "",
          "type": "address"
        },
        {
          "internalType": "uint256",
          "name": "",
          "type": "uint256"
        }
      ],
      "name": "borrowerLoanIds",
      "outputs": [
        {
          "internalType": "uint256",
          "name": "",
          "type": "uint256"
        }
      ],
      "stateMutability": "view",
      "type": "function"
    },
    {
      "inputs": [],
      "name": "borrowerPendingLoans",
      "outputs": [
        {
          "components": [
            {
              "internalType": "address",
              "name": "borrowerAddress",
              "type": "address"
            },
            {
              "internalType": "uint256",
              "name": "loanAmount",
              "type": "uint256"
            },
            {
              "internalType": "uint256",
              "name": "interestRate",
              "type": "uint256"
            },
            {
              "internalType": "uint256",
              "name": "deliveryTime",
              "type": "uint256"
            },
            {
              "internalType": "uint256",
              "name": "score",
              "type": "uint256"
            }
          ],
          "internalType": "struct XLending.PendingLoan[]",
          "name": "",
          "type": "tuple[]"
        }
      ],
      "stateMutability": "view",
      "type": "function"
    },
    {
      "inputs": [
        {
          "internalType": "address",
          "name": "",
          "type": "address"
        },
        {
          "internalType": "uint256",
          "name": "",
          "type": "uint256"
        }
      ],
      "name": "borrowers",
      "outputs": [
        {
          "internalType": "address",
          "name": "borrowerAddress",
          "type": "address"
        },
        {
          "internalType": "uint256",
          "name": "loanAmount",
          "type": "uint256"
        },
        {
          "internalType": "uint256",
          "name": "interestRate",
          "type": "uint256"
        },
        {
          "internalType": "bool",
          "name": "approved",
          "type": "bool"
        },
        {
          "internalType": "bool",
          "name": "paid",
          "type": "bool"
        },
        {
          "internalType": "uint256",
          "name": "deadline",
          "type": "uint256"
        },
        {
          "internalType": "uint256",
          "name": "score",
          "type": "uint256"
        }
      ],
      "stateMutability": "view",
      "type": "function"
    },
    {
      "inputs": [
        {
          "internalType": "address",
          "name": "_borrowerAddress",
          "type": "address"
        },
        {
          "internalType": "uint256",
          "name": "_loanId",
          "type": "uint256"
        }
      ],
      "name": "checkLoanStatus",
      "outputs": [
        {
          "internalType": "bool",
          "name": "",
          "type": "bool"
        }
      ],
      "stateMutability": "view",
      "type": "function"
    },
    {
      "inputs": [],
      "name": "getAllBorrowers",
      "outputs": [
        {
          "components": [
            {
              "internalType": "address",
              "name": "borrowerAddress",
              "type": "address"
            },
            {
              "internalType": "uint256",
              "name": "loanAmount",
              "type": "uint256"
            },
            {
              "internalType": "uint256",
              "name": "interestRate",
              "type": "uint256"
            },
            {
              "internalType": "bool",
              "name": "approved",
              "type": "bool"
            },
            {
              "internalType": "bool",
              "name": "paid",
              "type": "bool"
            },
            {
              "internalType": "uint256",
              "name": "deadline",
              "type": "uint256"
            },
            {
              "internalType": "uint256",
              "name": "score",
              "type": "uint256"
            }
          ],
          "internalType": "struct XLending.Borrower[]",
          "name": "",
          "type": "tuple[]"
        }
      ],
      "stateMutability": "view",
      "type": "function"
    },
    {
      "inputs": [],
      "name": "getAllLenders",
      "outputs": [
        {
          "components": [
            {
              "internalType": "address",
              "name": "lenderAddress",
              "type": "address"
            },
            {
              "internalType": "uint256",
              "name": "balance",
              "type": "uint256"
            },
            {
              "internalType": "uint256",
              "name": "interestRate",
              "type": "uint256"
            },
            {
              "internalType": "uint256",
              "name": "score",
              "type": "uint256"
            }
          ],
          "internalType": "struct XLending.Lender[]",
          "name": "",
          "type": "tuple[]"
        }
      ],
      "stateMutability": "view",
      "type": "function"
    },
    {
      "inputs": [],
      "name": "getAllLoansGivenOut",
      "outputs": [
        {
          "components": [
            {
              "internalType": "address",
              "name": "borrowerAddress",
              "type": "address"
            },
            {
              "internalType": "uint256",
              "name": "loanAmount",
              "type": "uint256"
            },
            {
              "internalType": "uint256",
              "name": "interestRate",
              "type": "uint256"
            },
            {
              "internalType": "bool",
              "name": "approved",
              "type": "bool"
            },
            {
              "internalType": "bool",
              "name": "paid",
              "type": "bool"
            },
            {
              "internalType": "uint256",
              "name": "deadline",
              "type": "uint256"
            },
            {
              "internalType": "uint256",
              "name": "score",
              "type": "uint256"
            }
          ],
          "internalType": "struct XLending.Loan[]",
          "name": "",
          "type": "tuple[]"
        }
      ],
      "stateMutability": "view",
      "type": "function"
    },
    {
      "inputs": [],
      "name": "getAllUnpaidLoans",
      "outputs": [
        {
          "internalType": "uint256[]",
          "name": "",
          "type": "uint256[]"
        }
      ],
      "stateMutability": "view",
      "type": "function"
    },
    {
      "inputs": [
        {
          "internalType": "address",
          "name": "_borrowerAddress",
          "type": "address"
        },
        {
          "internalType": "uint256",
          "name": "_loanId",
          "type": "uint256"
        }
      ],
      "name": "getLoanBalance",
      "outputs": [
        {
          "internalType": "uint256",
          "name": "",
          "type": "uint256"
        }
      ],
      "stateMutability": "view",
      "type": "function"
    },
    {
      "inputs": [],
      "name": "getPendingLoans",
      "outputs": [
        {
          "components": [
            {
              "internalType": "address",
              "name": "borrowerAddress",
              "type": "address"
            },
            {
              "internalType": "uint256",
              "name": "loanAmount",
              "type": "uint256"
            },
            {
              "internalType": "uint256",
              "name": "interestRate",
              "type": "uint256"
            },
            {
              "internalType": "uint256",
              "name": "deliveryTime",
              "type": "uint256"
            },
            {
              "internalType": "uint256",
              "name": "score",
              "type": "uint256"
            }
          ],
          "internalType": "struct XLending.PendingLoan[]",
          "name": "",
          "type": "tuple[]"
        }
      ],
      "stateMutability": "view",
      "type": "function"
    },
    {
      "inputs": [
        {
          "internalType": "address",
          "name": "_address",
          "type": "address"
        }
      ],
      "name": "isBorrower",
      "outputs": [
        {
          "internalType": "bool",
          "name": "",
          "type": "bool"
        }
      ],
      "stateMutability": "view",
      "type": "function"
    },
    {
      "inputs": [
        {
          "internalType": "address",
          "name": "_address",
          "type": "address"
        }
      ],
      "name": "isLender",
      "outputs": [
        {
          "internalType": "bool",
          "name": "",
          "type": "bool"
        }
      ],
      "stateMutability": "view",
      "type": "function"
    },
    {
      "inputs": [
        {
          "internalType": "uint256",
          "name": "_loanId",
          "type": "uint256"
        }
      ],
      "name": "isLoanPaid",
      "outputs": [
        {
          "internalType": "bool",
          "name": "",
          "type": "bool"
        }
      ],
      "stateMutability": "view",
      "type": "function"
    },
    {
      "inputs": [
        {
          "internalType": "uint256",
          "name": "",
          "type": "uint256"
        }
      ],
      "name": "lenderList",
      "outputs": [
        {
          "internalType": "address",
          "name": "lenderAddress",
          "type": "address"
        },
        {
          "internalType": "uint256",
          "name": "balance",
          "type": "uint256"
        },
        {
          "internalType": "uint256",
          "name": "interestRate",
          "type": "uint256"
        },
        {
          "internalType": "uint256",
          "name": "score",
          "type": "uint256"
        }
      ],
      "stateMutability": "view",
      "type": "function"
    },
    {
      "inputs": [
        {
          "internalType": "address",
          "name": "",
          "type": "address"
        },
        {
          "internalType": "uint256",
          "name": "",
          "type": "uint256"
        }
      ],
      "name": "lenderPendingLoans",
      "outputs": [
        {
          "internalType": "address",
          "name": "",
          "type": "address"
        }
      ],
      "stateMutability": "view",
      "type": "function"
    },
    {
      "inputs": [
        {
          "internalType": "address",
          "name": "",
          "type": "address"
        }
      ],
      "name": "lenders",
      "outputs": [
        {
          "internalType": "address",
          "name": "lenderAddress",
          "type": "address"
        },
        {
          "internalType": "uint256",
          "name": "balance",
          "type": "uint256"
        },
        {
          "internalType": "uint256",
          "name": "interestRate",
          "type": "uint256"
        },
        {
          "internalType": "uint256",
          "name": "score",
          "type": "uint256"
        }
      ],
      "stateMutability": "view",
      "type": "function"
    },
    {
      "inputs": [
        {
          "internalType": "address",
          "name": "",
          "type": "address"
        },
        {
          "internalType": "uint256",
          "name": "",
          "type": "uint256"
        }
      ],
      "name": "loans",
      "outputs": [
        {
          "internalType": "address",
          "name": "borrowerAddress",
          "type": "address"
        },
        {
          "internalType": "uint256",
          "name": "loanAmount",
          "type": "uint256"
        },
        {
          "internalType": "uint256",
          "name": "interestRate",
          "type": "uint256"
        },
        {
          "internalType": "bool",
          "name": "approved",
          "type": "bool"
        },
        {
          "internalType": "bool",
          "name": "paid",
          "type": "bool"
        },
        {
          "internalType": "uint256",
          "name": "deadline",
          "type": "uint256"
        },
        {
          "internalType": "uint256",
          "name": "score",
          "type": "uint256"
        }
      ],
      "stateMutability": "view",
      "type": "function"
    },
    {
      "inputs": [
        {
          "internalType": "address",
          "name": "_borrowerAddress",
          "type": "address"
        },
        {
          "internalType": "uint256",
          "name": "_loanId",
          "type": "uint256"
        }
      ],
      "name": "markAsPaid",
      "outputs": [],
      "stateMutability": "nonpayable",
      "type": "function"
    },
    {
      "inputs": [],
      "name": "nextLoanId",
      "outputs": [
        {
          "internalType": "uint256",
          "name": "",
          "type": "uint256"
        }
      ],
      "stateMutability": "view",
      "type": "function"
    },
    {
      "inputs": [],
      "name": "nextPendingLoanId",
      "outputs": [
        {
          "internalType": "uint256",
          "name": "",
          "type": "uint256"
        }
      ],
      "stateMutability": "view",
      "type": "function"
    },
    {
      "inputs": [
        {
          "internalType": "address",
          "name": "",
          "type": "address"
        },
        {
          "internalType": "uint256",
          "name": "",
          "type": "uint256"
        }
      ],
      "name": "pendingLoans",
      "outputs": [
        {
          "internalType": "address",
          "name": "borrowerAddress",
          "type": "address"
        },
        {
          "internalType": "uint256",
          "name": "loanAmount",
          "type": "uint256"
        },
        {
          "internalType": "uint256",
          "name": "interestRate",
          "type": "uint256"
        },
        {
          "internalType": "uint256",
          "name": "deliveryTime",
          "type": "uint256"
        },
        {
          "internalType": "uint256",
          "name": "score",
          "type": "uint256"
        }
      ],
      "stateMutability": "view",
      "type": "function"
    },
    {
      "inputs": [
        {
          "internalType": "uint256",
          "name": "_loanId",
          "type": "uint256"
        }
      ],
      "name": "repay",
      "outputs": [],
      "stateMutability": "payable",
      "type": "function"
    },
    {
      "inputs": [
        {
          "internalType": "address",
          "name": "_lenderAddress",
          "type": "address"
        },
        {
          "internalType": "uint256",
          "name": "_loanAmount",
          "type": "uint256"
        },
        {
          "internalType": "uint256",
          "name": "_interestRate",
          "type": "uint256"
        },
        {
          "internalType": "uint256",
          "name": "_deadline",
          "type": "uint256"
        }
      ],
      "name": "requestLoan",
      "outputs": [],
      "stateMutability": "nonpayable",
      "type": "function"
    }
  ],
  "bytecode": "0x608060405234801561001057600080fd5b5061298b806100206000396000f3fe6080604052600436106101475760003560e01c8063049462e71461014c57806310266546146102ca578063176c149e146102ea5780632375049b1461031557806328fd10d7146103375780632ff9badf146103ad57806332abcdbe146103e5578063371fd8e614610407578063374f7b7e1461041a5780633f989b44146104735780636085c7df146104955780636dc7962a146104b5578063709b8961146104e357806374c915d91461051e57806387c51459146105ac57806392c79d12146105c257806398c61c37146105e25780639cedf8b3146106945780639f63f5c3146106aa578063a1666b54146106ca578063a56e11bc146106ec578063b3a665241461070c578063bcddc0d31461072c578063d00c1a531461074c578063eaf6e4831461076c578063ee24af5a146107b4578063f335ed76146107c9578063fbabd13c14610839575b600080fd5b34801561015857600080fd5b506102c86040805160e0810182523380825260006020808401828152848601838152606086018481526080870185815260a0880186815260c0890187815297875260058087528a88206008548952909652988620885181546001600160a01b039182166001600160a01b031991821617835586516001848101919091558651600285015585516003850180548751151561010090810261ff0019941515851661ffff1993841617179092558f5160048801558d5196909b0195909555600780549283018155909a529a516006909b02600080516020612876833981519152810180549c9093169b9091169a909a17905593516000805160206129168339815191528901559151600080516020612856833981519152880155516000805160206129368339815191528701805492511515909302901515909416921691909117919091179055915160008051602061281683398151915282015590516000805160206128f683398151915290910155565b005b3480156102d657600080fd5b506102c86102e5366004612419565b610859565b3480156102f657600080fd5b506102ff6108e3565b60405161030c9190612432565b60405180910390f35b34801561032157600080fd5b5061032a610b2f565b60405161030c9190612476565b34801561034357600080fd5b50610383610352366004612509565b60006020819052908152604090208054600182015460028301546003909301546001600160a01b0390921692909184565b604080516001600160a01b039095168552602085019390935291830152606082015260800161030c565b3480156103b957600080fd5b506103cd6103c836600461252b565b610db7565b6040516001600160a01b03909116815260200161030c565b3480156103f157600080fd5b506103fa610def565b60405161030c91906125a3565b6102c8610415366004612419565b610ea2565b34801561042657600080fd5b5061046361043536600461252b565b6001600160a01b03919091166000908152600560209081526040808320938352929052206003015460ff1690565b604051901515815260200161030c565b34801561047f57600080fd5b5061048861114d565b60405161030c91906125e5565b3480156104a157600080fd5b506103836104b0366004612419565b611370565b3480156104c157600080fd5b506104d56104d036600461252b565b6113b4565b60405190815260200161030c565b3480156104ef57600080fd5b506104636104fe366004612509565b6001600160a01b0390811660009081526020819052604090205416151590565b34801561052a57600080fd5b5061057a61053936600461252b565b60026020818152600093845260408085209091529183529120805460018201549282015460038301546004909301546001600160a01b039092169392909185565b604080516001600160a01b0390961686526020860194909452928401919091526060830152608082015260a00161030c565b3480156105b857600080fd5b506104d560085481565b3480156105ce57600080fd5b506102c86105dd366004612627565b6114a1565b3480156105ee57600080fd5b506106536105fd36600461252b565b600160208181526000938452604080852090915291835291208054918101546002820154600383015460048401546005909401546001600160a01b03909516949293919260ff8083169361010090930416919087565b604080516001600160a01b03909816885260208801969096529486019390935290151560608501521515608084015260a083015260c082015260e00161030c565b3480156106a057600080fd5b506104d560095481565b3480156106b657600080fd5b506102c86106c536600461252b565b611746565b3480156106d657600080fd5b506106df611bb9565b60405161030c9190612660565b3480156106f857600080fd5b506104d561070736600461252b565b611c3a565b34801561071857600080fd5b50610653610727366004612419565b611c6b565b34801561073857600080fd5b506102c8610747366004612419565b611cc9565b34801561075857600080fd5b506102c861076736600461252b565b611dfd565b34801561077857600080fd5b50610463610787366004612509565b6001600160a01b039081166000908152600560209081526040808320600854845290915290205416151590565b3480156107c057600080fd5b5061032a611f96565b3480156107d557600080fd5b506106536107e436600461252b565b600560208181526000938452604080852090915291835291208054600182015460028301546003840154600485015494909501546001600160a01b03909316949193909260ff80841693610100900416919087565b34801561084557600080fd5b50610463610854366004612419565b6121e2565b336000908152602081905260409020546001600160a01b03166108ce5760405162461bcd60e51b815260206004820152602260248201527f4f6e6c79206c656e646572732063616e2061646420696e746572657374207261604482015261746560f01b60648201526084015b60405180910390fd5b33600090815260208190526040902060020155565b33600090815260056020908152604080832060085484529091529020546060906001600160a01b03166109645760405162461bcd60e51b815260206004820152602360248201527f4f6e6c7920626f72726f776572732063616e2067657420756e70616964206c6f604482015262616e7360e81b60648201526084016108c5565b336000908152600360205260408120546001600160401b0381111561098b5761098b6126c0565b6040519080825280602002602001820160405280156109b4578160200160208202803683370190505b5090506000805b33600090815260036020526040902054811015610a8c573360009081526003602052604081208054839081106109f3576109f36126d6565b6000918252602080832090910154338352600582526040808420828552909252912060038101549192509060ff168015610a3757506003810154610100900460ff16155b8015610a465750806004015442105b15610a775781858581518110610a5e57610a5e6126d6565b602090810291909101015283610a7381612702565b9450505b50508080610a8490612702565b9150506109bb565b506000816001600160401b03811115610aa757610aa76126c0565b604051908082528060200260200182016040528015610ad0578160200160208202803683370190505b50905060005b82811015610b2757838181518110610af057610af06126d6565b6020026020010151828281518110610b0a57610b0a6126d6565b602090810291909101015280610b1f81612702565b915050610ad6565b509392505050565b33600090815260056020908152604080832060085484529091529020546060906001600160a01b0316610bb05760405162461bcd60e51b8152602060048201526024808201527f4f6e6c7920626f72726f776572732063616e206765742070656e64696e67206c6044820152636f616e7360e01b60648201526084016108c5565b336000908152600360205260408120546001600160401b03811115610bd757610bd76126c0565b604051908082528060200260200182016040528015610c00578160200160208202803683370190505b5090506000805b33600090815260036020526040902054811015610cb257336000908152600360205260408120805483908110610c3f57610c3f6126d6565b6000918252602080832090910154338352600582526040808420828552909252912060038101549192509060ff16610c9d5781858581518110610c8457610c846126d6565b602090810291909101015283610c9981612702565b9450505b50508080610caa90612702565b915050610c07565b506000816001600160401b03811115610ccd57610ccd6126c0565b604051908082528060200260200182016040528015610d0657816020015b610cf36123e1565b815260200190600190039081610ceb5790505b50905060005b82811015610b27576000848281518110610d2857610d286126d6565b60209081029190910181015133600081815260028085526040808320858452865291829020825160a081018452938452600181015495840195909552840154908201526003830154606082015260048301546080820152855191935090859085908110610d9757610d976126d6565b602002602001018190525050508080610daf90612702565b915050610d0c565b60046020528160005260406000208181548110610dd357600080fd5b6000918252602090912001546001600160a01b03169150829050565b60606007805480602002602001604051908101604052809291908181526020016000905b82821015610e995760008481526020908190206040805160e0810182526006860290920180546001600160a01b0316835260018082015484860152600282015492840192909252600381015460ff808216151560608601526101009091041615156080840152600481015460a08401526005015460c08301529083529092019101610e13565b50505050905090565b3360009081526005602090815260408083208484529091529020546001600160a01b0316610f0d5760405162461bcd60e51b81526020600482015260186024820152774f6e6c7920626f72726f776572732063616e20726570617960401b60448201526064016108c5565b33600090815260056020908152604080832084845290915290206003015460ff16610f4a5760405162461bcd60e51b81526004016108c59061271d565b336000908152600560209081526040808320848452909152902060030154610100900460ff1615610f8d5760405162461bcd60e51b81526004016108c590612748565b3360009081526005602090815260408083208484529091529020600401544210610fc95760405162461bcd60e51b81526004016108c590612773565b33600090815260056020908152604080832084845290915281206002810154600190910154349291606491610ffe91906127a5565b61100891906127c4565b336000908152600560209081526040808320878452909152812060010154919250906110359083906127e6565b9050808310156110915760405162461bcd60e51b815260206004820152602160248201527f496e73756666696369656e7420616d6f756e7420746f207265706179206c6f616044820152603760f91b60648201526084016108c5565b600061109d82856127fe565b905080156110d457604051339082156108fc029083906000818181858888f193505050501580156110d2573d6000803e3d6000fd5b505b336000818152600560209081526040808320898452825280832060019081015494845291839052822001805490919061110e9084906127e6565b90915550503360008181526005602090815260408083208984529091529020600301805461ff00191661010017905561114690612287565b5050505050565b336000908152602081905260409020546060906001600160a01b03166111b55760405162461bcd60e51b815260206004820181905260248201527f4f6e6c79206c656e646572732063616e20676574207468656972206c6f616e7360448201526064016108c5565b6007546000906001600160401b038111156111d2576111d26126c0565b60405190808252806020026020018201604052801561125057816020015b61123d6040518060e0016040528060006001600160a01b03168152602001600081526020016000815260200160001515815260200160001515815260200160008152602001600081525090565b8152602001906001900390816111f05790505b5090506000805b60075481101561136857600060078281548110611276576112766126d6565b60009182526020909120600690910201600381015490915060ff1680156112a757506003810154610100900460ff16155b156113555780546001600160a01b03166000818152600160208181526040808420878552825292839020835160e0810185529485529182015490840152600281015491830191909152600381015460ff808216151560608501526101009091041615156080830152600481015460a0830152600581015460c0830152855190919086908690811061133a5761133a6126d6565b6020026020010181905250838061135090612702565b945050505b508061136081612702565b915050611257565b509092915050565b6006818154811061138057600080fd5b600091825260209091206004909102018054600182015460028301546003909301546001600160a01b039092169350919084565b6001600160a01b03828116600090815260056020908152604080832085845290915281205490911661141e5760405162461bcd60e51b8152602060048201526013602482015272131bd85b88191bd95cc81b9bdd08195e1a5cdd606a1b60448201526064016108c5565b6001600160a01b038316600090815260056020908152604080832085845290915281206002810154600190910154606491611458916127a5565b61146291906127c4565b6001600160a01b0385166000908152600560209081526040808320878452909152812060010154919250906114989083906127e6565b95945050505050565b600880549060006114b183612702565b90915550506040805160e08101825233815260208101859052908101839052600060608201819052608082015260a081016114ec83426127e6565b815260006020918201819052338082526005808452604080842060085485528552808420865181546001600160a01b0319166001600160a01b039091161781558686015160018201558682015160028201556060808801516003830180546080808c015161ffff1990921693151561ff001916939093176101009115159190910217905560a0808a0151600485015560c0909901519290940191909155815160e0810183529384529483018990528201879052928101829052918201529081016115b683426127e6565b8152600060209182018190523380825260018084526040808420600880548652908652818520875181546001600160a01b03919091166001600160a01b031990911617815587870151818501558783015160028201556060808901516003808401805460808d015115156101000261ff00199415159490941661ffff19909116179290921790915560a0808b0151600485015560c0909a0151600590930192909255858752908752828620915482549485018355918652948690209092019190915580519485018152908452918301869052908201849052810161169a83426127e6565b8152600060209182018190526001600160a01b03808816808352600280855260408085206009805487529087528186208851815496166001600160a01b0319968716178155888801516001808301919091558984015194820194909455606089015160038201556080909801516004988901559285529585529483208054958601815583529282209093018054909316331790925580549161173b83612702565b919050555050505050565b336000908152602081905260409020546001600160a01b03166117ab5760405162461bcd60e51b815260206004820152601d60248201527f4f6e6c79206c656e646572732063616e20617070726f7665206c6f616e00000060448201526064016108c5565b6001600160a01b0380831660009081526005602090815260408083208584529091529020805490911661181a5760405162461bcd60e51b8152602060048201526017602482015276109bdc9c9bddd95c88191bd95cc81b9bdd08195e1a5cdd604a1b60448201526064016108c5565b600381015460ff16156118675760405162461bcd60e51b8152602060048201526015602482015274131bd85b88185b1c9958591e48185c1c1c9bdd9959605a1b60448201526064016108c5565b33600090815260208190526040812060020154600183015460649161188b916127a5565b61189591906127c4565b905060008183600101546118a991906127e6565b336000908152602081905260409020600101549091508111156119055760405162461bcd60e51b8152602060048201526014602482015273496e73756666696369656e742062616c616e636560601b60448201526064016108c5565b33600090815260208190526040812060010180548392906119279084906127fe565b909155505060038301805460ff191660011790556000805b6007548110156119a6578454600780546001600160a01b03909216918390811061196b5761196b6126d6565b60009182526020909120600690910201546001600160a01b0316141561199457600191506119a6565b8061199e81612702565b91505061193f565b5080611aa257600780546001818101835560009290925285546006909102600080516020612876833981519152810180546001600160a01b0319166001600160a01b03909316929092179091559085015460008051602061291683398151915282015560028501546000805160206128568339815191528201556003850180546000805160206129368339815191528301805460ff928316151560ff19821681178355935461010090819004909316151590920261ff001990931661ffff1990921691909117919091179055600485015460008051602061281683398151915282015560058501546000805160206128f6833981519152909101555b6000805b600654811015611b0857336001600160a01b031660068281548110611acd57611acd6126d6565b60009182526020909120600490910201546001600160a01b03161415611af65760019150611b08565b80611b0081612702565b915050611aa6565b5080611bb057604080516080810182523381526000602082018181529282018181526060830182815260068054600181018255935292516000805160206128d6833981519152600490930292830180546001600160a01b0319166001600160a01b03909216919091179055925160008051602061289683398151915282015591516000805160206128b683398151915283015551600080516020612836833981519152909101555b50505050505050565b60606006805480602002602001604051908101604052809291908181526020016000905b82821015610e99576000848152602090819020604080516080810182526004860290920180546001600160a01b03168352600180820154848601526002820154928401929092526003015460608301529083529092019101611bdd565b60036020528160005260406000208181548110611c5657600080fd5b90600052602060002001600091509150505481565b60078181548110611c7b57600080fd5b60009182526020909120600690910201805460018201546002830154600384015460048501546005909501546001600160a01b0390941695509193909260ff80841693610100900416919087565b336000908152602081905260409020546001600160a01b031615611d225760405162461bcd60e51b815260206004820152601060248201526f20b63932b0b23c9030903632b73232b960811b60448201526064016108c5565b60408051608081018252338082528031602080840191825283850195865260006060850181815293815290819052938420925183546001600160a01b039182166001600160a01b031991821617855591516001808601918255965160028601908155935160038601908155600680549889018155909652935460049096026000805160206128d683398151915281018054909316969091169590951790559054600080516020612896833981519152840155546000805160206128b68339815191528301555460008051602061283683398151915290910155565b6001600160a01b038281166000908152600560209081526040808320858452909152902054163314611e7d5760405162461bcd60e51b815260206004820152602360248201527f4f6e6c7920626f72726f7765722063616e206d61726b206c6f616e2061732070604482015262185a5960ea1b60648201526084016108c5565b6001600160a01b038216600090815260056020908152604080832084845290915290206003015460ff16611ec35760405162461bcd60e51b81526004016108c59061271d565b6001600160a01b0382166000908152600560209081526040808320848452909152902060030154610100900460ff1615611f0f5760405162461bcd60e51b81526004016108c590612748565b6001600160a01b03821660009081526005602090815260408083208484529091529020600401544210611f545760405162461bcd60e51b81526004016108c590612773565b6001600160a01b0382166000908152600560209081526040808320848452909152902060038101805461ff001916610100179055611f9183612287565b505050565b336000908152602081905260409020546060906001600160a01b03166120095760405162461bcd60e51b815260206004820152602260248201527f4f6e6c79206c656e646572732063616e206765742070656e64696e67206c6f616044820152616e7360f01b60648201526084016108c5565b3360009081526004602090815260408083208054825181850281018501909352808352919290919083018282801561206a57602002820191906000526020600020905b81546001600160a01b0316815260019091019060200180831161204c575b50505050509050600081516001600160401b0381111561208c5761208c6126c0565b6040519080825280602002602001820160405280156120c557816020015b6120b26123e1565b8152602001906001900390816120aa5790505b50905060005b82518110156121db5760008382815181106120e8576120e86126d6565b6020908102919091018101516001600160a01b038116600090815260039092526040822080549193509061211e906001906127fe565b8154811061212e5761212e6126d6565b60009182526020808320909101546001600160a01b038516808452600583526040808520838652845280852033865260028086528287208a8852865295829020825160a081018452938452600182015495840195909552948501549082015260038301546060820152600483015460808201528751919450908790879081106121b9576121b96126d6565b60200260200101819052505050505080806121d390612702565b9150506120cb565b5092915050565b3360009081526005602090815260408083208484529091528120546001600160a01b031661225e5760405162461bcd60e51b8152602060048201526024808201527f4f6e6c7920626f72726f776572732063616e20636865636b206c6f616e2073746044820152636174757360e01b60648201526084016108c5565b503360009081526005602090815260408083209383529290522060030154610100900460ff1690565b6000806000805b6001600160a01b038516600090815260036020526040902054811015612387576001600160a01b03851660009081526003602052604081208054839081106122d8576122d86126d6565b60009182526020808320909101546001600160a01b038916835260058252604080842082855290925291206003015490915060ff6101009091041615612338578361232281612702565b945050848061233090612702565b955050612374565b6001600160a01b0386166000908152600560209081526040808320848452909152902060040154421115612374578261237081612702565b9350505b508061237f81612702565b91505061228e565b50600082118015612396575080155b156123a8576123a582846127e6565b92505b600a8311156123b657600a92505b50506001600160a01b0390911660009081526005602081815260408084208480529091529091200155565b6040518060a0016040528060006001600160a01b03168152602001600081526020016000815260200160008152602001600081525090565b60006020828403121561242b57600080fd5b5035919050565b6020808252825182820181905260009190848201906040850190845b8181101561246a5783518352928401929184019160010161244e565b50909695505050505050565b602080825282518282018190526000919060409081850190868401855b828110156124e057815180516001600160a01b0316855286810151878601528581015186860152606080820151908601526080908101519085015260a09093019290850190600101612493565b5091979650505050505050565b80356001600160a01b038116811461250457600080fd5b919050565b60006020828403121561251b57600080fd5b612524826124ed565b9392505050565b6000806040838503121561253e57600080fd5b612547836124ed565b946020939093013593505050565b80516001600160a01b03168252602080820151908301526040808201519083015260608082015115159083015260808082015115159083015260a0818101519083015260c090810151910152565b6020808252825182820181905260009190848201906040850190845b8181101561246a576125d2838551612555565b9284019260e092909201916001016125bf565b6020808252825182820181905260009190848201906040850190845b8181101561246a57612614838551612555565b9284019260e09290920191600101612601565b6000806000806080858703121561263d57600080fd5b612646856124ed565b966020860135965060408601359560600135945092505050565b602080825282518282018190526000919060409081850190868401855b828110156124e057815180516001600160a01b0316855286810151878601528581015186860152606090810151908501526080909301929085019060010161267d565b634e487b7160e01b600052604160045260246000fd5b634e487b7160e01b600052603260045260246000fd5b634e487b7160e01b600052601160045260246000fd5b6000600019821415612716576127166126ec565b5060010190565b602080825260119082015270131bd85b881b9bdd08185c1c1c9bdd9959607a1b604082015260600190565b602080825260119082015270131bd85b88185b1c9958591e481c185a59607a1b604082015260600190565b602080825260189082015277131bd85b881a185cc8185b1c9958591e48195e1c1a5c995960421b604082015260600190565b60008160001904831182151516156127bf576127bf6126ec565b500290565b6000826127e157634e487b7160e01b600052601260045260246000fd5b500490565b600082198211156127f9576127f96126ec565b500190565b600082821015612810576128106126ec565b50039056fea66cc928b5edb82af9bd49922954155ab7b0942694bea4ce44661d9a8736c68cf652222313e28459528d920b65115c16c04f3efc82aaedc97be59f3f377c0d42a66cc928b5edb82af9bd49922954155ab7b0942694bea4ce44661d9a8736c68aa66cc928b5edb82af9bd49922954155ab7b0942694bea4ce44661d9a8736c688f652222313e28459528d920b65115c16c04f3efc82aaedc97be59f3f377c0d40f652222313e28459528d920b65115c16c04f3efc82aaedc97be59f3f377c0d41f652222313e28459528d920b65115c16c04f3efc82aaedc97be59f3f377c0d3fa66cc928b5edb82af9bd49922954155ab7b0942694bea4ce44661d9a8736c68da66cc928b5edb82af9bd49922954155ab7b0942694bea4ce44661d9a8736c689a66cc928b5edb82af9bd49922954155ab7b0942694bea4ce44661d9a8736c68ba26469706673582212200fc802d8da3a194ce0716b1f15cc105d60b96446dc77fe6980b114f1c4ac23d564736f6c63430008090033",
  "linkReferences": {},
  "deployedLinkReferences": {}
}