{
  "_format": "hh-sol-artifact-1",
  "contractName": "XLending",
  "sourceName": "contracts/XLending.sol",
  "abi": [
    {
      "inputs": [
        {
          "internalType": "uint256",
          "name": "_interestRate",
          "type": "uint256"
        }
      ],
      "name": "addInterestRate",
      "outputs": [],
      "stateMutability": "nonpayable",
      "type": "function"
    },
    {
      "inputs": [
        {
          "internalType": "address",
          "name": "_borrowerAddress",
          "type": "address"
        },
        {
          "internalType": "uint256",
          "name": "_loanId",
          "type": "uint256"
        }
      ],
      "name": "approveLoan",
      "outputs": [],
      "stateMutability": "nonpayable",
      "type": "function"
    },
    {
      "inputs": [],
      "name": "becomeABorrower",
      "outputs": [],
      "stateMutability": "nonpayable",
      "type": "function"
    },
    {
      "inputs": [],
      "name": "becomeALender",
      "outputs": [],
      "stateMutability": "nonpayable",
      "type": "function"
    },
    {
      "inputs": [
        {
          "internalType": "uint256",
          "name": "",
          "type": "uint256"
        }
      ],
      "name": "borrowerList",
      "outputs": [
        {
          "internalType": "address",
          "name": "",
          "type": "address"
        }
      ],
      "stateMutability": "view",
      "type": "function"
    },
    {
      "inputs": [
        {
          "internalType": "address",
          "name": "",
          "type": "address"
        },
        {
          "internalType": "uint256",
          "name": "",
          "type": "uint256"
        }
      ],
      "name": "borrowerLoanIds",
      "outputs": [
        {
          "internalType": "uint256",
          "name": "",
          "type": "uint256"
        }
      ],
      "stateMutability": "view",
      "type": "function"
    },
    {
      "inputs": [
        {
          "internalType": "address",
          "name": "",
          "type": "address"
        },
        {
          "internalType": "uint256",
          "name": "",
          "type": "uint256"
        }
      ],
      "name": "borrowers",
      "outputs": [
        {
          "internalType": "address",
          "name": "borrowerAddress",
          "type": "address"
        },
        {
          "internalType": "uint256",
          "name": "loanAmount",
          "type": "uint256"
        },
        {
          "internalType": "uint256",
          "name": "interestRate",
          "type": "uint256"
        },
        {
          "internalType": "bool",
          "name": "approved",
          "type": "bool"
        },
        {
          "internalType": "bool",
          "name": "paid",
          "type": "bool"
        },
        {
          "internalType": "uint256",
          "name": "deadline",
          "type": "uint256"
        },
        {
          "internalType": "uint256",
          "name": "score",
          "type": "uint256"
        }
      ],
      "stateMutability": "view",
      "type": "function"
    },
    {
      "inputs": [],
      "name": "getAllBorrowers",
      "outputs": [
        {
          "internalType": "address[]",
          "name": "",
          "type": "address[]"
        }
      ],
      "stateMutability": "view",
      "type": "function"
    },
    {
      "inputs": [],
      "name": "getAllLenders",
      "outputs": [
        {
          "internalType": "address[]",
          "name": "",
          "type": "address[]"
        }
      ],
      "stateMutability": "view",
      "type": "function"
    },
    {
      "inputs": [],
      "name": "getAllUnpaidLoans",
      "outputs": [
        {
          "internalType": "uint256[]",
          "name": "",
          "type": "uint256[]"
        }
      ],
      "stateMutability": "view",
      "type": "function"
    },
    {
      "inputs": [],
      "name": "getPendingLoans",
      "outputs": [
        {
          "internalType": "address[]",
          "name": "",
          "type": "address[]"
        }
      ],
      "stateMutability": "view",
      "type": "function"
    },
    {
      "inputs": [
        {
          "internalType": "address",
          "name": "_address",
          "type": "address"
        }
      ],
      "name": "isBorrower",
      "outputs": [
        {
          "internalType": "bool",
          "name": "",
          "type": "bool"
        }
      ],
      "stateMutability": "view",
      "type": "function"
    },
    {
      "inputs": [
        {
          "internalType": "address",
          "name": "_address",
          "type": "address"
        }
      ],
      "name": "isLender",
      "outputs": [
        {
          "internalType": "bool",
          "name": "",
          "type": "bool"
        }
      ],
      "stateMutability": "view",
      "type": "function"
    },
    {
      "inputs": [
        {
          "internalType": "uint256",
          "name": "_loanId",
          "type": "uint256"
        }
      ],
      "name": "isLoanPaid",
      "outputs": [
        {
          "internalType": "bool",
          "name": "",
          "type": "bool"
        }
      ],
      "stateMutability": "view",
      "type": "function"
    },
    {
      "inputs": [
        {
          "internalType": "uint256",
          "name": "",
          "type": "uint256"
        }
      ],
      "name": "lenderList",
      "outputs": [
        {
          "internalType": "address",
          "name": "",
          "type": "address"
        }
      ],
      "stateMutability": "view",
      "type": "function"
    },
    {
      "inputs": [
        {
          "internalType": "address",
          "name": "",
          "type": "address"
        }
      ],
      "name": "lenders",
      "outputs": [
        {
          "internalType": "address",
          "name": "lenderAddress",
          "type": "address"
        },
        {
          "internalType": "uint256",
          "name": "balance",
          "type": "uint256"
        },
        {
          "internalType": "uint256",
          "name": "interestRate",
          "type": "uint256"
        },
        {
          "internalType": "uint256",
          "name": "score",
          "type": "uint256"
        }
      ],
      "stateMutability": "view",
      "type": "function"
    },
    {
      "inputs": [
        {
          "internalType": "address",
          "name": "_borrowerAddress",
          "type": "address"
        },
        {
          "internalType": "uint256",
          "name": "_loanId",
          "type": "uint256"
        }
      ],
      "name": "markAsPaid",
      "outputs": [],
      "stateMutability": "nonpayable",
      "type": "function"
    },
    {
      "inputs": [],
      "name": "nextLoanId",
      "outputs": [
        {
          "internalType": "uint256",
          "name": "",
          "type": "uint256"
        }
      ],
      "stateMutability": "view",
      "type": "function"
    },
    {
      "inputs": [
        {
          "internalType": "address",
          "name": "",
          "type": "address"
        },
        {
          "internalType": "uint256",
          "name": "",
          "type": "uint256"
        }
      ],
      "name": "pendingLoans",
      "outputs": [
        {
          "internalType": "address",
          "name": "",
          "type": "address"
        }
      ],
      "stateMutability": "view",
      "type": "function"
    },
    {
      "inputs": [
        {
          "internalType": "uint256",
          "name": "_loanId",
          "type": "uint256"
        }
      ],
      "name": "repay",
      "outputs": [],
      "stateMutability": "payable",
      "type": "function"
    },
    {
      "inputs": [
        {
          "internalType": "address",
          "name": "_lenderAddress",
          "type": "address"
        },
        {
          "internalType": "uint256",
          "name": "_loanAmount",
          "type": "uint256"
        },
        {
          "internalType": "uint256",
          "name": "_interestRate",
          "type": "uint256"
        },
        {
          "internalType": "uint256",
          "name": "_deadline",
          "type": "uint256"
        }
      ],
      "name": "requestLoan",
      "outputs": [],
      "stateMutability": "nonpayable",
      "type": "function"
    }
  ],
  "bytecode": "0x608060405234801561001057600080fd5b506118e2806100206000396000f3fe6080604052600436106100fa5760003560e01c8063049462e7146100ff5780631026654614610116578063176c149e1461013657806328fd10d71461016157806332abcdbe146101d7578063371fd8e6146101f95780636085c7df1461020c578063709b89611461024457806374c915d91461028f5780637a0f860a146102af57806387c51459146102c457806392c79d12146102e85780639f63f5c314610308578063a1666b5414610328578063a56e11bc1461033d578063b3a665241461035d578063d00c1a531461037d578063eaf6e4831461039d578063ee24af5a146103e5578063f335ed76146103fa578063fbabd13c146104ac575b600080fd5b34801561010b57600080fd5b506101146104cc565b005b34801561012257600080fd5b506101146101313660046115f8565b610612565b34801561014257600080fd5b5061014b610697565b6040516101589190611611565b60405180910390f35b34801561016d57600080fd5b506101ad61017c366004611671565b60006020819052908152604090208054600182015460028301546003909301546001600160a01b0390921692909184565b604080516001600160a01b0390951685526020850193909352918301526060820152608001610158565b3480156101e357600080fd5b506101ec6108e3565b6040516101589190611693565b6101146102073660046115f8565b610945565b34801561021857600080fd5b5061022c6102273660046115f8565b610be8565b6040516001600160a01b039091168152602001610158565b34801561025057600080fd5b5061027f61025f366004611671565b6001600160a01b0390811660009081526020819052604090205416151590565b6040519015158152602001610158565b34801561029b57600080fd5b5061022c6102aa3660046116d4565b610c12565b3480156102bb57600080fd5b50610114610c4a565b3480156102d057600080fd5b506102da60065481565b604051908152602001610158565b3480156102f457600080fd5b506101146103033660046116fe565b610d01565b34801561031457600080fd5b506101146103233660046116d4565b610eac565b34801561033457600080fd5b506101ec6110e4565b34801561034957600080fd5b506102da6103583660046116d4565b611144565b34801561036957600080fd5b5061022c6103783660046115f8565b611175565b34801561038957600080fd5b506101146103983660046116d4565b611185565b3480156103a957600080fd5b5061027f6103b8366004611671565b6001600160a01b039081166000908152600160209081526040808320600654845290915290205416151590565b3480156103f157600080fd5b506101ec61131e565b34801561040657600080fd5b5061046b6104153660046116d4565b600160208181526000938452604080852090915291835291208054918101546002820154600383015460048401546005909401546001600160a01b03909516949293919260ff8083169361010090930416919087565b604080516001600160a01b03909816885260208801969096529486019390935290151560608501521515608084015260a083015260c082015260e001610158565b3480156104b857600080fd5b5061027f6104c73660046115f8565b6113f8565b33600090815260016020908152604080832060065484529091529020546001600160a01b0316156105395760405162461bcd60e51b815260206004820152601260248201527120b63932b0b23c9030903137b93937bbb2b960711b60448201526064015b60405180910390fd5b6040805160e0810182523380825260006020808401828152848601838152606086018481526080870185815260a0880186815260c0890187815288885260018088528b89206006548a52909752998720985189546001600160a01b03919091166001600160a01b0319918216178a55945189870155925160028901559051600388018054925115156101000261ff00199215159290921661ffff199093169290921717905551600486015594516005948501558354908101845592905260008051602061188d8339815191529091018054909216179055565b336000908152602081905260409020546001600160a01b03166106825760405162461bcd60e51b815260206004820152602260248201527f4f6e6c79206c656e646572732063616e2061646420696e746572657374207261604482015261746560f01b6064820152608401610530565b33600090815260208190526040902060020155565b33600090815260016020908152604080832060065484529091529020546060906001600160a01b03166107185760405162461bcd60e51b815260206004820152602360248201527f4f6e6c7920626f72726f776572732063616e2067657420756e70616964206c6f604482015262616e7360e81b6064820152608401610530565b336000908152600260205260408120546001600160401b0381111561073f5761073f611737565b604051908082528060200260200182016040528015610768578160200160208202803683370190505b5090506000805b33600090815260026020526040902054811015610840573360009081526002602052604081208054839081106107a7576107a761174d565b6000918252602080832090910154338352600182526040808420828552909252912060038101549192509060ff1680156107eb57506003810154610100900460ff16155b80156107fa5750806004015442105b1561082b57818585815181106108125761081261174d565b60209081029190910101528361082781611779565b9450505b5050808061083890611779565b91505061076f565b506000816001600160401b0381111561085b5761085b611737565b604051908082528060200260200182016040528015610884578160200160208202803683370190505b50905060005b828110156108db578381815181106108a4576108a461174d565b60200260200101518282815181106108be576108be61174d565b6020908102919091010152806108d381611779565b91505061088a565b509392505050565b6060600580548060200260200160405190810160405280929190818152602001828054801561093b57602002820191906000526020600020905b81546001600160a01b0316815260019091019060200180831161091d575b5050505050905090565b3360009081526001602090815260408083208484529091529020546001600160a01b03166109b05760405162461bcd60e51b81526020600482015260186024820152774f6e6c7920626f72726f776572732063616e20726570617960401b6044820152606401610530565b33600090815260016020908152604080832084845290915290206003015460ff166109ed5760405162461bcd60e51b815260040161053090611794565b336000908152600160209081526040808320848452909152902060030154610100900460ff1615610a305760405162461bcd60e51b8152600401610530906117bf565b3360009081526001602090815260408083208484529091529020600401544210610a6c5760405162461bcd60e51b8152600401610530906117ea565b33600090815260016020818152604080842085855290915282206002810154910154349291606491610a9e919061181c565b610aa8919061183b565b3360009081526001602081815260408084208885529091528220015491925090610ad390839061185d565b905080831015610b2f5760405162461bcd60e51b815260206004820152602160248201527f496e73756666696369656e7420616d6f756e7420746f207265706179206c6f616044820152603760f91b6064820152608401610530565b6000610b3b8285611875565b90508015610b7257604051339082156108fc029083906000818181858888f19350505050158015610b70573d6000803e3d6000fd5b505b3360008181526001602081815260408084208a85528252808420830154948452908390528220018054909190610ba990849061185d565b90915550503360008181526001602090815260408083208984529091529020600301805461ff001916610100179055610be19061149d565b5050505050565b60048181548110610bf857600080fd5b6000918252602090912001546001600160a01b0316905081565b60036020528160005260406000208181548110610c2e57600080fd5b6000918252602090912001546001600160a01b03169150829050565b336000908152602081905260409020546001600160a01b031615610ca35760405162461bcd60e51b815260206004820152601060248201526f20b63932b0b23c9030903632b73232b960811b6044820152606401610530565b33600081815260208190526040812080546001600160a01b031990811684179091556004805460018101825592527f8a35acfbc15ff81a39ae7d344fd709f28e8600b4aa8c65c6b64bfe7fe36bd19b90910180549091169091179055565b33600090815260016020908152604080832060065484529091529020546001600160a01b031615610d745760405162461bcd60e51b815260206004820152601f60248201527f4f6e6c7920626f72726f776572732063616e2072657175657374206c6f616e006044820152606401610530565b60068054906000610d8483611779565b90915550506040805160e08101825233815260208101859052908101839052600060608201819052608082018190529060a08101610dc2844261185d565b8152600060209182018190523380825260018084526040808420600680548652908652818520875181546001600160a01b039182166001600160a01b03199182161783558989015183870155848a015160028085019190915560608b01516003808601805460808f015115156101000261ff00199415159490941661ffff19909116179290921790915560a08c0151600486015560c0909b0151600590940193909355868852918852838720925483548087018555938852888820909301929092559b16845294845293822080549485018155825291902090910180549096161790945550505050565b336000908152602081905260409020546001600160a01b0316610f115760405162461bcd60e51b815260206004820152601d60248201527f4f6e6c79206c656e646572732063616e20617070726f7665206c6f616e0000006044820152606401610530565b6001600160a01b03808316600090815260016020908152604080832085845290915290208054909116610f805760405162461bcd60e51b8152602060048201526017602482015276109bdc9c9bddd95c88191bd95cc81b9bdd08195e1a5cdd604a1b6044820152606401610530565b600381015460ff1615610fcd5760405162461bcd60e51b8152602060048201526015602482015274131bd85b88185b1c9958591e48185c1c1c9bdd9959605a1b6044820152606401610530565b336000908152602081905260408120600201546001830154606491610ff19161181c565b610ffb919061183b565b9050600081836001015461100f919061185d565b3360009081526020819052604090206001015490915081111561106b5760405162461bcd60e51b8152602060048201526014602482015273496e73756666696369656e742062616c616e636560601b6044820152606401610530565b336000908152602081905260408120600101805483929061108d908490611875565b909155505050506003018054600160ff19909116811790915560058054918201815560005260008051602061188d8339815191520180546001600160a01b0319166001600160a01b03939093169290921790915550565b6060600480548060200260200160405190810160405280929190818152602001828054801561093b576020028201919060005260206000209081546001600160a01b0316815260019091019060200180831161091d575050505050905090565b6002602052816000526040600020818154811061116057600080fd5b90600052602060002001600091509150505481565b60058181548110610bf857600080fd5b6001600160a01b0382811660009081526001602090815260408083208584529091529020541633146112055760405162461bcd60e51b815260206004820152602360248201527f4f6e6c7920626f72726f7765722063616e206d61726b206c6f616e2061732070604482015262185a5960ea1b6064820152608401610530565b6001600160a01b038216600090815260016020908152604080832084845290915290206003015460ff1661124b5760405162461bcd60e51b815260040161053090611794565b6001600160a01b0382166000908152600160209081526040808320848452909152902060030154610100900460ff16156112975760405162461bcd60e51b8152600401610530906117bf565b6001600160a01b038216600090815260016020908152604080832084845290915290206004015442106112dc5760405162461bcd60e51b8152600401610530906117ea565b6001600160a01b0382166000908152600160209081526040808320848452909152902060038101805461ff0019166101001790556113198361149d565b505050565b336000908152602081905260409020546060906001600160a01b03166113915760405162461bcd60e51b815260206004820152602260248201527f4f6e6c79206c656e646572732063616e206765742070656e64696e67206c6f616044820152616e7360f01b6064820152608401610530565b336000908152600360209081526040918290208054835181840281018401909452808452909183018282801561093b576020028201919060005260206000209081546001600160a01b0316815260019091019060200180831161091d575050505050905090565b3360009081526001602090815260408083208484529091528120546001600160a01b03166114745760405162461bcd60e51b8152602060048201526024808201527f4f6e6c7920626f72726f776572732063616e20636865636b206c6f616e2073746044820152636174757360e01b6064820152608401610530565b503360009081526001602090815260408083209383529290522060030154610100900460ff1690565b6000806000805b6001600160a01b03851660009081526002602052604090205481101561159d576001600160a01b03851660009081526002602052604081208054839081106114ee576114ee61174d565b60009182526020808320909101546001600160a01b038916835260018252604080842082855290925291206003015490915060ff610100909104161561154e578361153881611779565b945050848061154690611779565b95505061158a565b6001600160a01b038616600090815260016020908152604080832084845290915290206004015442111561158a578261158681611779565b9350505b508061159581611779565b9150506114a4565b506000821180156115ac575080155b156115be576115bb828461185d565b92505b600a8311156115cc57600a92505b50506001600160a01b039091166000908152600160209081526040808320838052909152902060050155565b60006020828403121561160a57600080fd5b5035919050565b6020808252825182820181905260009190848201906040850190845b818110156116495783518352928401929184019160010161162d565b50909695505050505050565b80356001600160a01b038116811461166c57600080fd5b919050565b60006020828403121561168357600080fd5b61168c82611655565b9392505050565b6020808252825182820181905260009190848201906040850190845b818110156116495783516001600160a01b0316835292840192918401916001016116af565b600080604083850312156116e757600080fd5b6116f083611655565b946020939093013593505050565b6000806000806080858703121561171457600080fd5b61171d85611655565b966020860135965060408601359560600135945092505050565b634e487b7160e01b600052604160045260246000fd5b634e487b7160e01b600052603260045260246000fd5b634e487b7160e01b600052601160045260246000fd5b600060001982141561178d5761178d611763565b5060010190565b602080825260119082015270131bd85b881b9bdd08185c1c1c9bdd9959607a1b604082015260600190565b602080825260119082015270131bd85b88185b1c9958591e481c185a59607a1b604082015260600190565b602080825260189082015277131bd85b881a185cc8185b1c9958591e48195e1c1a5c995960421b604082015260600190565b600081600019048311821515161561183657611836611763565b500290565b60008261185857634e487b7160e01b600052601260045260246000fd5b500490565b6000821982111561187057611870611763565b500190565b60008282101561188757611887611763565b50039056fe036b6384b5eca791c62761152d0c79bb0604c104a5fb6f4eb0703f3154bb3db0a26469706673582212203c9ceb6706ea42f2706bd7c268b942aff365f219e035e3a95f8d9f7f809b233b64736f6c63430008090033",
  "linkReferences": {},
  "deployedLinkReferences": {}
}