{
  "_format": "hh-sol-artifact-1",
  "contractName": "XLending",
  "sourceName": "contracts/XLending.sol",
  "abi": [
    {
      "inputs": [
        {
          "internalType": "uint256",
          "name": "_interestRate",
          "type": "uint256"
        }
      ],
      "name": "addInterestRate",
      "outputs": [],
      "stateMutability": "nonpayable",
      "type": "function"
    },
    {
      "inputs": [
        {
          "internalType": "address",
          "name": "_borrowerAddress",
          "type": "address"
        },
        {
          "internalType": "uint256",
          "name": "_loanId",
          "type": "uint256"
        }
      ],
      "name": "approveLoan",
      "outputs": [],
      "stateMutability": "payable",
      "type": "function"
    },
    {
      "inputs": [],
      "name": "becomeABorrower",
      "outputs": [],
      "stateMutability": "nonpayable",
      "type": "function"
    },
    {
      "inputs": [
        {
          "internalType": "uint256",
          "name": "_interestRate",
          "type": "uint256"
        }
      ],
      "name": "becomeALender",
      "outputs": [],
      "stateMutability": "nonpayable",
      "type": "function"
    },
    {
      "inputs": [
        {
          "internalType": "uint256",
          "name": "",
          "type": "uint256"
        }
      ],
      "name": "borrowerList",
      "outputs": [
        {
          "internalType": "address",
          "name": "borrowerAddress",
          "type": "address"
        },
        {
          "internalType": "uint256",
          "name": "loanAmount",
          "type": "uint256"
        },
        {
          "internalType": "uint256",
          "name": "interestRate",
          "type": "uint256"
        },
        {
          "internalType": "bool",
          "name": "approved",
          "type": "bool"
        },
        {
          "internalType": "bool",
          "name": "paid",
          "type": "bool"
        },
        {
          "internalType": "uint256",
          "name": "deadline",
          "type": "uint256"
        },
        {
          "internalType": "uint256",
          "name": "score",
          "type": "uint256"
        }
      ],
      "stateMutability": "view",
      "type": "function"
    },
    {
      "inputs": [
        {
          "internalType": "address",
          "name": "",
          "type": "address"
        },
        {
          "internalType": "uint256",
          "name": "",
          "type": "uint256"
        }
      ],
      "name": "borrowerLoanIds",
      "outputs": [
        {
          "internalType": "uint256",
          "name": "",
          "type": "uint256"
        }
      ],
      "stateMutability": "view",
      "type": "function"
    },
    {
      "inputs": [],
      "name": "borrowerPendingLoans",
      "outputs": [
        {
          "components": [
            {
              "internalType": "address",
              "name": "borrowerAddress",
              "type": "address"
            },
            {
              "internalType": "uint256",
              "name": "loanAmount",
              "type": "uint256"
            },
            {
              "internalType": "uint256",
              "name": "interestRate",
              "type": "uint256"
            },
            {
              "internalType": "uint256",
              "name": "deliveryTime",
              "type": "uint256"
            },
            {
              "internalType": "uint256",
              "name": "score",
              "type": "uint256"
            }
          ],
          "internalType": "struct XLending.PendingLoan[]",
          "name": "",
          "type": "tuple[]"
        }
      ],
      "stateMutability": "view",
      "type": "function"
    },
    {
      "inputs": [
        {
          "internalType": "address",
          "name": "",
          "type": "address"
        },
        {
          "internalType": "uint256",
          "name": "",
          "type": "uint256"
        }
      ],
      "name": "borrowers",
      "outputs": [
        {
          "internalType": "address",
          "name": "borrowerAddress",
          "type": "address"
        },
        {
          "internalType": "uint256",
          "name": "loanAmount",
          "type": "uint256"
        },
        {
          "internalType": "uint256",
          "name": "interestRate",
          "type": "uint256"
        },
        {
          "internalType": "bool",
          "name": "approved",
          "type": "bool"
        },
        {
          "internalType": "bool",
          "name": "paid",
          "type": "bool"
        },
        {
          "internalType": "uint256",
          "name": "deadline",
          "type": "uint256"
        },
        {
          "internalType": "uint256",
          "name": "score",
          "type": "uint256"
        }
      ],
      "stateMutability": "view",
      "type": "function"
    },
    {
      "inputs": [
        {
          "internalType": "address",
          "name": "_borrowerAddress",
          "type": "address"
        },
        {
          "internalType": "uint256",
          "name": "_loanId",
          "type": "uint256"
        }
      ],
      "name": "checkLoanStatus",
      "outputs": [
        {
          "internalType": "bool",
          "name": "",
          "type": "bool"
        }
      ],
      "stateMutability": "view",
      "type": "function"
    },
    {
      "inputs": [
        {
          "internalType": "address",
          "name": "_borrowerAddress",
          "type": "address"
        }
      ],
      "name": "getAllApprovedLoans",
      "outputs": [
        {
          "components": [
            {
              "internalType": "address",
              "name": "borrowerAddress",
              "type": "address"
            },
            {
              "internalType": "uint256",
              "name": "loanAmount",
              "type": "uint256"
            },
            {
              "internalType": "uint256",
              "name": "interestRate",
              "type": "uint256"
            },
            {
              "internalType": "bool",
              "name": "approved",
              "type": "bool"
            },
            {
              "internalType": "bool",
              "name": "paid",
              "type": "bool"
            },
            {
              "internalType": "uint256",
              "name": "deadline",
              "type": "uint256"
            },
            {
              "internalType": "uint256",
              "name": "score",
              "type": "uint256"
            }
          ],
          "internalType": "struct XLending.Loan[]",
          "name": "",
          "type": "tuple[]"
        }
      ],
      "stateMutability": "view",
      "type": "function"
    },
    {
      "inputs": [],
      "name": "getAllBorrowers",
      "outputs": [
        {
          "components": [
            {
              "internalType": "address",
              "name": "borrowerAddress",
              "type": "address"
            },
            {
              "internalType": "uint256",
              "name": "loanAmount",
              "type": "uint256"
            },
            {
              "internalType": "uint256",
              "name": "interestRate",
              "type": "uint256"
            },
            {
              "internalType": "bool",
              "name": "approved",
              "type": "bool"
            },
            {
              "internalType": "bool",
              "name": "paid",
              "type": "bool"
            },
            {
              "internalType": "uint256",
              "name": "deadline",
              "type": "uint256"
            },
            {
              "internalType": "uint256",
              "name": "score",
              "type": "uint256"
            }
          ],
          "internalType": "struct XLending.Borrower[]",
          "name": "",
          "type": "tuple[]"
        }
      ],
      "stateMutability": "view",
      "type": "function"
    },
    {
      "inputs": [],
      "name": "getAllLenders",
      "outputs": [
        {
          "components": [
            {
              "internalType": "address",
              "name": "lenderAddress",
              "type": "address"
            },
            {
              "internalType": "uint256",
              "name": "balance",
              "type": "uint256"
            },
            {
              "internalType": "uint256",
              "name": "interestRate",
              "type": "uint256"
            },
            {
              "internalType": "uint256",
              "name": "score",
              "type": "uint256"
            }
          ],
          "internalType": "struct XLending.Lender[]",
          "name": "",
          "type": "tuple[]"
        }
      ],
      "stateMutability": "view",
      "type": "function"
    },
    {
      "inputs": [
        {
          "internalType": "address",
          "name": "_lenderAddress",
          "type": "address"
        }
      ],
      "name": "getAllLoansGivenOut",
      "outputs": [
        {
          "components": [
            {
              "internalType": "address",
              "name": "borrowerAddress",
              "type": "address"
            },
            {
              "internalType": "uint256",
              "name": "loanAmount",
              "type": "uint256"
            },
            {
              "internalType": "uint256",
              "name": "interestRate",
              "type": "uint256"
            },
            {
              "internalType": "bool",
              "name": "approved",
              "type": "bool"
            },
            {
              "internalType": "bool",
              "name": "paid",
              "type": "bool"
            },
            {
              "internalType": "uint256",
              "name": "deadline",
              "type": "uint256"
            },
            {
              "internalType": "uint256",
              "name": "score",
              "type": "uint256"
            }
          ],
          "internalType": "struct XLending.Loan[]",
          "name": "",
          "type": "tuple[]"
        }
      ],
      "stateMutability": "view",
      "type": "function"
    },
    {
      "inputs": [],
      "name": "getAllUnpaidLoans",
      "outputs": [
        {
          "internalType": "uint256[]",
          "name": "",
          "type": "uint256[]"
        }
      ],
      "stateMutability": "view",
      "type": "function"
    },
    {
      "inputs": [
        {
          "internalType": "address",
          "name": "_borrowerAddress",
          "type": "address"
        },
        {
          "internalType": "uint256",
          "name": "_loanId",
          "type": "uint256"
        }
      ],
      "name": "getLoanBalance",
      "outputs": [
        {
          "internalType": "uint256",
          "name": "",
          "type": "uint256"
        }
      ],
      "stateMutability": "view",
      "type": "function"
    },
    {
      "inputs": [],
      "name": "getPendingLoans",
      "outputs": [
        {
          "components": [
            {
              "internalType": "address",
              "name": "borrowerAddress",
              "type": "address"
            },
            {
              "internalType": "uint256",
              "name": "loanAmount",
              "type": "uint256"
            },
            {
              "internalType": "uint256",
              "name": "interestRate",
              "type": "uint256"
            },
            {
              "internalType": "uint256",
              "name": "deliveryTime",
              "type": "uint256"
            },
            {
              "internalType": "uint256",
              "name": "score",
              "type": "uint256"
            }
          ],
          "internalType": "struct XLending.PendingLoan[]",
          "name": "",
          "type": "tuple[]"
        }
      ],
      "stateMutability": "view",
      "type": "function"
    },
    {
      "inputs": [
        {
          "internalType": "address",
          "name": "_address",
          "type": "address"
        }
      ],
      "name": "isBorrower",
      "outputs": [
        {
          "internalType": "bool",
          "name": "",
          "type": "bool"
        }
      ],
      "stateMutability": "view",
      "type": "function"
    },
    {
      "inputs": [
        {
          "internalType": "address",
          "name": "_address",
          "type": "address"
        }
      ],
      "name": "isLender",
      "outputs": [
        {
          "internalType": "bool",
          "name": "",
          "type": "bool"
        }
      ],
      "stateMutability": "view",
      "type": "function"
    },
    {
      "inputs": [
        {
          "internalType": "uint256",
          "name": "_loanId",
          "type": "uint256"
        }
      ],
      "name": "isLoanPaid",
      "outputs": [
        {
          "internalType": "bool",
          "name": "",
          "type": "bool"
        }
      ],
      "stateMutability": "view",
      "type": "function"
    },
    {
      "inputs": [
        {
          "internalType": "uint256",
          "name": "",
          "type": "uint256"
        }
      ],
      "name": "lenderList",
      "outputs": [
        {
          "internalType": "address",
          "name": "lenderAddress",
          "type": "address"
        },
        {
          "internalType": "uint256",
          "name": "balance",
          "type": "uint256"
        },
        {
          "internalType": "uint256",
          "name": "interestRate",
          "type": "uint256"
        },
        {
          "internalType": "uint256",
          "name": "score",
          "type": "uint256"
        }
      ],
      "stateMutability": "view",
      "type": "function"
    },
    {
      "inputs": [
        {
          "internalType": "address",
          "name": "",
          "type": "address"
        },
        {
          "internalType": "uint256",
          "name": "",
          "type": "uint256"
        }
      ],
      "name": "lenderPendingLoans",
      "outputs": [
        {
          "internalType": "address",
          "name": "",
          "type": "address"
        }
      ],
      "stateMutability": "view",
      "type": "function"
    },
    {
      "inputs": [
        {
          "internalType": "address",
          "name": "",
          "type": "address"
        }
      ],
      "name": "lenders",
      "outputs": [
        {
          "internalType": "address",
          "name": "lenderAddress",
          "type": "address"
        },
        {
          "internalType": "uint256",
          "name": "balance",
          "type": "uint256"
        },
        {
          "internalType": "uint256",
          "name": "interestRate",
          "type": "uint256"
        },
        {
          "internalType": "uint256",
          "name": "score",
          "type": "uint256"
        }
      ],
      "stateMutability": "view",
      "type": "function"
    },
    {
      "inputs": [
        {
          "internalType": "address",
          "name": "",
          "type": "address"
        },
        {
          "internalType": "uint256",
          "name": "",
          "type": "uint256"
        }
      ],
      "name": "loans",
      "outputs": [
        {
          "internalType": "address",
          "name": "borrowerAddress",
          "type": "address"
        },
        {
          "internalType": "uint256",
          "name": "loanAmount",
          "type": "uint256"
        },
        {
          "internalType": "uint256",
          "name": "interestRate",
          "type": "uint256"
        },
        {
          "internalType": "bool",
          "name": "approved",
          "type": "bool"
        },
        {
          "internalType": "bool",
          "name": "paid",
          "type": "bool"
        },
        {
          "internalType": "uint256",
          "name": "deadline",
          "type": "uint256"
        },
        {
          "internalType": "uint256",
          "name": "score",
          "type": "uint256"
        }
      ],
      "stateMutability": "view",
      "type": "function"
    },
    {
      "inputs": [
        {
          "internalType": "address",
          "name": "_borrowerAddress",
          "type": "address"
        },
        {
          "internalType": "uint256",
          "name": "_loanId",
          "type": "uint256"
        }
      ],
      "name": "markAsPaid",
      "outputs": [],
      "stateMutability": "nonpayable",
      "type": "function"
    },
    {
      "inputs": [],
      "name": "nextLoanId",
      "outputs": [
        {
          "internalType": "uint256",
          "name": "",
          "type": "uint256"
        }
      ],
      "stateMutability": "view",
      "type": "function"
    },
    {
      "inputs": [],
      "name": "nextPendingLoanId",
      "outputs": [
        {
          "internalType": "uint256",
          "name": "",
          "type": "uint256"
        }
      ],
      "stateMutability": "view",
      "type": "function"
    },
    {
      "inputs": [
        {
          "internalType": "address",
          "name": "",
          "type": "address"
        },
        {
          "internalType": "uint256",
          "name": "",
          "type": "uint256"
        }
      ],
      "name": "pendingLoans",
      "outputs": [
        {
          "internalType": "address",
          "name": "borrowerAddress",
          "type": "address"
        },
        {
          "internalType": "uint256",
          "name": "loanAmount",
          "type": "uint256"
        },
        {
          "internalType": "uint256",
          "name": "interestRate",
          "type": "uint256"
        },
        {
          "internalType": "uint256",
          "name": "deliveryTime",
          "type": "uint256"
        },
        {
          "internalType": "uint256",
          "name": "score",
          "type": "uint256"
        }
      ],
      "stateMutability": "view",
      "type": "function"
    },
    {
      "inputs": [
        {
          "internalType": "uint256",
          "name": "_loanId",
          "type": "uint256"
        }
      ],
      "name": "repay",
      "outputs": [],
      "stateMutability": "payable",
      "type": "function"
    },
    {
      "inputs": [
        {
          "internalType": "address",
          "name": "_lenderAddress",
          "type": "address"
        },
        {
          "internalType": "uint256",
          "name": "_loanAmount",
          "type": "uint256"
        },
        {
          "internalType": "uint256",
          "name": "_interestRate",
          "type": "uint256"
        },
        {
          "internalType": "uint256",
          "name": "_deadline",
          "type": "uint256"
        }
      ],
      "name": "requestLoan",
      "outputs": [],
      "stateMutability": "nonpayable",
      "type": "function"
    }
  ],
  "bytecode": "0x608060405234801561001057600080fd5b50612b44806100206000396000f3fe6080604052600436106101525760003560e01c8063049462e714610157578063079befac146102d5578063102665461461030b578063176c149e1461032b5780632375049b1461034d57806328fd10d71461036f5780632ff9badf146103e557806332abcdbe1461041d578063371fd8e61461043f578063374f7b7e146104525780636085c7df146104ab5780636dc7962a146104cb578063709b8961146104f957806374c915d91461053457806387c51459146105c257806392c79d12146105d857806398c61c37146105f85780639cedf8b3146106aa5780639f63f5c3146106c0578063a1666b54146106d3578063a56e11bc146106f5578063a9d500ed14610715578063b3a6652414610735578063bcddc0d314610755578063d00c1a5314610775578063eaf6e48314610795578063ee24af5a146107dd578063f335ed76146107f2578063fbabd13c14610862575b600080fd5b34801561016357600080fd5b506102d36040805160e0810182523380825260006020808401828152848601838152606086018481526080870185815260a0880186815260c0890187815297875260058087528a88206008548952909652988620885181546001600160a01b039182166001600160a01b031991821617835586516001848101919091558651600285015585516003850180548751151561010090810261ff0019941515851661ffff1993841617179092558f5160048801558d5196909b0195909555600780549283018155909a529a516006909b02600080516020612a2f833981519152810180549c9093169b9091169a909a1790559351600080516020612acf8339815191528901559151600080516020612a0f83398151915288015551600080516020612aef833981519152870180549251151590930290151590941692169190911791909117905591516000805160206129cf8339815191528201559051600080516020612aaf83398151915290910155565b005b3480156102e157600080fd5b506102f56102f03660046125ee565b610882565b604051610302919061265e565b60405180910390f35b34801561031757600080fd5b506102d36103263660046126ac565b610a51565b34801561033757600080fd5b50610340610adb565b60405161030291906126c5565b34801561035957600080fd5b50610362610ca2565b60405161030291906126fd565b34801561037b57600080fd5b506103bb61038a3660046125ee565b60006020819052908152604090208054600182015460028301546003909301546001600160a01b0390921692909184565b604080516001600160a01b0390951685526020850193909352918301526060820152608001610302565b3480156103f157600080fd5b50610405610400366004612774565b610ed1565b6040516001600160a01b039091168152602001610302565b34801561042957600080fd5b50610432610f09565b604051610302919061279e565b6102d361044d3660046126ac565b610fbc565b34801561045e57600080fd5b5061049b61046d366004612774565b6001600160a01b03919091166000908152600560209081526040808320938352929052206003015460ff1690565b6040519015158152602001610302565b3480156104b757600080fd5b506103bb6104c63660046126ac565b6112c0565b3480156104d757600080fd5b506104eb6104e6366004612774565b611304565b604051908152602001610302565b34801561050557600080fd5b5061049b6105143660046125ee565b6001600160a01b0390811660009081526020819052604090205416151590565b34801561054057600080fd5b5061059061054f366004612774565b60026020818152600093845260408085209091529183529120805460018201549282015460038301546004909301546001600160a01b039092169392909185565b604080516001600160a01b0390961686526020860194909452928401919091526060830152608082015260a001610302565b3480156105ce57600080fd5b506104eb60085481565b3480156105e457600080fd5b506102d36105f33660046127e0565b6113f1565b34801561060457600080fd5b50610669610613366004612774565b600160208181526000938452604080852090915291835291208054918101546002820154600383015460048401546005909401546001600160a01b03909516949293919260ff8083169361010090930416919087565b604080516001600160a01b03909816885260208801969096529486019390935290151560608501521515608084015260a083015260c082015260e001610302565b3480156106b657600080fd5b506104eb60095481565b6102d36106ce366004612774565b611696565b3480156106df57600080fd5b506106e8611b52565b6040516103029190612819565b34801561070157600080fd5b506104eb610710366004612774565b611bd3565b34801561072157600080fd5b506102f56107303660046125ee565b611c04565b34801561074157600080fd5b506106696107503660046126ac565b611e4e565b34801561076157600080fd5b506102d36107703660046126ac565b611eac565b34801561078157600080fd5b506102d3610790366004612774565b611fe0565b3480156107a157600080fd5b5061049b6107b03660046125ee565b6001600160a01b039081166000908152600560209081526040808320600854845290915290205416151590565b3480156107e957600080fd5b50610362612179565b3480156107fe57600080fd5b5061066961080d366004612774565b600560208181526000938452604080852090915291835291208054600182015460028301546003840154600485015494909501546001600160a01b03909316949193909260ff80841693610100900416919087565b34801561086e57600080fd5b5061049b61087d3660046126ac565b612351565b6001600160a01b03811660009081526003602090815260408083208054825181850281018501909352808352606094938301828280156108e157602002820191906000526020600020905b8154815260200190600101908083116108cd575b50505050509050600081516001600160401b0381111561090357610903612879565b60405190808252806020026020018201604052801561093c57816020015b610929612550565b8152602001906001900390816109215790505b50905060005b8251811015610a4957600083828151811061095f5761095f61288f565b6020908102919091018101516001600160a01b03881660009081526001835260408082208383529093529190912060038101549192509060ff1680156109af57506003810154610100900460ff16155b15610a34576040805160e08101825282546001600160a01b0316815260018301546020820152600283015491810191909152600382015460ff808216151560608401526101009091041615156080820152600482015460a0820152600582015460c08201528451859085908110610a2857610a2861288f565b60200260200101819052505b50508080610a41906128bb565b915050610942565b509392505050565b336000908152602081905260409020546001600160a01b0316610ac65760405162461bcd60e51b815260206004820152602260248201527f4f6e6c79206c656e646572732063616e2061646420696e746572657374207261604482015261746560f01b60648201526084015b60405180910390fd5b33600090815260208190526040902060020155565b33600090815260036020526040812054606091906001600160401b03811115610b0657610b06612879565b604051908082528060200260200182016040528015610b2f578160200160208202803683370190505b5090506000805b33600090815260036020526040902054811015610c0757336000908152600360205260408120805483908110610b6e57610b6e61288f565b6000918252602080832090910154338352600582526040808420828552909252912060038101549192509060ff168015610bb257506003810154610100900460ff16155b8015610bc15750806004015442105b15610bf25781858581518110610bd957610bd961288f565b602090810291909101015283610bee816128bb565b9450505b50508080610bff906128bb565b915050610b36565b506000816001600160401b03811115610c2257610c22612879565b604051908082528060200260200182016040528015610c4b578160200160208202803683370190505b50905060005b82811015610a4957838181518110610c6b57610c6b61288f565b6020026020010151828281518110610c8557610c8561288f565b602090810291909101015280610c9a816128bb565b915050610c51565b33600090815260036020526040812054606091906001600160401b03811115610ccd57610ccd612879565b604051908082528060200260200182016040528015610cf6578160200160208202803683370190505b5090506000805b33600090815260036020526040902054811015610da857336000908152600360205260408120805483908110610d3557610d3561288f565b6000918252602080832090910154338352600582526040808420828552909252912060038101549192509060ff16610d935781858581518110610d7a57610d7a61288f565b602090810291909101015283610d8f816128bb565b9450505b50508080610da0906128bb565b915050610cfd565b506000816001600160401b03811115610dc357610dc3612879565b604051908082528060200260200182016040528015610dfc57816020015b610de961259a565b815260200190600190039081610de15790505b50905060005b82811015610a49576000848281518110610e1e57610e1e61288f565b60209081029190910181015133600081815260028085526040808320858452865280832093835260058652808320858452865291829020825160a08101845281546001600160a01b0316815260018201549681019690965290810154918501919091526003820154606085015260048201546080850152865192945090929091869086908110610eb057610eb061288f565b60200260200101819052505050508080610ec9906128bb565b915050610e02565b60046020528160005260406000208181548110610eed57600080fd5b6000918252602090912001546001600160a01b03169150829050565b60606007805480602002602001604051908101604052809291908181526020016000905b82821015610fb35760008481526020908190206040805160e0810182526006860290920180546001600160a01b0316835260018082015484860152600282015492840192909252600381015460ff808216151560608601526101009091041615156080840152600481015460a08401526005015460c08301529083529092019101610f2d565b50505050905090565b3360009081526005602090815260408083208484529091529020546001600160a01b03166110275760405162461bcd60e51b81526020600482015260186024820152774f6e6c7920626f72726f776572732063616e20726570617960401b6044820152606401610abd565b33600090815260056020908152604080832084845290915290206003015460ff166110645760405162461bcd60e51b8152600401610abd906128d6565b336000908152600560209081526040808320848452909152902060030154610100900460ff16156110a75760405162461bcd60e51b8152600401610abd90612901565b33600090815260056020908152604080832084845290915290206004015442106110e35760405162461bcd60e51b8152600401610abd9061292c565b33600090815260056020908152604080832084845290915281206002810154600190910154349291606491611118919061295e565b611122919061297d565b3360009081526005602090815260408083208784529091528120600101549192509061114f90839061299f565b9050808310156111ab5760405162461bcd60e51b815260206004820152602160248201527f496e73756666696369656e7420616d6f756e7420746f207265706179206c6f616044820152603760f91b6064820152608401610abd565b60006111b782856129b7565b905080156111ee57604051339082156108fc029083906000818181858888f193505050501580156111ec573d6000803e3d6000fd5b505b336000818152600560209081526040808320898452825280832060019081015494845291839052822001805490919061122890849061299f565b90915550503360008181526005602090815260408083208984529091529020600301805461ff001916610100179055611260906123f6565b3360009081526020818152604080832054600583528184208985529092528083206001015490516001600160a01b03909216926108fc8215029290818181858888f193505050501580156112b8573d6000803e3d6000fd5b505050505050565b600681815481106112d057600080fd5b600091825260209091206004909102018054600182015460028301546003909301546001600160a01b039092169350919084565b6001600160a01b03828116600090815260056020908152604080832085845290915281205490911661136e5760405162461bcd60e51b8152602060048201526013602482015272131bd85b88191bd95cc81b9bdd08195e1a5cdd606a1b6044820152606401610abd565b6001600160a01b0383166000908152600560209081526040808320858452909152812060028101546001909101546064916113a89161295e565b6113b2919061297d565b6001600160a01b0385166000908152600560209081526040808320878452909152812060010154919250906113e890839061299f565b95945050505050565b60088054906000611401836128bb565b90915550506040805160e08101825233815260208101859052908101839052600060608201819052608082015260a0810161143c834261299f565b815260006020918201819052338082526005808452604080842060085485528552808420865181546001600160a01b0319166001600160a01b039091161781558686015160018201558682015160028201556060808801516003830180546080808c015161ffff1990921693151561ff001916939093176101009115159190910217905560a0808a0151600485015560c0909901519290940191909155815160e081018352938452948301899052820187905292810182905291820152908101611506834261299f565b8152600060209182018190523380825260018084526040808420600880548652908652818520875181546001600160a01b03919091166001600160a01b031990911617815587870151818501558783015160028201556060808901516003808401805460808d015115156101000261ff00199415159490941661ffff19909116179290921790915560a0808b0151600485015560c0909a015160059093019290925585875290875282862091548254948501835591865294869020909201919091558051948501815290845291830186905290820184905281016115ea834261299f565b8152600060209182018190526001600160a01b03808816808352600280855260408085206009805487529087528186208851815496166001600160a01b0319968716178155888801516001808301919091558984015194820194909455606089015160038201556080909801516004988901559285529585529483208054958601815583529282209093018054909316331790925580549161168b836128bb565b919050555050505050565b336000908152602081905260409020546001600160a01b03166116fb5760405162461bcd60e51b815260206004820152601d60248201527f4f6e6c79206c656e646572732063616e20617070726f7665206c6f616e0000006044820152606401610abd565b6001600160a01b0380831660009081526005602090815260408083208584529091529020805490911661176a5760405162461bcd60e51b8152602060048201526017602482015276109bdc9c9bddd95c88191bd95cc81b9bdd08195e1a5cdd604a1b6044820152606401610abd565b600381015460ff16156117b75760405162461bcd60e51b8152602060048201526015602482015274131bd85b88185b1c9958591e48185c1c1c9bdd9959605a1b6044820152606401610abd565b3360009081526020819052604081206002015460018301546064916117db9161295e565b6117e5919061297d565b905060008183600101546117f9919061299f565b336000908152602081905260409020600101549091508111156118555760405162461bcd60e51b8152602060048201526014602482015273496e73756666696369656e742062616c616e636560601b6044820152606401610abd565b33600090815260208190526040812060010180548392906118779084906129b7565b909155505060038301805460ff191660011790556118984262278d0061299f565b60048401556040516001600160a01b0386169082156108fc029083906000818181858888f193505050501580156118d3573d6000803e3d6000fd5b506000805b60075481101561193f578454600780546001600160a01b0390921691839081106119045761190461288f565b60009182526020909120600690910201546001600160a01b0316141561192d576001915061193f565b80611937816128bb565b9150506118d8565b5080611a3b57600780546001818101835560009290925285546006909102600080516020612a2f833981519152810180546001600160a01b0319166001600160a01b039093169290921790915590850154600080516020612acf8339815191528201556002850154600080516020612a0f833981519152820155600385018054600080516020612aef8339815191528301805460ff928316151560ff19821681178355935461010090819004909316151590920261ff001990931661ffff199092169190911791909117905560048501546000805160206129cf8339815191528201556005850154600080516020612aaf833981519152909101555b6000805b600654811015611aa157336001600160a01b031660068281548110611a6657611a6661288f565b60009182526020909120600490910201546001600160a01b03161415611a8f5760019150611aa1565b80611a99816128bb565b915050611a3f565b5080611b495760408051608081018252338152600060208201818152928201818152606083018281526006805460018101825593529251600080516020612a8f833981519152600490930292830180546001600160a01b0319166001600160a01b039092169190911790559251600080516020612a4f8339815191528201559151600080516020612a6f833981519152830155516000805160206129ef833981519152909101555b50505050505050565b60606006805480602002602001604051908101604052809291908181526020016000905b82821015610fb3576000848152602090819020604080516080810182526004860290920180546001600160a01b03168352600180820154848601526002820154928401929092526003015460608301529083529092019101611b76565b60036020528160005260406000208181548110611bef57600080fd5b90600052602060002001600091509150505481565b6001600160a01b0381166000908152600360209081526040808320805482518185028101850190935280835260609493830182828015611c6357602002820191906000526020600020905b815481526020019060010190808311611c4f575b505050505090506000805b8251811015611ce9576000838281518110611c8b57611c8b61288f565b6020908102919091018101516001600160a01b0388166000908152600183526040808220838352909352919091206003015490915060ff1615611cd65782611cd2816128bb565b9350505b5080611ce1816128bb565b915050611c6e565b506000816001600160401b03811115611d0457611d04612879565b604051908082528060200260200182016040528015611d3d57816020015b611d2a612550565b815260200190600190039081611d225790505b5090506000805b8451811015611e43576000858281518110611d6157611d6161288f565b6020908102919091018101516001600160a01b038a1660009081526001835260408082208383529093529190912060038101549192509060ff1615611e2e576040805160e08101825282546001600160a01b0316815260018301546020820152600283015491810191909152600382015460ff808216151560608401526101009091041615156080820152600482015460a0820152600582015460c08201528551869086908110611e1457611e1461288f565b60200260200101819052508380611e2a906128bb565b9450505b50508080611e3b906128bb565b915050611d44565b509095945050505050565b60078181548110611e5e57600080fd5b60009182526020909120600690910201805460018201546002830154600384015460048501546005909501546001600160a01b0390941695509193909260ff80841693610100900416919087565b336000908152602081905260409020546001600160a01b031615611f055760405162461bcd60e51b815260206004820152601060248201526f20b63932b0b23c9030903632b73232b960811b6044820152606401610abd565b60408051608081018252338082528031602080840191825283850195865260006060850181815293815290819052938420925183546001600160a01b039182166001600160a01b03199182161785559151600180860191825596516002860190815593516003860190815560068054988901815590965293546004909602600080516020612a8f83398151915281018054909316969091169590951790559054600080516020612a4f83398151915284015554600080516020612a6f833981519152830155546000805160206129ef83398151915290910155565b6001600160a01b0382811660009081526005602090815260408083208584529091529020541633146120605760405162461bcd60e51b815260206004820152602360248201527f4f6e6c7920626f72726f7765722063616e206d61726b206c6f616e2061732070604482015262185a5960ea1b6064820152608401610abd565b6001600160a01b038216600090815260056020908152604080832084845290915290206003015460ff166120a65760405162461bcd60e51b8152600401610abd906128d6565b6001600160a01b0382166000908152600560209081526040808320848452909152902060030154610100900460ff16156120f25760405162461bcd60e51b8152600401610abd90612901565b6001600160a01b038216600090815260056020908152604080832084845290915290206004015442106121375760405162461bcd60e51b8152600401610abd9061292c565b6001600160a01b0382166000908152600560209081526040808320848452909152902060038101805461ff001916610100179055612174836123f6565b505050565b3360009081526004602090815260408083208054825181850281018501909352808352606094938301828280156121d957602002820191906000526020600020905b81546001600160a01b031681526001909101906020018083116121bb575b50505050509050600081516001600160401b038111156121fb576121fb612879565b60405190808252806020026020018201604052801561223457816020015b61222161259a565b8152602001906001900390816122195790505b50905060005b825181101561234a5760008382815181106122575761225761288f565b6020908102919091018101516001600160a01b038116600090815260039092526040822080549193509061228d906001906129b7565b8154811061229d5761229d61288f565b60009182526020808320909101546001600160a01b038516808452600583526040808520838652845280852033865260028086528287208a8852865295829020825160a081018452938452600182015495840195909552948501549082015260038301546060820152600483015460808201528751919450908790879081106123285761232861288f565b6020026020010181905250505050508080612342906128bb565b91505061223a565b5092915050565b3360009081526005602090815260408083208484529091528120546001600160a01b03166123cd5760405162461bcd60e51b8152602060048201526024808201527f4f6e6c7920626f72726f776572732063616e20636865636b206c6f616e2073746044820152636174757360e01b6064820152608401610abd565b503360009081526005602090815260408083209383529290522060030154610100900460ff1690565b6000806000805b6001600160a01b0385166000908152600360205260409020548110156124f6576001600160a01b03851660009081526003602052604081208054839081106124475761244761288f565b60009182526020808320909101546001600160a01b038916835260058252604080842082855290925291206003015490915060ff61010090910416156124a75783612491816128bb565b945050848061249f906128bb565b9550506124e3565b6001600160a01b03861660009081526005602090815260408083208484529091529020600401544211156124e357826124df816128bb565b9350505b50806124ee816128bb565b9150506123fd565b50600082118015612505575080155b1561251757612514828461299f565b92505b600a83111561252557600a92505b50506001600160a01b0390911660009081526005602081815260408084208480529091529091200155565b6040518060e0016040528060006001600160a01b03168152602001600081526020016000815260200160001515815260200160001515815260200160008152602001600081525090565b6040518060a0016040528060006001600160a01b03168152602001600081526020016000815260200160008152602001600081525090565b80356001600160a01b03811681146125e957600080fd5b919050565b60006020828403121561260057600080fd5b612609826125d2565b9392505050565b80516001600160a01b03168252602080820151908301526040808201519083015260608082015115159083015260808082015115159083015260a0818101519083015260c090810151910152565b6020808252825182820181905260009190848201906040850190845b818110156126a05761268d838551612610565b9284019260e0929092019160010161267a565b50909695505050505050565b6000602082840312156126be57600080fd5b5035919050565b6020808252825182820181905260009190848201906040850190845b818110156126a0578351835292840192918401916001016126e1565b602080825282518282018190526000919060409081850190868401855b8281101561276757815180516001600160a01b0316855286810151878601528581015186860152606080820151908601526080908101519085015260a0909301929085019060010161271a565b5091979650505050505050565b6000806040838503121561278757600080fd5b612790836125d2565b946020939093013593505050565b6020808252825182820181905260009190848201906040850190845b818110156126a0576127cd838551612610565b9284019260e092909201916001016127ba565b600080600080608085870312156127f657600080fd5b6127ff856125d2565b966020860135965060408601359560600135945092505050565b602080825282518282018190526000919060409081850190868401855b8281101561276757815180516001600160a01b03168552868101518786015285810151868601526060908101519085015260809093019290850190600101612836565b634e487b7160e01b600052604160045260246000fd5b634e487b7160e01b600052603260045260246000fd5b634e487b7160e01b600052601160045260246000fd5b60006000198214156128cf576128cf6128a5565b5060010190565b602080825260119082015270131bd85b881b9bdd08185c1c1c9bdd9959607a1b604082015260600190565b602080825260119082015270131bd85b88185b1c9958591e481c185a59607a1b604082015260600190565b602080825260189082015277131bd85b881a185cc8185b1c9958591e48195e1c1a5c995960421b604082015260600190565b6000816000190483118215151615612978576129786128a5565b500290565b60008261299a57634e487b7160e01b600052601260045260246000fd5b500490565b600082198211156129b2576129b26128a5565b500190565b6000828210156129c9576129c96128a5565b50039056fea66cc928b5edb82af9bd49922954155ab7b0942694bea4ce44661d9a8736c68cf652222313e28459528d920b65115c16c04f3efc82aaedc97be59f3f377c0d42a66cc928b5edb82af9bd49922954155ab7b0942694bea4ce44661d9a8736c68aa66cc928b5edb82af9bd49922954155ab7b0942694bea4ce44661d9a8736c688f652222313e28459528d920b65115c16c04f3efc82aaedc97be59f3f377c0d40f652222313e28459528d920b65115c16c04f3efc82aaedc97be59f3f377c0d41f652222313e28459528d920b65115c16c04f3efc82aaedc97be59f3f377c0d3fa66cc928b5edb82af9bd49922954155ab7b0942694bea4ce44661d9a8736c68da66cc928b5edb82af9bd49922954155ab7b0942694bea4ce44661d9a8736c689a66cc928b5edb82af9bd49922954155ab7b0942694bea4ce44661d9a8736c68ba26469706673582212206f30c544a8f378a19900b4ccc8a9e868cf8e5ce103cbbc723d728b29933f072564736f6c63430008090033",
  "linkReferences": {},
  "deployedLinkReferences": {}
}