{
  "_format": "hh-sol-artifact-1",
  "contractName": "XSWAP",
  "sourceName": "contracts/XSWAP.sol",
  "abi": [
    {
      "inputs": [],
      "stateMutability": "nonpayable",
      "type": "constructor"
    },
    {
      "inputs": [
        {
          "internalType": "uint256",
          "name": "fromToken",
          "type": "uint256"
        },
        {
          "internalType": "uint256",
          "name": "toToken",
          "type": "uint256"
        },
        {
          "internalType": "uint256",
          "name": "amount",
          "type": "uint256"
        }
      ],
      "name": "getXswapRate",
      "outputs": [
        {
          "internalType": "uint256",
          "name": "",
          "type": "uint256"
        }
      ],
      "stateMutability": "view",
      "type": "function"
    }
  ],
  "bytecode": "0x608060405234801561001057600080fd5b506103e87fb37150ceb7e138645bfe4dfcef9a75073e1d7aa14c524dfdd20d3f751fad10845560017f074f1a94432de106f4a8e9fe8ba3e1cfc1d83e37bec74dfb1723c4b3a135d7238190556103847f9b7d9d4d38e09e01f2082dbdeee850cc1f3aa1605ae9a63dcd694a7373b5e76f557fd630ebb6f3fca7f72541861bbc3becadfa17e5ce2cea660e565960d0dc2f4e798190556103207f2bdb90e0013561de9fe2ce7f1b0fda9bde9a6242e308f88c86fc1fc34faaeea9557f85e7917f33434b15f63fbb78656bef0ba94919a5b52bb8140840d31acdf0446281905561044c7f9821ba7036ef6cfab7513292b65dfdcd7d1b2ce972be3b067dbe5e9f242cfa6d5560008190527f52d75039926638d3c558b2bdefb945d5be8dae29dedd1c313212a4d472d9fde56020527ff641eb66a0521800c6f5ed8da125060b3b7e4a54d05780c8ee334dc4e2c631e2556101598061016d6000396000f3fe608060405234801561001057600080fd5b506004361061002b5760003560e01c8063805a2b1414610030575b600080fd5b61004361003e3660046100ca565b610055565b60405190815260200160405180910390f35b600083815260208181526040808320858452909152812054806100b75760405162461bcd60e51b81526020600482015260166024820152752ab739bab83837b93a32b2103a37b5b2b7103830b4b960511b604482015260640160405180910390fd5b6100c181846100f6565b95945050505050565b6000806000606084860312156100df57600080fd5b505081359360208301359350604090920135919050565b600081600019048311821515161561011e57634e487b7160e01b600052601160045260246000fd5b50029056fea26469706673582212204c3fd9a2091cd331a85dbdeaa5ae9d7b7db175c818c3e4ace64c65ef8d83d56f64736f6c63430008090033",
  "linkReferences": {},
  "deployedLinkReferences": {}
}