{
  "_format": "hh-sol-artifact-1",
  "contractName": "XSWAP",
  "sourceName": "contracts/XSWAP.sol",
  "abi": [
    {
      "inputs": [],
      "stateMutability": "nonpayable",
      "type": "constructor"
    },
    {
      "inputs": [
        {
          "internalType": "uint256",
          "name": "fromToken",
          "type": "uint256"
        },
        {
          "internalType": "uint256",
          "name": "toToken",
          "type": "uint256"
        },
        {
          "internalType": "uint256",
          "name": "amount",
          "type": "uint256"
        }
      ],
      "name": "getXswapRate",
      "outputs": [
        {
          "internalType": "uint256",
          "name": "",
          "type": "uint256"
        }
      ],
      "stateMutability": "view",
      "type": "function"
    }
  ],
  "bytecode": "0x608060405234801561001057600080fd5b50600160008190526000805160206105a78339815191526020527fe3be84349242383ed4b31bbb7ede08a8080ac9d5e828342f449d34bf731539e95561005a60c76298968061037b565b60026000526000805160206105a78339815191526020527fb37150ceb7e138645bfe4dfcef9a75073e1d7aa14c524dfdd20d3f751fad1084556100a36124f36305f5e10061037b565b60036000526000805160206105a78339815191526020527f9b7d9d4d38e09e01f2082dbdeee850cc1f3aa1605ae9a63dcd694a7373b5e76f556100e8600960fa61037b565b7f9821ba7036ef6cfab7513292b65dfdcd7d1b2ce972be3b067dbe5e9f242cfa6d55600160005260008051602061058783398151915260205261cd9f7f074f1a94432de106f4a8e9fe8ba3e1cfc1d83e37bec74dfb1723c4b3a135d72355610152606b601461037b565b60036000526000805160206105878339815191526020527f2bdb90e0013561de9fe2ce7f1b0fda9bde9a6242e308f88c86fc1fc34faaeea95561019962015fad603261037b565b60046000526000805160206105878339815191526020527f485f75d70af054a206cac60bc8af7a8826f2fa70d73169bccdb86d8b02383f94556101e0621d263e60c861037b565b60016000526000805160206105678339815191526020527fd630ebb6f3fca7f72541861bbc3becadfa17e5ce2cea660e565960d0dc2f4e79556102256013606461037b565b60026000526000805160206105678339815191526020527f85e7917f33434b15f63fbb78656bef0ba94919a5b52bb8140840d31acdf044625561026b618336606461037b565b60046000526000805160206105678339815191526020527ff80d623dd312fffd8ce37b6eebbbf76a0d4d152db75aa94077c1f970c3b7c9fa556102b1610b10606461037b565b60016000526000805160206105c78339815191526020527ff641eb66a0521800c6f5ed8da125060b3b7e4a54d05780c8ee334dc4e2c631e2556102f7600b614e2061037b565b60026000526000805160206105c78339815191526020527f59aa0ef68b606b4c9c56f48aadaa35e786faf78de618469413fbf7f18d7fb2e35561033d601e61271061037b565b60036000526000805160206105c78339815191526020527f887d237fb6048b15b5b7e1200d2c6011601206d5620dd039d9ce235e47198281556103ff565b60008161038a575060006103aa565b8161039d84670de0b6b3a76400006103b0565b6103a791906103dd565b90505b92915050565b60008160001904831182151516156103d857634e487b7160e01b600052601160045260246000fd5b500290565b6000826103fa57634e487b7160e01b600052601260045260246000fd5b500490565b6101598061040e6000396000f3fe608060405234801561001057600080fd5b506004361061002b5760003560e01c8063805a2b1414610030575b600080fd5b61004361003e3660046100ca565b610055565b60405190815260200160405180910390f35b600083815260208181526040808320858452909152812054806100b75760405162461bcd60e51b81526020600482015260166024820152752ab739bab83837b93a32b2103a37b5b2b7103830b4b960511b604482015260640160405180910390fd5b6100c181846100f6565b95945050505050565b6000806000606084860312156100df57600080fd5b505081359360208301359350604090920135919050565b600081600019048311821515161561011e57634e487b7160e01b600052601160045260246000fd5b50029056fea264697066735822122084608cadff18e7dbe9f3cb4b47406669309c7255dafb09b72123d555529dea0f64736f6c63430008090033101e368776582e57ab3d116ffe2517c0a585cd5b23174b01e275c2d8329c3d83abbb5caa7dda850e60932de0934eb1f9d0f59695050f761dc64e443e5030a569ada5013122d395ba3c54772283fb069b10426056ef8ca54750cb9bb552a59e7d52d75039926638d3c558b2bdefb945d5be8dae29dedd1c313212a4d472d9fde5",
  "linkReferences": {},
  "deployedLinkReferences": {}
}